{
	"contracts/ProposalContract.sol": {
		"ProposalContract": {
			"abi": [
				{
					"inputs": [],
					"stateMutability": "nonpayable",
					"type": "constructor"
				},
				{
					"inputs": [
						{
							"internalType": "string",
							"name": "_description",
							"type": "string"
						},
						{
							"internalType": "uint256",
							"name": "_total_vote_to_end",
							"type": "uint256"
						}
					],
					"name": "create",
					"outputs": [],
					"stateMutability": "nonpayable",
					"type": "function"
				},
				{
					"inputs": [],
					"name": "getCurrentPoll",
					"outputs": [
						{
							"components": [
								{
									"internalType": "string",
									"name": "description",
									"type": "string"
								},
								{
									"internalType": "uint256",
									"name": "approve",
									"type": "uint256"
								},
								{
									"internalType": "uint256",
									"name": "reject",
									"type": "uint256"
								},
								{
									"internalType": "uint256",
									"name": "pass",
									"type": "uint256"
								},
								{
									"internalType": "uint256",
									"name": "total_vote_to_end",
									"type": "uint256"
								},
								{
									"internalType": "bool",
									"name": "current_state",
									"type": "bool"
								},
								{
									"internalType": "bool",
									"name": "is_active",
									"type": "bool"
								}
							],
							"internalType": "struct ProposalContract.Proposal",
							"name": "",
							"type": "tuple"
						}
					],
					"stateMutability": "view",
					"type": "function"
				},
				{
					"inputs": [],
					"name": "getOwner",
					"outputs": [
						{
							"internalType": "address",
							"name": "",
							"type": "address"
						}
					],
					"stateMutability": "view",
					"type": "function"
				},
				{
					"inputs": [
						{
							"internalType": "uint256",
							"name": "number",
							"type": "uint256"
						}
					],
					"name": "getProposal",
					"outputs": [
						{
							"components": [
								{
									"internalType": "string",
									"name": "description",
									"type": "string"
								},
								{
									"internalType": "uint256",
									"name": "approve",
									"type": "uint256"
								},
								{
									"internalType": "uint256",
									"name": "reject",
									"type": "uint256"
								},
								{
									"internalType": "uint256",
									"name": "pass",
									"type": "uint256"
								},
								{
									"internalType": "uint256",
									"name": "total_vote_to_end",
									"type": "uint256"
								},
								{
									"internalType": "bool",
									"name": "current_state",
									"type": "bool"
								},
								{
									"internalType": "bool",
									"name": "is_active",
									"type": "bool"
								}
							],
							"internalType": "struct ProposalContract.Proposal",
							"name": "",
							"type": "tuple"
						}
					],
					"stateMutability": "view",
					"type": "function"
				},
				{
					"inputs": [
						{
							"internalType": "address",
							"name": "_address",
							"type": "address"
						}
					],
					"name": "isVoted",
					"outputs": [
						{
							"internalType": "bool",
							"name": "",
							"type": "bool"
						}
					],
					"stateMutability": "view",
					"type": "function"
				},
				{
					"inputs": [
						{
							"internalType": "address",
							"name": "new_owner",
							"type": "address"
						}
					],
					"name": "setOwner",
					"outputs": [],
					"stateMutability": "nonpayable",
					"type": "function"
				},
				{
					"inputs": [],
					"name": "terminatePoll",
					"outputs": [],
					"stateMutability": "nonpayable",
					"type": "function"
				},
				{
					"inputs": [
						{
							"internalType": "uint8",
							"name": "choice",
							"type": "uint8"
						}
					],
					"name": "vote",
					"outputs": [],
					"stateMutability": "nonpayable",
					"type": "function"
				}
			],
			"devdoc": {
				"kind": "dev",
				"methods": {},
				"version": 1
			},
			"evm": {
				"assembly": "    /* \"contracts/ProposalContract.sol\":91:3813  contract ProposalContract {... */\n  mstore(0x40, 0x80)\n    /* \"contracts/ProposalContract.sol\":718:812  constructor() {... */\n  callvalue\n  dup1\n  iszero\n  tag_1\n  jumpi\n  0x00\n  dup1\n  revert\ntag_1:\n  pop\n    /* \"contracts/ProposalContract.sol\":751:761  msg.sender */\n  caller\n    /* \"contracts/ProposalContract.sol\":743:748  owner */\n  0x00\n  dup1\n    /* \"contracts/ProposalContract.sol\":743:761  owner = msg.sender */\n  0x0100\n  exp\n  dup2\n  sload\n  dup2\n  0xffffffffffffffffffffffffffffffffffffffff\n  mul\n  not\n  and\n  swap1\n  dup4\n  0xffffffffffffffffffffffffffffffffffffffff\n  and\n  mul\n  or\n  swap1\n  sstore\n  pop\n    /* \"contracts/ProposalContract.sol\":772:787  voted_addresses */\n  0x04\n    /* \"contracts/ProposalContract.sol\":793:803  msg.sender */\n  caller\n    /* \"contracts/ProposalContract.sol\":772:804  voted_addresses.push(msg.sender) */\n  swap1\n  dup1\n  0x01\n  dup2\n  sload\n  add\n  dup1\n  dup3\n  sstore\n  dup1\n  swap2\n  pop\n  pop\n  0x01\n  swap1\n  sub\n  swap1\n  0x00\n  mstore\n  keccak256(0x00, 0x20)\n  add\n  0x00\n  swap1\n  swap2\n  swap1\n  swap2\n  swap1\n  swap2\n  0x0100\n  exp\n  dup2\n  sload\n  dup2\n  0xffffffffffffffffffffffffffffffffffffffff\n  mul\n  not\n  and\n  swap1\n  dup4\n  0xffffffffffffffffffffffffffffffffffffffff\n  and\n  mul\n  or\n  swap1\n  sstore\n  pop\n    /* \"contracts/ProposalContract.sol\":91:3813  contract ProposalContract {... */\n  dataSize(sub_0)\n  dup1\n  dataOffset(sub_0)\n  0x00\n  codecopy\n  0x00\n  return\nstop\n\nsub_0: assembly {\n        /* \"contracts/ProposalContract.sol\":91:3813  contract ProposalContract {... */\n      mstore(0x40, 0x80)\n      callvalue\n      dup1\n      iszero\n      tag_1\n      jumpi\n      0x00\n      dup1\n      revert\n    tag_1:\n      pop\n      jumpi(tag_2, lt(calldatasize, 0x04))\n      shr(0xe0, calldataload(0x00))\n      dup1\n      0x893d20e8\n      gt\n      tag_11\n      jumpi\n      dup1\n      0x893d20e8\n      eq\n      tag_7\n      jumpi\n      dup1\n      0xb3f98adc\n      eq\n      tag_8\n      jumpi\n      dup1\n      0xc7f758a8\n      eq\n      tag_9\n      jumpi\n      dup1\n      0xcbff75cb\n      eq\n      tag_10\n      jumpi\n      jump(tag_2)\n    tag_11:\n      dup1\n      0x13af4035\n      eq\n      tag_3\n      jumpi\n      dup1\n      0x32149fb5\n      eq\n      tag_4\n      jumpi\n      dup1\n      0x46f81a87\n      eq\n      tag_5\n      jumpi\n      dup1\n      0x581efa7a\n      eq\n      tag_6\n      jumpi\n    tag_2:\n      0x00\n      dup1\n      revert\n        /* \"contracts/ProposalContract.sol\":1233:1315  function setOwner(address new_owner) external {... */\n    tag_3:\n      tag_12\n      0x04\n      dup1\n      calldatasize\n      sub\n      dup2\n      add\n      swap1\n      tag_13\n      swap2\n      swap1\n      tag_14\n      jump\t// in\n    tag_13:\n      tag_15\n      jump\t// in\n    tag_12:\n      stop\n        /* \"contracts/ProposalContract.sol\":2470:2594  function terminatePoll() external onlyOwner active {... */\n    tag_4:\n      tag_16\n      tag_17\n      jump\t// in\n    tag_16:\n      stop\n        /* \"contracts/ProposalContract.sol\":1323:1569  function create(string calldata _description, uint256 _total_vote_to_end) external onlyOwner {... */\n    tag_5:\n      tag_18\n      0x04\n      dup1\n      calldatasize\n      sub\n      dup2\n      add\n      swap1\n      tag_19\n      swap2\n      swap1\n      tag_20\n      jump\t// in\n    tag_19:\n      tag_21\n      jump\t// in\n    tag_18:\n      stop\n        /* \"contracts/ProposalContract.sol\":3549:3676  function getCurrentPoll() external view returns(Proposal memory) {... */\n    tag_6:\n      tag_22\n      tag_23\n      jump\t// in\n    tag_22:\n      mload(0x40)\n      tag_24\n      swap2\n      swap1\n      tag_25\n      jump\t// in\n    tag_24:\n      mload(0x40)\n      dup1\n      swap2\n      sub\n      swap1\n      return\n        /* \"contracts/ProposalContract.sol\":3459:3541  function getOwner() external view returns(address) {... */\n    tag_7:\n      tag_26\n      tag_27\n      jump\t// in\n    tag_26:\n      mload(0x40)\n      tag_28\n      swap2\n      swap1\n      tag_29\n      jump\t// in\n    tag_28:\n      mload(0x40)\n      dup1\n      swap2\n      sub\n      swap1\n      return\n        /* \"contracts/ProposalContract.sol\":1577:2462  function vote(uint8 choice) external active newVoter(msg.sender)  {... */\n    tag_8:\n      tag_30\n      0x04\n      dup1\n      calldatasize\n      sub\n      dup2\n      add\n      swap1\n      tag_31\n      swap2\n      swap1\n      tag_32\n      jump\t// in\n    tag_31:\n      tag_33\n      jump\t// in\n    tag_30:\n      stop\n        /* \"contracts/ProposalContract.sol\":3684:3810  function getProposal(uint256 number) external view returns(Proposal memory) {... */\n    tag_9:\n      tag_34\n      0x04\n      dup1\n      calldatasize\n      sub\n      dup2\n      add\n      swap1\n      tag_35\n      swap2\n      swap1\n      tag_36\n      jump\t// in\n    tag_35:\n      tag_37\n      jump\t// in\n    tag_34:\n      mload(0x40)\n      tag_38\n      swap2\n      swap1\n      tag_25\n      jump\t// in\n    tag_38:\n      mload(0x40)\n      dup1\n      swap2\n      sub\n      swap1\n      return\n        /* \"contracts/ProposalContract.sol\":3191:3451  function isVoted(address _address) public view returns(bool) {... */\n    tag_10:\n      tag_39\n      0x04\n      dup1\n      calldatasize\n      sub\n      dup2\n      add\n      swap1\n      tag_40\n      swap2\n      swap1\n      tag_14\n      jump\t// in\n    tag_40:\n      tag_41\n      jump\t// in\n    tag_39:\n      mload(0x40)\n      tag_42\n      swap2\n      swap1\n      tag_43\n      jump\t// in\n    tag_42:\n      mload(0x40)\n      dup1\n      swap2\n      sub\n      swap1\n      return\n        /* \"contracts/ProposalContract.sol\":1233:1315  function setOwner(address new_owner) external {... */\n    tag_15:\n        /* \"contracts/ProposalContract.sol\":1298:1307  new_owner */\n      dup1\n        /* \"contracts/ProposalContract.sol\":1290:1295  owner */\n      0x00\n      dup1\n        /* \"contracts/ProposalContract.sol\":1290:1307  owner = new_owner */\n      0x0100\n      exp\n      dup2\n      sload\n      dup2\n      0xffffffffffffffffffffffffffffffffffffffff\n      mul\n      not\n      and\n      swap1\n      dup4\n      0xffffffffffffffffffffffffffffffffffffffff\n      and\n      mul\n      or\n      swap1\n      sstore\n      pop\n        /* \"contracts/ProposalContract.sol\":1233:1315  function setOwner(address new_owner) external {... */\n      pop\n      jump\t// out\n        /* \"contracts/ProposalContract.sol\":2470:2594  function terminatePoll() external onlyOwner active {... */\n    tag_17:\n        /* \"contracts/ProposalContract.sol\":874:879  owner */\n      0x00\n      dup1\n      sload\n      swap1\n      0x0100\n      exp\n      swap1\n      div\n      0xffffffffffffffffffffffffffffffffffffffff\n      and\n        /* \"contracts/ProposalContract.sol\":860:879  msg.sender == owner */\n      0xffffffffffffffffffffffffffffffffffffffff\n      and\n        /* \"contracts/ProposalContract.sol\":860:870  msg.sender */\n      caller\n        /* \"contracts/ProposalContract.sol\":860:879  msg.sender == owner */\n      0xffffffffffffffffffffffffffffffffffffffff\n      and\n      eq\n        /* \"contracts/ProposalContract.sol\":852:880  require(msg.sender == owner) */\n      tag_46\n      jumpi\n      0x00\n      dup1\n      revert\n    tag_46:\n        /* \"contracts/ProposalContract.sol\":995:999  true */\n      0x01\n        /* \"contracts/ProposalContract.sol\":945:999  proposal_history[_counter.current()].is_active == true */\n      iszero\n      iszero\n        /* \"contracts/ProposalContract.sol\":945:961  proposal_history */\n      0x03\n        /* \"contracts/ProposalContract.sol\":945:981  proposal_history[_counter.current()] */\n      0x00\n        /* \"contracts/ProposalContract.sol\":962:980  _counter.current() */\n      tag_48\n        /* \"contracts/ProposalContract.sol\":962:970  _counter */\n      0x01\n        /* \"contracts/ProposalContract.sol\":962:978  _counter.current */\n      tag_49\n        /* \"contracts/ProposalContract.sol\":962:980  _counter.current() */\n      jump\t// in\n    tag_48:\n        /* \"contracts/ProposalContract.sol\":945:981  proposal_history[_counter.current()] */\n      dup2\n      mstore\n      0x20\n      add\n      swap1\n      dup2\n      mstore\n      0x20\n      add\n      0x00\n      keccak256\n        /* \"contracts/ProposalContract.sol\":945:991  proposal_history[_counter.current()].is_active */\n      0x05\n      add\n      0x01\n      swap1\n      sload\n      swap1\n      0x0100\n      exp\n      swap1\n      div\n      0xff\n      and\n        /* \"contracts/ProposalContract.sol\":945:999  proposal_history[_counter.current()].is_active == true */\n      iszero\n      iszero\n      eq\n        /* \"contracts/ProposalContract.sol\":937:1000  require(proposal_history[_counter.current()].is_active == true) */\n      tag_50\n      jumpi\n      0x00\n      dup1\n      revert\n    tag_50:\n        /* \"contracts/ProposalContract.sol\":2581:2586  false */\n      0x00\n        /* \"contracts/ProposalContract.sol\":2532:2548  proposal_history */\n      0x03\n        /* \"contracts/ProposalContract.sol\":2532:2568  proposal_history[_counter.current()] */\n      0x00\n        /* \"contracts/ProposalContract.sol\":2549:2567  _counter.current() */\n      tag_52\n        /* \"contracts/ProposalContract.sol\":2549:2557  _counter */\n      0x01\n        /* \"contracts/ProposalContract.sol\":2549:2565  _counter.current */\n      tag_49\n        /* \"contracts/ProposalContract.sol\":2549:2567  _counter.current() */\n      jump\t// in\n    tag_52:\n        /* \"contracts/ProposalContract.sol\":2532:2568  proposal_history[_counter.current()] */\n      dup2\n      mstore\n      0x20\n      add\n      swap1\n      dup2\n      mstore\n      0x20\n      add\n      0x00\n      keccak256\n        /* \"contracts/ProposalContract.sol\":2532:2578  proposal_history[_counter.current()].is_active */\n      0x05\n      add\n      0x01\n        /* \"contracts/ProposalContract.sol\":2532:2586  proposal_history[_counter.current()].is_active = false */\n      0x0100\n      exp\n      dup2\n      sload\n      dup2\n      0xff\n      mul\n      not\n      and\n      swap1\n      dup4\n      iszero\n      iszero\n      mul\n      or\n      swap1\n      sstore\n      pop\n        /* \"contracts/ProposalContract.sol\":2470:2594  function terminatePoll() external onlyOwner active {... */\n      jump\t// out\n        /* \"contracts/ProposalContract.sol\":1323:1569  function create(string calldata _description, uint256 _total_vote_to_end) external onlyOwner {... */\n    tag_21:\n        /* \"contracts/ProposalContract.sol\":874:879  owner */\n      0x00\n      dup1\n      sload\n      swap1\n      0x0100\n      exp\n      swap1\n      div\n      0xffffffffffffffffffffffffffffffffffffffff\n      and\n        /* \"contracts/ProposalContract.sol\":860:879  msg.sender == owner */\n      0xffffffffffffffffffffffffffffffffffffffff\n      and\n        /* \"contracts/ProposalContract.sol\":860:870  msg.sender */\n      caller\n        /* \"contracts/ProposalContract.sol\":860:879  msg.sender == owner */\n      0xffffffffffffffffffffffffffffffffffffffff\n      and\n      eq\n        /* \"contracts/ProposalContract.sol\":852:880  require(msg.sender == owner) */\n      tag_54\n      jumpi\n      0x00\n      dup1\n      revert\n    tag_54:\n        /* \"contracts/ProposalContract.sol\":1427:1447  _counter.increment() */\n      tag_56\n        /* \"contracts/ProposalContract.sol\":1427:1435  _counter */\n      0x01\n        /* \"contracts/ProposalContract.sol\":1427:1445  _counter.increment */\n      tag_57\n        /* \"contracts/ProposalContract.sol\":1427:1447  _counter.increment() */\n      jump\t// in\n    tag_56:\n        /* \"contracts/ProposalContract.sol\":1497:1561  Proposal(_description, 0, 0, 0, _total_vote_to_end, false, true) */\n      mload(0x40)\n      dup1\n      0xe0\n      add\n      0x40\n      mstore\n      dup1\n        /* \"contracts/ProposalContract.sol\":1506:1518  _description */\n      dup5\n      dup5\n        /* \"contracts/ProposalContract.sol\":1497:1561  Proposal(_description, 0, 0, 0, _total_vote_to_end, false, true) */\n      dup1\n      dup1\n      0x1f\n      add\n      0x20\n      dup1\n      swap2\n      div\n      mul\n      0x20\n      add\n      mload(0x40)\n      swap1\n      dup2\n      add\n      0x40\n      mstore\n      dup1\n      swap4\n      swap3\n      swap2\n      swap1\n      dup2\n      dup2\n      mstore\n      0x20\n      add\n      dup4\n      dup4\n      dup1\n      dup3\n      dup5\n      calldatacopy\n      0x00\n      dup2\n      dup5\n      add\n      mstore\n      not(0x1f)\n      0x1f\n      dup3\n      add\n      and\n      swap1\n      pop\n      dup1\n      dup4\n      add\n      swap3\n      pop\n      pop\n      pop\n      pop\n      pop\n      pop\n      pop\n      dup2\n      mstore\n      0x20\n      add\n        /* \"contracts/ProposalContract.sol\":1520:1521  0 */\n      0x00\n        /* \"contracts/ProposalContract.sol\":1497:1561  Proposal(_description, 0, 0, 0, _total_vote_to_end, false, true) */\n      dup2\n      mstore\n      0x20\n      add\n        /* \"contracts/ProposalContract.sol\":1523:1524  0 */\n      0x00\n        /* \"contracts/ProposalContract.sol\":1497:1561  Proposal(_description, 0, 0, 0, _total_vote_to_end, false, true) */\n      dup2\n      mstore\n      0x20\n      add\n        /* \"contracts/ProposalContract.sol\":1526:1527  0 */\n      0x00\n        /* \"contracts/ProposalContract.sol\":1497:1561  Proposal(_description, 0, 0, 0, _total_vote_to_end, false, true) */\n      dup2\n      mstore\n      0x20\n      add\n        /* \"contracts/ProposalContract.sol\":1529:1547  _total_vote_to_end */\n      dup3\n        /* \"contracts/ProposalContract.sol\":1497:1561  Proposal(_description, 0, 0, 0, _total_vote_to_end, false, true) */\n      dup2\n      mstore\n      0x20\n      add\n        /* \"contracts/ProposalContract.sol\":1549:1554  false */\n      0x00\n        /* \"contracts/ProposalContract.sol\":1497:1561  Proposal(_description, 0, 0, 0, _total_vote_to_end, false, true) */\n      iszero\n      iszero\n      dup2\n      mstore\n      0x20\n      add\n        /* \"contracts/ProposalContract.sol\":1556:1560  true */\n      0x01\n        /* \"contracts/ProposalContract.sol\":1497:1561  Proposal(_description, 0, 0, 0, _total_vote_to_end, false, true) */\n      iszero\n      iszero\n      dup2\n      mstore\n      pop\n        /* \"contracts/ProposalContract.sol\":1458:1474  proposal_history */\n      0x03\n        /* \"contracts/ProposalContract.sol\":1458:1494  proposal_history[_counter.current()] */\n      0x00\n        /* \"contracts/ProposalContract.sol\":1475:1493  _counter.current() */\n      tag_58\n        /* \"contracts/ProposalContract.sol\":1475:1483  _counter */\n      0x01\n        /* \"contracts/ProposalContract.sol\":1475:1491  _counter.current */\n      tag_49\n        /* \"contracts/ProposalContract.sol\":1475:1493  _counter.current() */\n      jump\t// in\n    tag_58:\n        /* \"contracts/ProposalContract.sol\":1458:1494  proposal_history[_counter.current()] */\n      dup2\n      mstore\n      0x20\n      add\n      swap1\n      dup2\n      mstore\n      0x20\n      add\n      0x00\n      keccak256\n        /* \"contracts/ProposalContract.sol\":1458:1561  proposal_history[_counter.current()] = Proposal(_description, 0, 0, 0, _total_vote_to_end, false, true) */\n      0x00\n      dup3\n      add\n      mload\n      dup2\n      0x00\n      add\n      swap1\n      dup2\n      tag_59\n      swap2\n      swap1\n      tag_60\n      jump\t// in\n    tag_59:\n      pop\n      0x20\n      dup3\n      add\n      mload\n      dup2\n      0x01\n      add\n      sstore\n      0x40\n      dup3\n      add\n      mload\n      dup2\n      0x02\n      add\n      sstore\n      0x60\n      dup3\n      add\n      mload\n      dup2\n      0x03\n      add\n      sstore\n      0x80\n      dup3\n      add\n      mload\n      dup2\n      0x04\n      add\n      sstore\n      0xa0\n      dup3\n      add\n      mload\n      dup2\n      0x05\n      add\n      exp(0x0100, 0x00)\n      dup2\n      sload\n      dup2\n      0xff\n      mul\n      not\n      and\n      swap1\n      dup4\n      iszero\n      iszero\n      mul\n      or\n      swap1\n      sstore\n      pop\n      0xc0\n      dup3\n      add\n      mload\n      dup2\n      0x05\n      add\n      exp(0x0100, 0x01)\n      dup2\n      sload\n      dup2\n      0xff\n      mul\n      not\n      and\n      swap1\n      dup4\n      iszero\n      iszero\n      mul\n      or\n      swap1\n      sstore\n      pop\n      swap1\n      pop\n      pop\n        /* \"contracts/ProposalContract.sol\":1323:1569  function create(string calldata _description, uint256 _total_vote_to_end) external onlyOwner {... */\n      pop\n      pop\n      pop\n      jump\t// out\n        /* \"contracts/ProposalContract.sol\":3549:3676  function getCurrentPoll() external view returns(Proposal memory) {... */\n    tag_23:\n        /* \"contracts/ProposalContract.sol\":3597:3612  Proposal memory */\n      tag_61\n      tag_62\n      jump\t// in\n    tag_61:\n        /* \"contracts/ProposalContract.sol\":3632:3648  proposal_history */\n      0x03\n        /* \"contracts/ProposalContract.sol\":3632:3668  proposal_history[_counter.current()] */\n      0x00\n        /* \"contracts/ProposalContract.sol\":3649:3667  _counter.current() */\n      tag_64\n        /* \"contracts/ProposalContract.sol\":3649:3657  _counter */\n      0x01\n        /* \"contracts/ProposalContract.sol\":3649:3665  _counter.current */\n      tag_49\n        /* \"contracts/ProposalContract.sol\":3649:3667  _counter.current() */\n      jump\t// in\n    tag_64:\n        /* \"contracts/ProposalContract.sol\":3632:3668  proposal_history[_counter.current()] */\n      dup2\n      mstore\n      0x20\n      add\n      swap1\n      dup2\n      mstore\n      0x20\n      add\n      0x00\n      keccak256\n        /* \"contracts/ProposalContract.sol\":3625:3668  return proposal_history[_counter.current()] */\n      mload(0x40)\n      dup1\n      0xe0\n      add\n      0x40\n      mstore\n      swap1\n      dup2\n      0x00\n      dup3\n      add\n      dup1\n      sload\n      tag_65\n      swap1\n      tag_66\n      jump\t// in\n    tag_65:\n      dup1\n      0x1f\n      add\n      0x20\n      dup1\n      swap2\n      div\n      mul\n      0x20\n      add\n      mload(0x40)\n      swap1\n      dup2\n      add\n      0x40\n      mstore\n      dup1\n      swap3\n      swap2\n      swap1\n      dup2\n      dup2\n      mstore\n      0x20\n      add\n      dup3\n      dup1\n      sload\n      tag_67\n      swap1\n      tag_66\n      jump\t// in\n    tag_67:\n      dup1\n      iszero\n      tag_68\n      jumpi\n      dup1\n      0x1f\n      lt\n      tag_69\n      jumpi\n      0x0100\n      dup1\n      dup4\n      sload\n      div\n      mul\n      dup4\n      mstore\n      swap2\n      0x20\n      add\n      swap2\n      jump(tag_68)\n    tag_69:\n      dup3\n      add\n      swap2\n      swap1\n      0x00\n      mstore\n      keccak256(0x00, 0x20)\n      swap1\n    tag_70:\n      dup2\n      sload\n      dup2\n      mstore\n      swap1\n      0x01\n      add\n      swap1\n      0x20\n      add\n      dup1\n      dup4\n      gt\n      tag_70\n      jumpi\n      dup3\n      swap1\n      sub\n      0x1f\n      and\n      dup3\n      add\n      swap2\n    tag_68:\n      pop\n      pop\n      pop\n      pop\n      pop\n      dup2\n      mstore\n      0x20\n      add\n      0x01\n      dup3\n      add\n      sload\n      dup2\n      mstore\n      0x20\n      add\n      0x02\n      dup3\n      add\n      sload\n      dup2\n      mstore\n      0x20\n      add\n      0x03\n      dup3\n      add\n      sload\n      dup2\n      mstore\n      0x20\n      add\n      0x04\n      dup3\n      add\n      sload\n      dup2\n      mstore\n      0x20\n      add\n      0x05\n      dup3\n      add\n      0x00\n      swap1\n      sload\n      swap1\n      0x0100\n      exp\n      swap1\n      div\n      0xff\n      and\n      iszero\n      iszero\n      iszero\n      iszero\n      dup2\n      mstore\n      0x20\n      add\n      0x05\n      dup3\n      add\n      0x01\n      swap1\n      sload\n      swap1\n      0x0100\n      exp\n      swap1\n      div\n      0xff\n      and\n      iszero\n      iszero\n      iszero\n      iszero\n      dup2\n      mstore\n      pop\n      pop\n      swap1\n      pop\n        /* \"contracts/ProposalContract.sol\":3549:3676  function getCurrentPoll() external view returns(Proposal memory) {... */\n      swap1\n      jump\t// out\n        /* \"contracts/ProposalContract.sol\":3459:3541  function getOwner() external view returns(address) {... */\n    tag_27:\n        /* \"contracts/ProposalContract.sol\":3501:3508  address */\n      0x00\n        /* \"contracts/ProposalContract.sol\":3528:3533  owner */\n      dup1\n      0x00\n      swap1\n      sload\n      swap1\n      0x0100\n      exp\n      swap1\n      div\n      0xffffffffffffffffffffffffffffffffffffffff\n      and\n        /* \"contracts/ProposalContract.sol\":3521:3533  return owner */\n      swap1\n      pop\n        /* \"contracts/ProposalContract.sol\":3459:3541  function getOwner() external view returns(address) {... */\n      swap1\n      jump\t// out\n        /* \"contracts/ProposalContract.sol\":1577:2462  function vote(uint8 choice) external active newVoter(msg.sender)  {... */\n    tag_33:\n        /* \"contracts/ProposalContract.sol\":995:999  true */\n      0x01\n        /* \"contracts/ProposalContract.sol\":945:999  proposal_history[_counter.current()].is_active == true */\n      iszero\n      iszero\n        /* \"contracts/ProposalContract.sol\":945:961  proposal_history */\n      0x03\n        /* \"contracts/ProposalContract.sol\":945:981  proposal_history[_counter.current()] */\n      0x00\n        /* \"contracts/ProposalContract.sol\":962:980  _counter.current() */\n      tag_73\n        /* \"contracts/ProposalContract.sol\":962:970  _counter */\n      0x01\n        /* \"contracts/ProposalContract.sol\":962:978  _counter.current */\n      tag_49\n        /* \"contracts/ProposalContract.sol\":962:980  _counter.current() */\n      jump\t// in\n    tag_73:\n        /* \"contracts/ProposalContract.sol\":945:981  proposal_history[_counter.current()] */\n      dup2\n      mstore\n      0x20\n      add\n      swap1\n      dup2\n      mstore\n      0x20\n      add\n      0x00\n      keccak256\n        /* \"contracts/ProposalContract.sol\":945:991  proposal_history[_counter.current()].is_active */\n      0x05\n      add\n      0x01\n      swap1\n      sload\n      swap1\n      0x0100\n      exp\n      swap1\n      div\n      0xff\n      and\n        /* \"contracts/ProposalContract.sol\":945:999  proposal_history[_counter.current()].is_active == true */\n      iszero\n      iszero\n      eq\n        /* \"contracts/ProposalContract.sol\":937:1000  require(proposal_history[_counter.current()].is_active == true) */\n      tag_74\n      jumpi\n      0x00\n      dup1\n      revert\n    tag_74:\n        /* \"contracts/ProposalContract.sol\":1630:1640  msg.sender */\n      caller\n        /* \"contracts/ProposalContract.sol\":1084:1101  isVoted(_address) */\n      tag_76\n        /* \"contracts/ProposalContract.sol\":1092:1100  _address */\n      dup2\n        /* \"contracts/ProposalContract.sol\":1084:1091  isVoted */\n      tag_41\n        /* \"contracts/ProposalContract.sol\":1084:1101  isVoted(_address) */\n      jump\t// in\n    tag_76:\n        /* \"contracts/ProposalContract.sol\":1083:1101  !isVoted(_address) */\n      iszero\n        /* \"contracts/ProposalContract.sol\":1075:1132  require(!isVoted(_address), \"Address has not voted yet.\") */\n      tag_77\n      jumpi\n      mload(0x40)\n      0x08c379a000000000000000000000000000000000000000000000000000000000\n      dup2\n      mstore\n      0x04\n      add\n      tag_78\n      swap1\n      tag_79\n      jump\t// in\n    tag_78:\n      mload(0x40)\n      dup1\n      swap2\n      sub\n      swap1\n      revert\n    tag_77:\n        /* \"contracts/ProposalContract.sol\":1654:1679  Proposal storage proposal */\n      0x00\n        /* \"contracts/ProposalContract.sol\":1682:1698  proposal_history */\n      0x03\n        /* \"contracts/ProposalContract.sol\":1682:1718  proposal_history[_counter.current()] */\n      0x00\n        /* \"contracts/ProposalContract.sol\":1699:1717  _counter.current() */\n      tag_81\n        /* \"contracts/ProposalContract.sol\":1699:1707  _counter */\n      0x01\n        /* \"contracts/ProposalContract.sol\":1699:1715  _counter.current */\n      tag_49\n        /* \"contracts/ProposalContract.sol\":1699:1717  _counter.current() */\n      jump\t// in\n    tag_81:\n        /* \"contracts/ProposalContract.sol\":1682:1718  proposal_history[_counter.current()] */\n      dup2\n      mstore\n      0x20\n      add\n      swap1\n      dup2\n      mstore\n      0x20\n      add\n      0x00\n      keccak256\n        /* \"contracts/ProposalContract.sol\":1654:1718  Proposal storage proposal = proposal_history[_counter.current()] */\n      swap1\n      pop\n        /* \"contracts/ProposalContract.sol\":1729:1747  uint256 total_vote */\n      0x00\n        /* \"contracts/ProposalContract.sol\":1787:1795  proposal */\n      dup2\n        /* \"contracts/ProposalContract.sol\":1787:1800  proposal.pass */\n      0x03\n      add\n      sload\n        /* \"contracts/ProposalContract.sol\":1769:1777  proposal */\n      dup3\n        /* \"contracts/ProposalContract.sol\":1769:1784  proposal.reject */\n      0x02\n      add\n      sload\n        /* \"contracts/ProposalContract.sol\":1750:1758  proposal */\n      dup4\n        /* \"contracts/ProposalContract.sol\":1750:1766  proposal.approve */\n      0x01\n      add\n      sload\n        /* \"contracts/ProposalContract.sol\":1750:1784  proposal.approve + proposal.reject */\n      tag_82\n      swap2\n      swap1\n      tag_83\n      jump\t// in\n    tag_82:\n        /* \"contracts/ProposalContract.sol\":1750:1800  proposal.approve + proposal.reject + proposal.pass */\n      tag_84\n      swap2\n      swap1\n      tag_83\n      jump\t// in\n    tag_84:\n        /* \"contracts/ProposalContract.sol\":1729:1800  uint256 total_vote = proposal.approve + proposal.reject + proposal.pass */\n      swap1\n      pop\n        /* \"contracts/ProposalContract.sol\":1813:1828  voted_addresses */\n      0x04\n        /* \"contracts/ProposalContract.sol\":1834:1844  msg.sender */\n      caller\n        /* \"contracts/ProposalContract.sol\":1813:1845  voted_addresses.push(msg.sender) */\n      swap1\n      dup1\n      0x01\n      dup2\n      sload\n      add\n      dup1\n      dup3\n      sstore\n      dup1\n      swap2\n      pop\n      pop\n      0x01\n      swap1\n      sub\n      swap1\n      0x00\n      mstore\n      keccak256(0x00, 0x20)\n      add\n      0x00\n      swap1\n      swap2\n      swap1\n      swap2\n      swap1\n      swap2\n      0x0100\n      exp\n      dup2\n      sload\n      dup2\n      0xffffffffffffffffffffffffffffffffffffffff\n      mul\n      not\n      and\n      swap1\n      dup4\n      0xffffffffffffffffffffffffffffffffffffffff\n      and\n      mul\n      or\n      swap1\n      sstore\n      pop\n        /* \"contracts/ProposalContract.sol\":1872:1873  1 */\n      0x01\n        /* \"contracts/ProposalContract.sol\":1862:1868  choice */\n      dup5\n        /* \"contracts/ProposalContract.sol\":1862:1873  choice == 1 */\n      0xff\n      and\n      sub\n        /* \"contracts/ProposalContract.sol\":1858:2251  if (choice == 1) {... */\n      tag_86\n      jumpi\n        /* \"contracts/ProposalContract.sol\":1910:1911  1 */\n      0x01\n        /* \"contracts/ProposalContract.sol\":1890:1898  proposal */\n      dup3\n        /* \"contracts/ProposalContract.sol\":1890:1906  proposal.approve */\n      0x01\n      add\n      0x00\n        /* \"contracts/ProposalContract.sol\":1890:1911  proposal.approve += 1 */\n      dup3\n      dup3\n      sload\n      tag_87\n      swap2\n      swap1\n      tag_83\n      jump\t// in\n    tag_87:\n      swap3\n      pop\n      pop\n      dup2\n      swap1\n      sstore\n      pop\n        /* \"contracts/ProposalContract.sol\":1951:1974  calculateCurrentState() */\n      tag_88\n        /* \"contracts/ProposalContract.sol\":1951:1972  calculateCurrentState */\n      tag_89\n        /* \"contracts/ProposalContract.sol\":1951:1974  calculateCurrentState() */\n      jump\t// in\n    tag_88:\n        /* \"contracts/ProposalContract.sol\":1926:1934  proposal */\n      dup3\n        /* \"contracts/ProposalContract.sol\":1926:1948  proposal.current_state */\n      0x05\n      add\n      0x00\n        /* \"contracts/ProposalContract.sol\":1926:1974  proposal.current_state = calculateCurrentState() */\n      0x0100\n      exp\n      dup2\n      sload\n      dup2\n      0xff\n      mul\n      not\n      and\n      swap1\n      dup4\n      iszero\n      iszero\n      mul\n      or\n      swap1\n      sstore\n      pop\n        /* \"contracts/ProposalContract.sol\":1858:2251  if (choice == 1) {... */\n      jump(tag_90)\n    tag_86:\n        /* \"contracts/ProposalContract.sol\":2006:2007  2 */\n      0x02\n        /* \"contracts/ProposalContract.sol\":1996:2002  choice */\n      dup5\n        /* \"contracts/ProposalContract.sol\":1996:2007  choice == 2 */\n      0xff\n      and\n      sub\n        /* \"contracts/ProposalContract.sol\":1992:2251  if (choice == 2) {... */\n      tag_91\n      jumpi\n        /* \"contracts/ProposalContract.sol\":2043:2044  1 */\n      0x01\n        /* \"contracts/ProposalContract.sol\":2024:2032  proposal */\n      dup3\n        /* \"contracts/ProposalContract.sol\":2024:2039  proposal.reject */\n      0x02\n      add\n      0x00\n        /* \"contracts/ProposalContract.sol\":2024:2044  proposal.reject += 1 */\n      dup3\n      dup3\n      sload\n      tag_92\n      swap2\n      swap1\n      tag_83\n      jump\t// in\n    tag_92:\n      swap3\n      pop\n      pop\n      dup2\n      swap1\n      sstore\n      pop\n        /* \"contracts/ProposalContract.sol\":2084:2107  calculateCurrentState() */\n      tag_93\n        /* \"contracts/ProposalContract.sol\":2084:2105  calculateCurrentState */\n      tag_89\n        /* \"contracts/ProposalContract.sol\":2084:2107  calculateCurrentState() */\n      jump\t// in\n    tag_93:\n        /* \"contracts/ProposalContract.sol\":2059:2067  proposal */\n      dup3\n        /* \"contracts/ProposalContract.sol\":2059:2081  proposal.current_state */\n      0x05\n      add\n      0x00\n        /* \"contracts/ProposalContract.sol\":2059:2107  proposal.current_state = calculateCurrentState() */\n      0x0100\n      exp\n      dup2\n      sload\n      dup2\n      0xff\n      mul\n      not\n      and\n      swap1\n      dup4\n      iszero\n      iszero\n      mul\n      or\n      swap1\n      sstore\n      pop\n        /* \"contracts/ProposalContract.sol\":1992:2251  if (choice == 2) {... */\n      jump(tag_94)\n    tag_91:\n        /* \"contracts/ProposalContract.sol\":2139:2140  3 */\n      0x03\n        /* \"contracts/ProposalContract.sol\":2129:2135  choice */\n      dup5\n        /* \"contracts/ProposalContract.sol\":2129:2140  choice == 3 */\n      0xff\n      and\n      sub\n        /* \"contracts/ProposalContract.sol\":2125:2251  if (choice == 3) {... */\n      tag_95\n      jumpi\n        /* \"contracts/ProposalContract.sol\":2174:2175  1 */\n      0x01\n        /* \"contracts/ProposalContract.sol\":2157:2165  proposal */\n      dup3\n        /* \"contracts/ProposalContract.sol\":2157:2170  proposal.pass */\n      0x03\n      add\n      0x00\n        /* \"contracts/ProposalContract.sol\":2157:2175  proposal.pass += 1 */\n      dup3\n      dup3\n      sload\n      tag_96\n      swap2\n      swap1\n      tag_83\n      jump\t// in\n    tag_96:\n      swap3\n      pop\n      pop\n      dup2\n      swap1\n      sstore\n      pop\n        /* \"contracts/ProposalContract.sol\":2215:2238  calculateCurrentState() */\n      tag_97\n        /* \"contracts/ProposalContract.sol\":2215:2236  calculateCurrentState */\n      tag_89\n        /* \"contracts/ProposalContract.sol\":2215:2238  calculateCurrentState() */\n      jump\t// in\n    tag_97:\n        /* \"contracts/ProposalContract.sol\":2190:2198  proposal */\n      dup3\n        /* \"contracts/ProposalContract.sol\":2190:2212  proposal.current_state */\n      0x05\n      add\n      0x00\n        /* \"contracts/ProposalContract.sol\":2190:2238  proposal.current_state = calculateCurrentState() */\n      0x0100\n      exp\n      dup2\n      sload\n      dup2\n      0xff\n      mul\n      not\n      and\n      swap1\n      dup4\n      iszero\n      iszero\n      mul\n      or\n      swap1\n      sstore\n      pop\n        /* \"contracts/ProposalContract.sol\":2125:2251  if (choice == 3) {... */\n    tag_95:\n        /* \"contracts/ProposalContract.sol\":1992:2251  if (choice == 2) {... */\n    tag_94:\n        /* \"contracts/ProposalContract.sol\":1858:2251  if (choice == 1) {... */\n    tag_90:\n        /* \"contracts/ProposalContract.sol\":2311:2312  1 */\n      0x01\n        /* \"contracts/ProposalContract.sol\":2297:2307  total_vote */\n      dup2\n        /* \"contracts/ProposalContract.sol\":2268:2276  proposal */\n      dup4\n        /* \"contracts/ProposalContract.sol\":2268:2294  proposal.total_vote_to_end */\n      0x04\n      add\n      sload\n        /* \"contracts/ProposalContract.sol\":2268:2307  proposal.total_vote_to_end - total_vote */\n      tag_98\n      swap2\n      swap1\n      tag_99\n      jump\t// in\n    tag_98:\n        /* \"contracts/ProposalContract.sol\":2268:2312  proposal.total_vote_to_end - total_vote == 1 */\n      eq\n        /* \"contracts/ProposalContract.sol\":2267:2360  (proposal.total_vote_to_end - total_vote == 1) && (choice == 1 || choice == 2 || choice == 0) */\n      dup1\n      iszero\n      tag_100\n      jumpi\n      pop\n        /* \"contracts/ProposalContract.sol\":2328:2329  1 */\n      0x01\n        /* \"contracts/ProposalContract.sol\":2318:2324  choice */\n      dup5\n        /* \"contracts/ProposalContract.sol\":2318:2329  choice == 1 */\n      0xff\n      and\n      eq\n        /* \"contracts/ProposalContract.sol\":2318:2344  choice == 1 || choice == 2 */\n      dup1\n      tag_101\n      jumpi\n      pop\n        /* \"contracts/ProposalContract.sol\":2343:2344  2 */\n      0x02\n        /* \"contracts/ProposalContract.sol\":2333:2339  choice */\n      dup5\n        /* \"contracts/ProposalContract.sol\":2333:2344  choice == 2 */\n      0xff\n      and\n      eq\n        /* \"contracts/ProposalContract.sol\":2318:2344  choice == 1 || choice == 2 */\n    tag_101:\n        /* \"contracts/ProposalContract.sol\":2318:2359  choice == 1 || choice == 2 || choice == 0 */\n      dup1\n      tag_102\n      jumpi\n      pop\n        /* \"contracts/ProposalContract.sol\":2358:2359  0 */\n      0x00\n        /* \"contracts/ProposalContract.sol\":2348:2354  choice */\n      dup5\n        /* \"contracts/ProposalContract.sol\":2348:2359  choice == 0 */\n      0xff\n      and\n      eq\n        /* \"contracts/ProposalContract.sol\":2318:2359  choice == 1 || choice == 2 || choice == 0 */\n    tag_102:\n        /* \"contracts/ProposalContract.sol\":2267:2360  (proposal.total_vote_to_end - total_vote == 1) && (choice == 1 || choice == 2 || choice == 0) */\n    tag_100:\n        /* \"contracts/ProposalContract.sol\":2263:2455  if ((proposal.total_vote_to_end - total_vote == 1) && (choice == 1 || choice == 2 || choice == 0)) {... */\n      iszero\n      tag_103\n      jumpi\n        /* \"contracts/ProposalContract.sol\":2398:2403  false */\n      0x00\n        /* \"contracts/ProposalContract.sol\":2377:2385  proposal */\n      dup3\n        /* \"contracts/ProposalContract.sol\":2377:2395  proposal.is_active */\n      0x05\n      add\n      0x01\n        /* \"contracts/ProposalContract.sol\":2377:2403  proposal.is_active = false */\n      0x0100\n      exp\n      dup2\n      sload\n      dup2\n      0xff\n      mul\n      not\n      and\n      swap1\n      dup4\n      iszero\n      iszero\n      mul\n      or\n      swap1\n      sstore\n      pop\n        /* \"contracts/ProposalContract.sol\":2418:2443  voted_addresses = [owner] */\n      mload(0x40)\n      dup1\n      0x20\n      add\n      0x40\n      mstore\n      dup1\n        /* \"contracts/ProposalContract.sol\":2437:2442  owner */\n      0x00\n      dup1\n      sload\n      swap1\n      0x0100\n      exp\n      swap1\n      div\n      0xffffffffffffffffffffffffffffffffffffffff\n      and\n        /* \"contracts/ProposalContract.sol\":2418:2443  voted_addresses = [owner] */\n      0xffffffffffffffffffffffffffffffffffffffff\n      and\n      0xffffffffffffffffffffffffffffffffffffffff\n      and\n      dup2\n      mstore\n      pop\n        /* \"contracts/ProposalContract.sol\":2418:2433  voted_addresses */\n      0x04\n        /* \"contracts/ProposalContract.sol\":2418:2443  voted_addresses = [owner] */\n      swap1\n      0x01\n      tag_104\n      swap3\n      swap2\n      swap1\n      tag_105\n      jump\t// in\n    tag_104:\n      pop\n        /* \"contracts/ProposalContract.sol\":2263:2455  if ((proposal.total_vote_to_end - total_vote == 1) && (choice == 1 || choice == 2 || choice == 0)) {... */\n    tag_103:\n        /* \"contracts/ProposalContract.sol\":1643:2462  {... */\n      pop\n      pop\n        /* \"contracts/ProposalContract.sol\":1011:1012  _ */\n      pop\n        /* \"contracts/ProposalContract.sol\":1577:2462  function vote(uint8 choice) external active newVoter(msg.sender)  {... */\n      pop\n      jump\t// out\n        /* \"contracts/ProposalContract.sol\":3684:3810  function getProposal(uint256 number) external view returns(Proposal memory) {... */\n    tag_37:\n        /* \"contracts/ProposalContract.sol\":3743:3758  Proposal memory */\n      tag_106\n      tag_62\n      jump\t// in\n    tag_106:\n        /* \"contracts/ProposalContract.sol\":3778:3794  proposal_history */\n      0x03\n        /* \"contracts/ProposalContract.sol\":3778:3802  proposal_history[number] */\n      0x00\n        /* \"contracts/ProposalContract.sol\":3795:3801  number */\n      dup4\n        /* \"contracts/ProposalContract.sol\":3778:3802  proposal_history[number] */\n      dup2\n      mstore\n      0x20\n      add\n      swap1\n      dup2\n      mstore\n      0x20\n      add\n      0x00\n      keccak256\n        /* \"contracts/ProposalContract.sol\":3771:3802  return proposal_history[number] */\n      mload(0x40)\n      dup1\n      0xe0\n      add\n      0x40\n      mstore\n      swap1\n      dup2\n      0x00\n      dup3\n      add\n      dup1\n      sload\n      tag_108\n      swap1\n      tag_66\n      jump\t// in\n    tag_108:\n      dup1\n      0x1f\n      add\n      0x20\n      dup1\n      swap2\n      div\n      mul\n      0x20\n      add\n      mload(0x40)\n      swap1\n      dup2\n      add\n      0x40\n      mstore\n      dup1\n      swap3\n      swap2\n      swap1\n      dup2\n      dup2\n      mstore\n      0x20\n      add\n      dup3\n      dup1\n      sload\n      tag_109\n      swap1\n      tag_66\n      jump\t// in\n    tag_109:\n      dup1\n      iszero\n      tag_110\n      jumpi\n      dup1\n      0x1f\n      lt\n      tag_111\n      jumpi\n      0x0100\n      dup1\n      dup4\n      sload\n      div\n      mul\n      dup4\n      mstore\n      swap2\n      0x20\n      add\n      swap2\n      jump(tag_110)\n    tag_111:\n      dup3\n      add\n      swap2\n      swap1\n      0x00\n      mstore\n      keccak256(0x00, 0x20)\n      swap1\n    tag_112:\n      dup2\n      sload\n      dup2\n      mstore\n      swap1\n      0x01\n      add\n      swap1\n      0x20\n      add\n      dup1\n      dup4\n      gt\n      tag_112\n      jumpi\n      dup3\n      swap1\n      sub\n      0x1f\n      and\n      dup3\n      add\n      swap2\n    tag_110:\n      pop\n      pop\n      pop\n      pop\n      pop\n      dup2\n      mstore\n      0x20\n      add\n      0x01\n      dup3\n      add\n      sload\n      dup2\n      mstore\n      0x20\n      add\n      0x02\n      dup3\n      add\n      sload\n      dup2\n      mstore\n      0x20\n      add\n      0x03\n      dup3\n      add\n      sload\n      dup2\n      mstore\n      0x20\n      add\n      0x04\n      dup3\n      add\n      sload\n      dup2\n      mstore\n      0x20\n      add\n      0x05\n      dup3\n      add\n      0x00\n      swap1\n      sload\n      swap1\n      0x0100\n      exp\n      swap1\n      div\n      0xff\n      and\n      iszero\n      iszero\n      iszero\n      iszero\n      dup2\n      mstore\n      0x20\n      add\n      0x05\n      dup3\n      add\n      0x01\n      swap1\n      sload\n      swap1\n      0x0100\n      exp\n      swap1\n      div\n      0xff\n      and\n      iszero\n      iszero\n      iszero\n      iszero\n      dup2\n      mstore\n      pop\n      pop\n      swap1\n      pop\n        /* \"contracts/ProposalContract.sol\":3684:3810  function getProposal(uint256 number) external view returns(Proposal memory) {... */\n      swap2\n      swap1\n      pop\n      jump\t// out\n        /* \"contracts/ProposalContract.sol\":3191:3451  function isVoted(address _address) public view returns(bool) {... */\n    tag_41:\n        /* \"contracts/ProposalContract.sol\":3246:3250  bool */\n      0x00\n        /* \"contracts/ProposalContract.sol\":3268:3274  uint i */\n      dup1\n        /* \"contracts/ProposalContract.sol\":3277:3278  0 */\n      0x00\n        /* \"contracts/ProposalContract.sol\":3268:3278  uint i = 0 */\n      swap1\n      pop\n        /* \"contracts/ProposalContract.sol\":3263:3421  for (uint i = 0; i < voted_addresses.length; i++){... */\n    tag_114:\n        /* \"contracts/ProposalContract.sol\":3284:3299  voted_addresses */\n      0x04\n        /* \"contracts/ProposalContract.sol\":3284:3306  voted_addresses.length */\n      dup1\n      sload\n      swap1\n      pop\n        /* \"contracts/ProposalContract.sol\":3280:3281  i */\n      dup2\n        /* \"contracts/ProposalContract.sol\":3280:3306  i < voted_addresses.length */\n      lt\n        /* \"contracts/ProposalContract.sol\":3263:3421  for (uint i = 0; i < voted_addresses.length; i++){... */\n      iszero\n      tag_115\n      jumpi\n        /* \"contracts/ProposalContract.sol\":3353:3361  _address */\n      dup3\n        /* \"contracts/ProposalContract.sol\":3331:3361  voted_addresses[i] == _address */\n      0xffffffffffffffffffffffffffffffffffffffff\n      and\n        /* \"contracts/ProposalContract.sol\":3331:3346  voted_addresses */\n      0x04\n        /* \"contracts/ProposalContract.sol\":3347:3348  i */\n      dup3\n        /* \"contracts/ProposalContract.sol\":3331:3349  voted_addresses[i] */\n      dup2\n      sload\n      dup2\n      lt\n      tag_117\n      jumpi\n      tag_118\n      tag_119\n      jump\t// in\n    tag_118:\n    tag_117:\n      swap1\n      0x00\n      mstore\n      keccak256(0x00, 0x20)\n      add\n      0x00\n      swap1\n      sload\n      swap1\n      0x0100\n      exp\n      swap1\n      div\n      0xffffffffffffffffffffffffffffffffffffffff\n      and\n        /* \"contracts/ProposalContract.sol\":3331:3361  voted_addresses[i] == _address */\n      0xffffffffffffffffffffffffffffffffffffffff\n      and\n      sub\n        /* \"contracts/ProposalContract.sol\":3327:3410  if (voted_addresses[i] == _address)  {... */\n      tag_121\n      jumpi\n        /* \"contracts/ProposalContract.sol\":3390:3394  true */\n      0x01\n        /* \"contracts/ProposalContract.sol\":3383:3394  return true */\n      swap2\n      pop\n      pop\n      jump(tag_113)\n        /* \"contracts/ProposalContract.sol\":3327:3410  if (voted_addresses[i] == _address)  {... */\n    tag_121:\n        /* \"contracts/ProposalContract.sol\":3308:3311  i++ */\n      dup1\n      dup1\n      tag_122\n      swap1\n      tag_123\n      jump\t// in\n    tag_122:\n      swap2\n      pop\n      pop\n        /* \"contracts/ProposalContract.sol\":3263:3421  for (uint i = 0; i < voted_addresses.length; i++){... */\n      jump(tag_114)\n    tag_115:\n      pop\n        /* \"contracts/ProposalContract.sol\":3438:3443  false */\n      0x00\n        /* \"contracts/ProposalContract.sol\":3431:3443  return false */\n      swap1\n      pop\n        /* \"contracts/ProposalContract.sol\":3191:3451  function isVoted(address _address) public view returns(bool) {... */\n    tag_113:\n      swap2\n      swap1\n      pop\n      jump\t// out\n        /* \"contracts/Counters.sol\":1583:1688  function current(Counter storage self) internal view returns (uint) {... */\n    tag_49:\n        /* \"contracts/Counters.sol\":1645:1649  uint */\n      0x00\n        /* \"contracts/Counters.sol\":1669:1673  self */\n      dup2\n        /* \"contracts/Counters.sol\":1669:1680  self.number */\n      0x00\n      add\n      sload\n        /* \"contracts/Counters.sol\":1662:1680  return self.number */\n      swap1\n      pop\n        /* \"contracts/Counters.sol\":1583:1688  function current(Counter storage self) internal view returns (uint) {... */\n      swap2\n      swap1\n      pop\n      jump\t// out\n        /* \"contracts/Counters.sol\":888:973  function increment(Counter storage self) internal {... */\n    tag_57:\n        /* \"contracts/Counters.sol\":964:965  1 */\n      0x01\n        /* \"contracts/Counters.sol\":949:953  self */\n      dup2\n        /* \"contracts/Counters.sol\":949:960  self.number */\n      0x00\n      add\n      0x00\n        /* \"contracts/Counters.sol\":949:965  self.number += 1 */\n      dup3\n      dup3\n      sload\n      tag_126\n      swap2\n      swap1\n      tag_83\n      jump\t// in\n    tag_126:\n      swap3\n      pop\n      pop\n      dup2\n      swap1\n      sstore\n      pop\n        /* \"contracts/Counters.sol\":888:973  function increment(Counter storage self) internal {... */\n      pop\n      jump\t// out\n        /* \"contracts/ProposalContract.sol\":2602:3099  function calculateCurrentState() private view returns(bool) {... */\n    tag_89:\n        /* \"contracts/ProposalContract.sol\":2656:2660  bool */\n      0x00\n        /* \"contracts/ProposalContract.sol\":2673:2698  Proposal storage proposal */\n      dup1\n        /* \"contracts/ProposalContract.sol\":2701:2717  proposal_history */\n      0x03\n        /* \"contracts/ProposalContract.sol\":2701:2737  proposal_history[_counter.current()] */\n      0x00\n        /* \"contracts/ProposalContract.sol\":2718:2736  _counter.current() */\n      tag_128\n        /* \"contracts/ProposalContract.sol\":2718:2726  _counter */\n      0x01\n        /* \"contracts/ProposalContract.sol\":2718:2734  _counter.current */\n      tag_49\n        /* \"contracts/ProposalContract.sol\":2718:2736  _counter.current() */\n      jump\t// in\n    tag_128:\n        /* \"contracts/ProposalContract.sol\":2701:2737  proposal_history[_counter.current()] */\n      dup2\n      mstore\n      0x20\n      add\n      swap1\n      dup2\n      mstore\n      0x20\n      add\n      0x00\n      keccak256\n        /* \"contracts/ProposalContract.sol\":2673:2737  Proposal storage proposal = proposal_history[_counter.current()] */\n      swap1\n      pop\n        /* \"contracts/ProposalContract.sol\":2750:2765  uint256 approve */\n      0x00\n        /* \"contracts/ProposalContract.sol\":2768:2776  proposal */\n      dup2\n        /* \"contracts/ProposalContract.sol\":2768:2784  proposal.approve */\n      0x01\n      add\n      sload\n        /* \"contracts/ProposalContract.sol\":2750:2784  uint256 approve = proposal.approve */\n      swap1\n      pop\n        /* \"contracts/ProposalContract.sol\":2795:2809  uint256 reject */\n      0x00\n        /* \"contracts/ProposalContract.sol\":2812:2820  proposal */\n      dup3\n        /* \"contracts/ProposalContract.sol\":2812:2827  proposal.reject */\n      0x02\n      add\n      sload\n        /* \"contracts/ProposalContract.sol\":2795:2827  uint256 reject = proposal.reject */\n      swap1\n      pop\n        /* \"contracts/ProposalContract.sol\":2838:2850  uint256 pass */\n      0x00\n        /* \"contracts/ProposalContract.sol\":2853:2861  proposal */\n      dup4\n        /* \"contracts/ProposalContract.sol\":2853:2866  proposal.pass */\n      0x03\n      add\n      sload\n        /* \"contracts/ProposalContract.sol\":2838:2866  uint256 pass = proposal.pass */\n      swap1\n      pop\n        /* \"contracts/ProposalContract.sol\":2902:2903  1 */\n      0x01\n        /* \"contracts/ProposalContract.sol\":2897:2898  2 */\n      0x02\n        /* \"contracts/ProposalContract.sol\":2882:2890  proposal */\n      dup6\n        /* \"contracts/ProposalContract.sol\":2882:2895  proposal.pass */\n      0x03\n      add\n      sload\n        /* \"contracts/ProposalContract.sol\":2882:2898  proposal.pass %2 */\n      tag_129\n      swap2\n      swap1\n      tag_130\n      jump\t// in\n    tag_129:\n        /* \"contracts/ProposalContract.sol\":2882:2903  proposal.pass %2 == 1 */\n      sub\n        /* \"contracts/ProposalContract.sol\":2879:2940  if(proposal.pass %2 == 1) {... */\n      tag_131\n      jumpi\n        /* \"contracts/ProposalContract.sol\":2927:2928  1 */\n      0x01\n        /* \"contracts/ProposalContract.sol\":2920:2928  pass +=1 */\n      dup2\n      tag_132\n      swap2\n      swap1\n      tag_83\n      jump\t// in\n    tag_132:\n      swap1\n      pop\n        /* \"contracts/ProposalContract.sol\":2879:2940  if(proposal.pass %2 == 1) {... */\n    tag_131:\n        /* \"contracts/ProposalContract.sol\":2966:2967  2 */\n      0x02\n        /* \"contracts/ProposalContract.sol\":2959:2963  pass */\n      dup2\n        /* \"contracts/ProposalContract.sol\":2959:2967  pass / 2 */\n      tag_133\n      swap2\n      swap1\n      tag_134\n      jump\t// in\n    tag_133:\n        /* \"contracts/ProposalContract.sol\":2952:2967  pass = pass / 2 */\n      swap1\n      pop\n        /* \"contracts/ProposalContract.sol\":3003:3007  pass */\n      dup1\n        /* \"contracts/ProposalContract.sol\":2994:3000  reject */\n      dup3\n        /* \"contracts/ProposalContract.sol\":2994:3007  reject + pass */\n      tag_135\n      swap2\n      swap1\n      tag_83\n      jump\t// in\n    tag_135:\n        /* \"contracts/ProposalContract.sol\":2984:2991  approve */\n      dup4\n        /* \"contracts/ProposalContract.sol\":2984:3007  approve > reject + pass */\n      gt\n        /* \"contracts/ProposalContract.sol\":2980:3092  if (approve > reject + pass) {... */\n      iszero\n      tag_136\n      jumpi\n        /* \"contracts/ProposalContract.sol\":3031:3035  true */\n      0x01\n        /* \"contracts/ProposalContract.sol\":3024:3035  return true */\n      swap5\n      pop\n      pop\n      pop\n      pop\n      pop\n      jump(tag_127)\n        /* \"contracts/ProposalContract.sol\":2980:3092  if (approve > reject + pass) {... */\n    tag_136:\n        /* \"contracts/ProposalContract.sol\":3075:3080  false */\n      0x00\n        /* \"contracts/ProposalContract.sol\":3068:3080  return false */\n      swap5\n      pop\n      pop\n      pop\n      pop\n      pop\n        /* \"contracts/ProposalContract.sol\":2602:3099  function calculateCurrentState() private view returns(bool) {... */\n    tag_127:\n      swap1\n      jump\t// out\n    tag_62:\n      mload(0x40)\n      dup1\n      0xe0\n      add\n      0x40\n      mstore\n      dup1\n      0x60\n      dup2\n      mstore\n      0x20\n      add\n      0x00\n      dup2\n      mstore\n      0x20\n      add\n      0x00\n      dup2\n      mstore\n      0x20\n      add\n      0x00\n      dup2\n      mstore\n      0x20\n      add\n      0x00\n      dup2\n      mstore\n      0x20\n      add\n      iszero(iszero(0x00))\n      dup2\n      mstore\n      0x20\n      add\n      iszero(iszero(0x00))\n      dup2\n      mstore\n      pop\n      swap1\n      jump\t// out\n    tag_105:\n      dup3\n      dup1\n      sload\n      dup3\n      dup3\n      sstore\n      swap1\n      0x00\n      mstore\n      keccak256(0x00, 0x20)\n      swap1\n      dup2\n      add\n      swap3\n      dup3\n      iszero\n      tag_138\n      jumpi\n      swap2\n      0x20\n      mul\n      dup3\n      add\n    tag_139:\n      dup3\n      dup2\n      gt\n      iszero\n      tag_140\n      jumpi\n      dup3\n      mload\n      dup3\n      exp(0x0100, 0x00)\n      dup2\n      sload\n      dup2\n      0xffffffffffffffffffffffffffffffffffffffff\n      mul\n      not\n      and\n      swap1\n      dup4\n      0xffffffffffffffffffffffffffffffffffffffff\n      and\n      mul\n      or\n      swap1\n      sstore\n      pop\n      swap2\n      0x20\n      add\n      swap2\n      swap1\n      0x01\n      add\n      swap1\n      jump(tag_139)\n    tag_140:\n    tag_138:\n      pop\n      swap1\n      pop\n      tag_141\n      swap2\n      swap1\n      tag_142\n      jump\t// in\n    tag_141:\n      pop\n      swap1\n      jump\t// out\n    tag_142:\n    tag_143:\n      dup1\n      dup3\n      gt\n      iszero\n      tag_144\n      jumpi\n      0x00\n      dup2\n      0x00\n      swap1\n      sstore\n      pop\n      0x01\n      add\n      jump(tag_143)\n    tag_144:\n      pop\n      swap1\n      jump\t// out\n        /* \"#utility.yul\":88:205   */\n    tag_146:\n        /* \"#utility.yul\":197:198   */\n      0x00\n        /* \"#utility.yul\":194:195   */\n      dup1\n        /* \"#utility.yul\":187:199   */\n      revert\n        /* \"#utility.yul\":211:328   */\n    tag_147:\n        /* \"#utility.yul\":320:321   */\n      0x00\n        /* \"#utility.yul\":317:318   */\n      dup1\n        /* \"#utility.yul\":310:322   */\n      revert\n        /* \"#utility.yul\":334:460   */\n    tag_148:\n        /* \"#utility.yul\":371:378   */\n      0x00\n        /* \"#utility.yul\":411:453   */\n      0xffffffffffffffffffffffffffffffffffffffff\n        /* \"#utility.yul\":404:409   */\n      dup3\n        /* \"#utility.yul\":400:454   */\n      and\n        /* \"#utility.yul\":389:454   */\n      swap1\n      pop\n        /* \"#utility.yul\":334:460   */\n      swap2\n      swap1\n      pop\n      jump\t// out\n        /* \"#utility.yul\":466:562   */\n    tag_149:\n        /* \"#utility.yul\":503:510   */\n      0x00\n        /* \"#utility.yul\":532:556   */\n      tag_201\n        /* \"#utility.yul\":550:555   */\n      dup3\n        /* \"#utility.yul\":532:556   */\n      tag_148\n      jump\t// in\n    tag_201:\n        /* \"#utility.yul\":521:556   */\n      swap1\n      pop\n        /* \"#utility.yul\":466:562   */\n      swap2\n      swap1\n      pop\n      jump\t// out\n        /* \"#utility.yul\":568:690   */\n    tag_150:\n        /* \"#utility.yul\":641:665   */\n      tag_203\n        /* \"#utility.yul\":659:664   */\n      dup2\n        /* \"#utility.yul\":641:665   */\n      tag_149\n      jump\t// in\n    tag_203:\n        /* \"#utility.yul\":634:639   */\n      dup2\n        /* \"#utility.yul\":631:666   */\n      eq\n        /* \"#utility.yul\":621:684   */\n      tag_204\n      jumpi\n        /* \"#utility.yul\":680:681   */\n      0x00\n        /* \"#utility.yul\":677:678   */\n      dup1\n        /* \"#utility.yul\":670:682   */\n      revert\n        /* \"#utility.yul\":621:684   */\n    tag_204:\n        /* \"#utility.yul\":568:690   */\n      pop\n      jump\t// out\n        /* \"#utility.yul\":696:835   */\n    tag_151:\n        /* \"#utility.yul\":742:747   */\n      0x00\n        /* \"#utility.yul\":780:786   */\n      dup2\n        /* \"#utility.yul\":767:787   */\n      calldataload\n        /* \"#utility.yul\":758:787   */\n      swap1\n      pop\n        /* \"#utility.yul\":796:829   */\n      tag_206\n        /* \"#utility.yul\":823:828   */\n      dup2\n        /* \"#utility.yul\":796:829   */\n      tag_150\n      jump\t// in\n    tag_206:\n        /* \"#utility.yul\":696:835   */\n      swap3\n      swap2\n      pop\n      pop\n      jump\t// out\n        /* \"#utility.yul\":841:1170   */\n    tag_14:\n        /* \"#utility.yul\":900:906   */\n      0x00\n        /* \"#utility.yul\":949:951   */\n      0x20\n        /* \"#utility.yul\":937:946   */\n      dup3\n        /* \"#utility.yul\":928:935   */\n      dup5\n        /* \"#utility.yul\":924:947   */\n      sub\n        /* \"#utility.yul\":920:952   */\n      slt\n        /* \"#utility.yul\":917:1036   */\n      iszero\n      tag_208\n      jumpi\n        /* \"#utility.yul\":955:1034   */\n      tag_209\n      tag_146\n      jump\t// in\n    tag_209:\n        /* \"#utility.yul\":917:1036   */\n    tag_208:\n        /* \"#utility.yul\":1075:1076   */\n      0x00\n        /* \"#utility.yul\":1100:1153   */\n      tag_210\n        /* \"#utility.yul\":1145:1152   */\n      dup5\n        /* \"#utility.yul\":1136:1142   */\n      dup3\n        /* \"#utility.yul\":1125:1134   */\n      dup6\n        /* \"#utility.yul\":1121:1143   */\n      add\n        /* \"#utility.yul\":1100:1153   */\n      tag_151\n      jump\t// in\n    tag_210:\n        /* \"#utility.yul\":1090:1153   */\n      swap2\n      pop\n        /* \"#utility.yul\":1046:1163   */\n      pop\n        /* \"#utility.yul\":841:1170   */\n      swap3\n      swap2\n      pop\n      pop\n      jump\t// out\n        /* \"#utility.yul\":1176:1293   */\n    tag_152:\n        /* \"#utility.yul\":1285:1286   */\n      0x00\n        /* \"#utility.yul\":1282:1283   */\n      dup1\n        /* \"#utility.yul\":1275:1287   */\n      revert\n        /* \"#utility.yul\":1299:1416   */\n    tag_153:\n        /* \"#utility.yul\":1408:1409   */\n      0x00\n        /* \"#utility.yul\":1405:1406   */\n      dup1\n        /* \"#utility.yul\":1398:1410   */\n      revert\n        /* \"#utility.yul\":1422:1539   */\n    tag_154:\n        /* \"#utility.yul\":1531:1532   */\n      0x00\n        /* \"#utility.yul\":1528:1529   */\n      dup1\n        /* \"#utility.yul\":1521:1533   */\n      revert\n        /* \"#utility.yul\":1559:2112   */\n    tag_155:\n        /* \"#utility.yul\":1617:1625   */\n      0x00\n        /* \"#utility.yul\":1627:1633   */\n      dup1\n        /* \"#utility.yul\":1677:1680   */\n      dup4\n        /* \"#utility.yul\":1670:1674   */\n      0x1f\n        /* \"#utility.yul\":1662:1668   */\n      dup5\n        /* \"#utility.yul\":1658:1675   */\n      add\n        /* \"#utility.yul\":1654:1681   */\n      slt\n        /* \"#utility.yul\":1644:1766   */\n      tag_215\n      jumpi\n        /* \"#utility.yul\":1685:1764   */\n      tag_216\n      tag_152\n      jump\t// in\n    tag_216:\n        /* \"#utility.yul\":1644:1766   */\n    tag_215:\n        /* \"#utility.yul\":1798:1804   */\n      dup3\n        /* \"#utility.yul\":1785:1805   */\n      calldataload\n        /* \"#utility.yul\":1775:1805   */\n      swap1\n      pop\n        /* \"#utility.yul\":1828:1846   */\n      0xffffffffffffffff\n        /* \"#utility.yul\":1820:1826   */\n      dup2\n        /* \"#utility.yul\":1817:1847   */\n      gt\n        /* \"#utility.yul\":1814:1931   */\n      iszero\n      tag_217\n      jumpi\n        /* \"#utility.yul\":1850:1929   */\n      tag_218\n      tag_153\n      jump\t// in\n    tag_218:\n        /* \"#utility.yul\":1814:1931   */\n    tag_217:\n        /* \"#utility.yul\":1964:1968   */\n      0x20\n        /* \"#utility.yul\":1956:1962   */\n      dup4\n        /* \"#utility.yul\":1952:1969   */\n      add\n        /* \"#utility.yul\":1940:1969   */\n      swap2\n      pop\n        /* \"#utility.yul\":2018:2021   */\n      dup4\n        /* \"#utility.yul\":2010:2014   */\n      0x01\n        /* \"#utility.yul\":2002:2008   */\n      dup3\n        /* \"#utility.yul\":1998:2015   */\n      mul\n        /* \"#utility.yul\":1988:1996   */\n      dup4\n        /* \"#utility.yul\":1984:2016   */\n      add\n        /* \"#utility.yul\":1981:2022   */\n      gt\n        /* \"#utility.yul\":1978:2106   */\n      iszero\n      tag_219\n      jumpi\n        /* \"#utility.yul\":2025:2104   */\n      tag_220\n      tag_154\n      jump\t// in\n    tag_220:\n        /* \"#utility.yul\":1978:2106   */\n    tag_219:\n        /* \"#utility.yul\":1559:2112   */\n      swap3\n      pop\n      swap3\n      swap1\n      pop\n      jump\t// out\n        /* \"#utility.yul\":2118:2195   */\n    tag_156:\n        /* \"#utility.yul\":2155:2162   */\n      0x00\n        /* \"#utility.yul\":2184:2189   */\n      dup2\n        /* \"#utility.yul\":2173:2189   */\n      swap1\n      pop\n        /* \"#utility.yul\":2118:2195   */\n      swap2\n      swap1\n      pop\n      jump\t// out\n        /* \"#utility.yul\":2201:2323   */\n    tag_157:\n        /* \"#utility.yul\":2274:2298   */\n      tag_223\n        /* \"#utility.yul\":2292:2297   */\n      dup2\n        /* \"#utility.yul\":2274:2298   */\n      tag_156\n      jump\t// in\n    tag_223:\n        /* \"#utility.yul\":2267:2272   */\n      dup2\n        /* \"#utility.yul\":2264:2299   */\n      eq\n        /* \"#utility.yul\":2254:2317   */\n      tag_224\n      jumpi\n        /* \"#utility.yul\":2313:2314   */\n      0x00\n        /* \"#utility.yul\":2310:2311   */\n      dup1\n        /* \"#utility.yul\":2303:2315   */\n      revert\n        /* \"#utility.yul\":2254:2317   */\n    tag_224:\n        /* \"#utility.yul\":2201:2323   */\n      pop\n      jump\t// out\n        /* \"#utility.yul\":2329:2468   */\n    tag_158:\n        /* \"#utility.yul\":2375:2380   */\n      0x00\n        /* \"#utility.yul\":2413:2419   */\n      dup2\n        /* \"#utility.yul\":2400:2420   */\n      calldataload\n        /* \"#utility.yul\":2391:2420   */\n      swap1\n      pop\n        /* \"#utility.yul\":2429:2462   */\n      tag_226\n        /* \"#utility.yul\":2456:2461   */\n      dup2\n        /* \"#utility.yul\":2429:2462   */\n      tag_157\n      jump\t// in\n    tag_226:\n        /* \"#utility.yul\":2329:2468   */\n      swap3\n      swap2\n      pop\n      pop\n      jump\t// out\n        /* \"#utility.yul\":2474:3148   */\n    tag_20:\n        /* \"#utility.yul\":2554:2560   */\n      0x00\n        /* \"#utility.yul\":2562:2568   */\n      dup1\n        /* \"#utility.yul\":2570:2576   */\n      0x00\n        /* \"#utility.yul\":2619:2621   */\n      0x40\n        /* \"#utility.yul\":2607:2616   */\n      dup5\n        /* \"#utility.yul\":2598:2605   */\n      dup7\n        /* \"#utility.yul\":2594:2617   */\n      sub\n        /* \"#utility.yul\":2590:2622   */\n      slt\n        /* \"#utility.yul\":2587:2706   */\n      iszero\n      tag_228\n      jumpi\n        /* \"#utility.yul\":2625:2704   */\n      tag_229\n      tag_146\n      jump\t// in\n    tag_229:\n        /* \"#utility.yul\":2587:2706   */\n    tag_228:\n        /* \"#utility.yul\":2773:2774   */\n      0x00\n        /* \"#utility.yul\":2762:2771   */\n      dup5\n        /* \"#utility.yul\":2758:2775   */\n      add\n        /* \"#utility.yul\":2745:2776   */\n      calldataload\n        /* \"#utility.yul\":2803:2821   */\n      0xffffffffffffffff\n        /* \"#utility.yul\":2795:2801   */\n      dup2\n        /* \"#utility.yul\":2792:2822   */\n      gt\n        /* \"#utility.yul\":2789:2906   */\n      iszero\n      tag_230\n      jumpi\n        /* \"#utility.yul\":2825:2904   */\n      tag_231\n      tag_147\n      jump\t// in\n    tag_231:\n        /* \"#utility.yul\":2789:2906   */\n    tag_230:\n        /* \"#utility.yul\":2938:3003   */\n      tag_232\n        /* \"#utility.yul\":2995:3002   */\n      dup7\n        /* \"#utility.yul\":2986:2992   */\n      dup3\n        /* \"#utility.yul\":2975:2984   */\n      dup8\n        /* \"#utility.yul\":2971:2993   */\n      add\n        /* \"#utility.yul\":2938:3003   */\n      tag_155\n      jump\t// in\n    tag_232:\n        /* \"#utility.yul\":2920:3003   */\n      swap4\n      pop\n      swap4\n      pop\n        /* \"#utility.yul\":2716:3013   */\n      pop\n        /* \"#utility.yul\":3052:3054   */\n      0x20\n        /* \"#utility.yul\":3078:3131   */\n      tag_233\n        /* \"#utility.yul\":3123:3130   */\n      dup7\n        /* \"#utility.yul\":3114:3120   */\n      dup3\n        /* \"#utility.yul\":3103:3112   */\n      dup8\n        /* \"#utility.yul\":3099:3121   */\n      add\n        /* \"#utility.yul\":3078:3131   */\n      tag_158\n      jump\t// in\n    tag_233:\n        /* \"#utility.yul\":3068:3131   */\n      swap2\n      pop\n        /* \"#utility.yul\":3023:3141   */\n      pop\n        /* \"#utility.yul\":2474:3148   */\n      swap3\n      pop\n      swap3\n      pop\n      swap3\n      jump\t// out\n        /* \"#utility.yul\":3154:3253   */\n    tag_159:\n        /* \"#utility.yul\":3206:3212   */\n      0x00\n        /* \"#utility.yul\":3240:3245   */\n      dup2\n        /* \"#utility.yul\":3234:3246   */\n      mload\n        /* \"#utility.yul\":3224:3246   */\n      swap1\n      pop\n        /* \"#utility.yul\":3154:3253   */\n      swap2\n      swap1\n      pop\n      jump\t// out\n        /* \"#utility.yul\":3259:3418   */\n    tag_160:\n        /* \"#utility.yul\":3333:3344   */\n      0x00\n        /* \"#utility.yul\":3367:3373   */\n      dup3\n        /* \"#utility.yul\":3362:3365   */\n      dup3\n        /* \"#utility.yul\":3355:3374   */\n      mstore\n        /* \"#utility.yul\":3407:3411   */\n      0x20\n        /* \"#utility.yul\":3402:3405   */\n      dup3\n        /* \"#utility.yul\":3398:3412   */\n      add\n        /* \"#utility.yul\":3383:3412   */\n      swap1\n      pop\n        /* \"#utility.yul\":3259:3418   */\n      swap3\n      swap2\n      pop\n      pop\n      jump\t// out\n        /* \"#utility.yul\":3424:3670   */\n    tag_161:\n        /* \"#utility.yul\":3505:3506   */\n      0x00\n        /* \"#utility.yul\":3515:3628   */\n    tag_237:\n        /* \"#utility.yul\":3529:3535   */\n      dup4\n        /* \"#utility.yul\":3526:3527   */\n      dup2\n        /* \"#utility.yul\":3523:3536   */\n      lt\n        /* \"#utility.yul\":3515:3628   */\n      iszero\n      tag_239\n      jumpi\n        /* \"#utility.yul\":3614:3615   */\n      dup1\n        /* \"#utility.yul\":3609:3612   */\n      dup3\n        /* \"#utility.yul\":3605:3616   */\n      add\n        /* \"#utility.yul\":3599:3617   */\n      mload\n        /* \"#utility.yul\":3595:3596   */\n      dup2\n        /* \"#utility.yul\":3590:3593   */\n      dup5\n        /* \"#utility.yul\":3586:3597   */\n      add\n        /* \"#utility.yul\":3579:3618   */\n      mstore\n        /* \"#utility.yul\":3551:3553   */\n      0x20\n        /* \"#utility.yul\":3548:3549   */\n      dup2\n        /* \"#utility.yul\":3544:3554   */\n      add\n        /* \"#utility.yul\":3539:3554   */\n      swap1\n      pop\n        /* \"#utility.yul\":3515:3628   */\n      jump(tag_237)\n    tag_239:\n        /* \"#utility.yul\":3662:3663   */\n      0x00\n        /* \"#utility.yul\":3653:3659   */\n      dup5\n        /* \"#utility.yul\":3648:3651   */\n      dup5\n        /* \"#utility.yul\":3644:3660   */\n      add\n        /* \"#utility.yul\":3637:3664   */\n      mstore\n        /* \"#utility.yul\":3486:3670   */\n      pop\n        /* \"#utility.yul\":3424:3670   */\n      pop\n      pop\n      pop\n      jump\t// out\n        /* \"#utility.yul\":3676:3778   */\n    tag_162:\n        /* \"#utility.yul\":3717:3723   */\n      0x00\n        /* \"#utility.yul\":3768:3770   */\n      0x1f\n        /* \"#utility.yul\":3764:3771   */\n      not\n        /* \"#utility.yul\":3759:3761   */\n      0x1f\n        /* \"#utility.yul\":3752:3757   */\n      dup4\n        /* \"#utility.yul\":3748:3762   */\n      add\n        /* \"#utility.yul\":3744:3772   */\n      and\n        /* \"#utility.yul\":3734:3772   */\n      swap1\n      pop\n        /* \"#utility.yul\":3676:3778   */\n      swap2\n      swap1\n      pop\n      jump\t// out\n        /* \"#utility.yul\":3784:4141   */\n    tag_163:\n        /* \"#utility.yul\":3862:3865   */\n      0x00\n        /* \"#utility.yul\":3890:3929   */\n      tag_242\n        /* \"#utility.yul\":3923:3928   */\n      dup3\n        /* \"#utility.yul\":3890:3929   */\n      tag_159\n      jump\t// in\n    tag_242:\n        /* \"#utility.yul\":3945:4006   */\n      tag_243\n        /* \"#utility.yul\":3999:4005   */\n      dup2\n        /* \"#utility.yul\":3994:3997   */\n      dup6\n        /* \"#utility.yul\":3945:4006   */\n      tag_160\n      jump\t// in\n    tag_243:\n        /* \"#utility.yul\":3938:4006   */\n      swap4\n      pop\n        /* \"#utility.yul\":4015:4080   */\n      tag_244\n        /* \"#utility.yul\":4073:4079   */\n      dup2\n        /* \"#utility.yul\":4068:4071   */\n      dup6\n        /* \"#utility.yul\":4061:4065   */\n      0x20\n        /* \"#utility.yul\":4054:4059   */\n      dup7\n        /* \"#utility.yul\":4050:4066   */\n      add\n        /* \"#utility.yul\":4015:4080   */\n      tag_161\n      jump\t// in\n    tag_244:\n        /* \"#utility.yul\":4105:4134   */\n      tag_245\n        /* \"#utility.yul\":4127:4133   */\n      dup2\n        /* \"#utility.yul\":4105:4134   */\n      tag_162\n      jump\t// in\n    tag_245:\n        /* \"#utility.yul\":4100:4103   */\n      dup5\n        /* \"#utility.yul\":4096:4135   */\n      add\n        /* \"#utility.yul\":4089:4135   */\n      swap2\n      pop\n        /* \"#utility.yul\":3866:4141   */\n      pop\n        /* \"#utility.yul\":3784:4141   */\n      swap3\n      swap2\n      pop\n      pop\n      jump\t// out\n        /* \"#utility.yul\":4147:4255   */\n    tag_164:\n        /* \"#utility.yul\":4224:4248   */\n      tag_247\n        /* \"#utility.yul\":4242:4247   */\n      dup2\n        /* \"#utility.yul\":4224:4248   */\n      tag_156\n      jump\t// in\n    tag_247:\n        /* \"#utility.yul\":4219:4222   */\n      dup3\n        /* \"#utility.yul\":4212:4249   */\n      mstore\n        /* \"#utility.yul\":4147:4255   */\n      pop\n      pop\n      jump\t// out\n        /* \"#utility.yul\":4261:4351   */\n    tag_165:\n        /* \"#utility.yul\":4295:4302   */\n      0x00\n        /* \"#utility.yul\":4338:4343   */\n      dup2\n        /* \"#utility.yul\":4331:4344   */\n      iszero\n        /* \"#utility.yul\":4324:4345   */\n      iszero\n        /* \"#utility.yul\":4313:4345   */\n      swap1\n      pop\n        /* \"#utility.yul\":4261:4351   */\n      swap2\n      swap1\n      pop\n      jump\t// out\n        /* \"#utility.yul\":4357:4456   */\n    tag_166:\n        /* \"#utility.yul\":4428:4449   */\n      tag_250\n        /* \"#utility.yul\":4443:4448   */\n      dup2\n        /* \"#utility.yul\":4428:4449   */\n      tag_165\n      jump\t// in\n    tag_250:\n        /* \"#utility.yul\":4423:4426   */\n      dup3\n        /* \"#utility.yul\":4416:4450   */\n      mstore\n        /* \"#utility.yul\":4357:4456   */\n      pop\n      pop\n      jump\t// out\n        /* \"#utility.yul\":4538:6039   */\n    tag_167:\n        /* \"#utility.yul\":4655:4658   */\n      0x00\n        /* \"#utility.yul\":4691:4695   */\n      0xe0\n        /* \"#utility.yul\":4686:4689   */\n      dup4\n        /* \"#utility.yul\":4682:4696   */\n      add\n        /* \"#utility.yul\":4785:4789   */\n      0x00\n        /* \"#utility.yul\":4778:4783   */\n      dup4\n        /* \"#utility.yul\":4774:4790   */\n      add\n        /* \"#utility.yul\":4768:4791   */\n      mload\n        /* \"#utility.yul\":4838:4841   */\n      dup5\n        /* \"#utility.yul\":4832:4836   */\n      dup3\n        /* \"#utility.yul\":4828:4842   */\n      sub\n        /* \"#utility.yul\":4821:4825   */\n      0x00\n        /* \"#utility.yul\":4816:4819   */\n      dup7\n        /* \"#utility.yul\":4812:4826   */\n      add\n        /* \"#utility.yul\":4805:4843   */\n      mstore\n        /* \"#utility.yul\":4864:4937   */\n      tag_252\n        /* \"#utility.yul\":4932:4936   */\n      dup3\n        /* \"#utility.yul\":4918:4930   */\n      dup3\n        /* \"#utility.yul\":4864:4937   */\n      tag_163\n      jump\t// in\n    tag_252:\n        /* \"#utility.yul\":4856:4937   */\n      swap2\n      pop\n        /* \"#utility.yul\":4706:4948   */\n      pop\n        /* \"#utility.yul\":5033:5037   */\n      0x20\n        /* \"#utility.yul\":5026:5031   */\n      dup4\n        /* \"#utility.yul\":5022:5038   */\n      add\n        /* \"#utility.yul\":5016:5039   */\n      mload\n        /* \"#utility.yul\":5052:5115   */\n      tag_253\n        /* \"#utility.yul\":5109:5113   */\n      0x20\n        /* \"#utility.yul\":5104:5107   */\n      dup7\n        /* \"#utility.yul\":5100:5114   */\n      add\n        /* \"#utility.yul\":5086:5098   */\n      dup3\n        /* \"#utility.yul\":5052:5115   */\n      tag_164\n      jump\t// in\n    tag_253:\n        /* \"#utility.yul\":4958:5125   */\n      pop\n        /* \"#utility.yul\":5209:5213   */\n      0x40\n        /* \"#utility.yul\":5202:5207   */\n      dup4\n        /* \"#utility.yul\":5198:5214   */\n      add\n        /* \"#utility.yul\":5192:5215   */\n      mload\n        /* \"#utility.yul\":5228:5291   */\n      tag_254\n        /* \"#utility.yul\":5285:5289   */\n      0x40\n        /* \"#utility.yul\":5280:5283   */\n      dup7\n        /* \"#utility.yul\":5276:5290   */\n      add\n        /* \"#utility.yul\":5262:5274   */\n      dup3\n        /* \"#utility.yul\":5228:5291   */\n      tag_164\n      jump\t// in\n    tag_254:\n        /* \"#utility.yul\":5135:5301   */\n      pop\n        /* \"#utility.yul\":5383:5387   */\n      0x60\n        /* \"#utility.yul\":5376:5381   */\n      dup4\n        /* \"#utility.yul\":5372:5388   */\n      add\n        /* \"#utility.yul\":5366:5389   */\n      mload\n        /* \"#utility.yul\":5402:5465   */\n      tag_255\n        /* \"#utility.yul\":5459:5463   */\n      0x60\n        /* \"#utility.yul\":5454:5457   */\n      dup7\n        /* \"#utility.yul\":5450:5464   */\n      add\n        /* \"#utility.yul\":5436:5448   */\n      dup3\n        /* \"#utility.yul\":5402:5465   */\n      tag_164\n      jump\t// in\n    tag_255:\n        /* \"#utility.yul\":5311:5475   */\n      pop\n        /* \"#utility.yul\":5570:5574   */\n      0x80\n        /* \"#utility.yul\":5563:5568   */\n      dup4\n        /* \"#utility.yul\":5559:5575   */\n      add\n        /* \"#utility.yul\":5553:5576   */\n      mload\n        /* \"#utility.yul\":5589:5652   */\n      tag_256\n        /* \"#utility.yul\":5646:5650   */\n      0x80\n        /* \"#utility.yul\":5641:5644   */\n      dup7\n        /* \"#utility.yul\":5637:5651   */\n      add\n        /* \"#utility.yul\":5623:5635   */\n      dup3\n        /* \"#utility.yul\":5589:5652   */\n      tag_164\n      jump\t// in\n    tag_256:\n        /* \"#utility.yul\":5485:5662   */\n      pop\n        /* \"#utility.yul\":5753:5757   */\n      0xa0\n        /* \"#utility.yul\":5746:5751   */\n      dup4\n        /* \"#utility.yul\":5742:5758   */\n      add\n        /* \"#utility.yul\":5736:5759   */\n      mload\n        /* \"#utility.yul\":5772:5829   */\n      tag_257\n        /* \"#utility.yul\":5823:5827   */\n      0xa0\n        /* \"#utility.yul\":5818:5821   */\n      dup7\n        /* \"#utility.yul\":5814:5828   */\n      add\n        /* \"#utility.yul\":5800:5812   */\n      dup3\n        /* \"#utility.yul\":5772:5829   */\n      tag_166\n      jump\t// in\n    tag_257:\n        /* \"#utility.yul\":5672:5839   */\n      pop\n        /* \"#utility.yul\":5926:5930   */\n      0xc0\n        /* \"#utility.yul\":5919:5924   */\n      dup4\n        /* \"#utility.yul\":5915:5931   */\n      add\n        /* \"#utility.yul\":5909:5932   */\n      mload\n        /* \"#utility.yul\":5945:6002   */\n      tag_258\n        /* \"#utility.yul\":5996:6000   */\n      0xc0\n        /* \"#utility.yul\":5991:5994   */\n      dup7\n        /* \"#utility.yul\":5987:6001   */\n      add\n        /* \"#utility.yul\":5973:5985   */\n      dup3\n        /* \"#utility.yul\":5945:6002   */\n      tag_166\n      jump\t// in\n    tag_258:\n        /* \"#utility.yul\":5849:6012   */\n      pop\n        /* \"#utility.yul\":6029:6033   */\n      dup1\n        /* \"#utility.yul\":6022:6033   */\n      swap2\n      pop\n        /* \"#utility.yul\":4660:6039   */\n      pop\n        /* \"#utility.yul\":4538:6039   */\n      swap3\n      swap2\n      pop\n      pop\n      jump\t// out\n        /* \"#utility.yul\":6045:6414   */\n    tag_25:\n        /* \"#utility.yul\":6186:6190   */\n      0x00\n        /* \"#utility.yul\":6224:6226   */\n      0x20\n        /* \"#utility.yul\":6213:6222   */\n      dup3\n        /* \"#utility.yul\":6209:6227   */\n      add\n        /* \"#utility.yul\":6201:6227   */\n      swap1\n      pop\n        /* \"#utility.yul\":6273:6282   */\n      dup2\n        /* \"#utility.yul\":6267:6271   */\n      dup2\n        /* \"#utility.yul\":6263:6283   */\n      sub\n        /* \"#utility.yul\":6259:6260   */\n      0x00\n        /* \"#utility.yul\":6248:6257   */\n      dup4\n        /* \"#utility.yul\":6244:6261   */\n      add\n        /* \"#utility.yul\":6237:6284   */\n      mstore\n        /* \"#utility.yul\":6301:6407   */\n      tag_260\n        /* \"#utility.yul\":6402:6406   */\n      dup2\n        /* \"#utility.yul\":6393:6399   */\n      dup5\n        /* \"#utility.yul\":6301:6407   */\n      tag_167\n      jump\t// in\n    tag_260:\n        /* \"#utility.yul\":6293:6407   */\n      swap1\n      pop\n        /* \"#utility.yul\":6045:6414   */\n      swap3\n      swap2\n      pop\n      pop\n      jump\t// out\n        /* \"#utility.yul\":6420:6538   */\n    tag_168:\n        /* \"#utility.yul\":6507:6531   */\n      tag_262\n        /* \"#utility.yul\":6525:6530   */\n      dup2\n        /* \"#utility.yul\":6507:6531   */\n      tag_149\n      jump\t// in\n    tag_262:\n        /* \"#utility.yul\":6502:6505   */\n      dup3\n        /* \"#utility.yul\":6495:6532   */\n      mstore\n        /* \"#utility.yul\":6420:6538   */\n      pop\n      pop\n      jump\t// out\n        /* \"#utility.yul\":6544:6766   */\n    tag_29:\n        /* \"#utility.yul\":6637:6641   */\n      0x00\n        /* \"#utility.yul\":6675:6677   */\n      0x20\n        /* \"#utility.yul\":6664:6673   */\n      dup3\n        /* \"#utility.yul\":6660:6678   */\n      add\n        /* \"#utility.yul\":6652:6678   */\n      swap1\n      pop\n        /* \"#utility.yul\":6688:6759   */\n      tag_264\n        /* \"#utility.yul\":6756:6757   */\n      0x00\n        /* \"#utility.yul\":6745:6754   */\n      dup4\n        /* \"#utility.yul\":6741:6758   */\n      add\n        /* \"#utility.yul\":6732:6738   */\n      dup5\n        /* \"#utility.yul\":6688:6759   */\n      tag_168\n      jump\t// in\n    tag_264:\n        /* \"#utility.yul\":6544:6766   */\n      swap3\n      swap2\n      pop\n      pop\n      jump\t// out\n        /* \"#utility.yul\":6772:6858   */\n    tag_169:\n        /* \"#utility.yul\":6807:6814   */\n      0x00\n        /* \"#utility.yul\":6847:6851   */\n      0xff\n        /* \"#utility.yul\":6840:6845   */\n      dup3\n        /* \"#utility.yul\":6836:6852   */\n      and\n        /* \"#utility.yul\":6825:6852   */\n      swap1\n      pop\n        /* \"#utility.yul\":6772:6858   */\n      swap2\n      swap1\n      pop\n      jump\t// out\n        /* \"#utility.yul\":6864:6982   */\n    tag_170:\n        /* \"#utility.yul\":6935:6957   */\n      tag_267\n        /* \"#utility.yul\":6951:6956   */\n      dup2\n        /* \"#utility.yul\":6935:6957   */\n      tag_169\n      jump\t// in\n    tag_267:\n        /* \"#utility.yul\":6928:6933   */\n      dup2\n        /* \"#utility.yul\":6925:6958   */\n      eq\n        /* \"#utility.yul\":6915:6976   */\n      tag_268\n      jumpi\n        /* \"#utility.yul\":6972:6973   */\n      0x00\n        /* \"#utility.yul\":6969:6970   */\n      dup1\n        /* \"#utility.yul\":6962:6974   */\n      revert\n        /* \"#utility.yul\":6915:6976   */\n    tag_268:\n        /* \"#utility.yul\":6864:6982   */\n      pop\n      jump\t// out\n        /* \"#utility.yul\":6988:7123   */\n    tag_171:\n        /* \"#utility.yul\":7032:7037   */\n      0x00\n        /* \"#utility.yul\":7070:7076   */\n      dup2\n        /* \"#utility.yul\":7057:7077   */\n      calldataload\n        /* \"#utility.yul\":7048:7077   */\n      swap1\n      pop\n        /* \"#utility.yul\":7086:7117   */\n      tag_270\n        /* \"#utility.yul\":7111:7116   */\n      dup2\n        /* \"#utility.yul\":7086:7117   */\n      tag_170\n      jump\t// in\n    tag_270:\n        /* \"#utility.yul\":6988:7123   */\n      swap3\n      swap2\n      pop\n      pop\n      jump\t// out\n        /* \"#utility.yul\":7129:7454   */\n    tag_32:\n        /* \"#utility.yul\":7186:7192   */\n      0x00\n        /* \"#utility.yul\":7235:7237   */\n      0x20\n        /* \"#utility.yul\":7223:7232   */\n      dup3\n        /* \"#utility.yul\":7214:7221   */\n      dup5\n        /* \"#utility.yul\":7210:7233   */\n      sub\n        /* \"#utility.yul\":7206:7238   */\n      slt\n        /* \"#utility.yul\":7203:7322   */\n      iszero\n      tag_272\n      jumpi\n        /* \"#utility.yul\":7241:7320   */\n      tag_273\n      tag_146\n      jump\t// in\n    tag_273:\n        /* \"#utility.yul\":7203:7322   */\n    tag_272:\n        /* \"#utility.yul\":7361:7362   */\n      0x00\n        /* \"#utility.yul\":7386:7437   */\n      tag_274\n        /* \"#utility.yul\":7429:7436   */\n      dup5\n        /* \"#utility.yul\":7420:7426   */\n      dup3\n        /* \"#utility.yul\":7409:7418   */\n      dup6\n        /* \"#utility.yul\":7405:7427   */\n      add\n        /* \"#utility.yul\":7386:7437   */\n      tag_171\n      jump\t// in\n    tag_274:\n        /* \"#utility.yul\":7376:7437   */\n      swap2\n      pop\n        /* \"#utility.yul\":7332:7447   */\n      pop\n        /* \"#utility.yul\":7129:7454   */\n      swap3\n      swap2\n      pop\n      pop\n      jump\t// out\n        /* \"#utility.yul\":7460:7789   */\n    tag_36:\n        /* \"#utility.yul\":7519:7525   */\n      0x00\n        /* \"#utility.yul\":7568:7570   */\n      0x20\n        /* \"#utility.yul\":7556:7565   */\n      dup3\n        /* \"#utility.yul\":7547:7554   */\n      dup5\n        /* \"#utility.yul\":7543:7566   */\n      sub\n        /* \"#utility.yul\":7539:7571   */\n      slt\n        /* \"#utility.yul\":7536:7655   */\n      iszero\n      tag_276\n      jumpi\n        /* \"#utility.yul\":7574:7653   */\n      tag_277\n      tag_146\n      jump\t// in\n    tag_277:\n        /* \"#utility.yul\":7536:7655   */\n    tag_276:\n        /* \"#utility.yul\":7694:7695   */\n      0x00\n        /* \"#utility.yul\":7719:7772   */\n      tag_278\n        /* \"#utility.yul\":7764:7771   */\n      dup5\n        /* \"#utility.yul\":7755:7761   */\n      dup3\n        /* \"#utility.yul\":7744:7753   */\n      dup6\n        /* \"#utility.yul\":7740:7762   */\n      add\n        /* \"#utility.yul\":7719:7772   */\n      tag_158\n      jump\t// in\n    tag_278:\n        /* \"#utility.yul\":7709:7772   */\n      swap2\n      pop\n        /* \"#utility.yul\":7665:7782   */\n      pop\n        /* \"#utility.yul\":7460:7789   */\n      swap3\n      swap2\n      pop\n      pop\n      jump\t// out\n        /* \"#utility.yul\":7795:7904   */\n    tag_172:\n        /* \"#utility.yul\":7876:7897   */\n      tag_280\n        /* \"#utility.yul\":7891:7896   */\n      dup2\n        /* \"#utility.yul\":7876:7897   */\n      tag_165\n      jump\t// in\n    tag_280:\n        /* \"#utility.yul\":7871:7874   */\n      dup3\n        /* \"#utility.yul\":7864:7898   */\n      mstore\n        /* \"#utility.yul\":7795:7904   */\n      pop\n      pop\n      jump\t// out\n        /* \"#utility.yul\":7910:8120   */\n    tag_43:\n        /* \"#utility.yul\":7997:8001   */\n      0x00\n        /* \"#utility.yul\":8035:8037   */\n      0x20\n        /* \"#utility.yul\":8024:8033   */\n      dup3\n        /* \"#utility.yul\":8020:8038   */\n      add\n        /* \"#utility.yul\":8012:8038   */\n      swap1\n      pop\n        /* \"#utility.yul\":8048:8113   */\n      tag_282\n        /* \"#utility.yul\":8110:8111   */\n      0x00\n        /* \"#utility.yul\":8099:8108   */\n      dup4\n        /* \"#utility.yul\":8095:8112   */\n      add\n        /* \"#utility.yul\":8086:8092   */\n      dup5\n        /* \"#utility.yul\":8048:8113   */\n      tag_172\n      jump\t// in\n    tag_282:\n        /* \"#utility.yul\":7910:8120   */\n      swap3\n      swap2\n      pop\n      pop\n      jump\t// out\n        /* \"#utility.yul\":8126:8306   */\n    tag_173:\n        /* \"#utility.yul\":8174:8251   */\n      0x4e487b7100000000000000000000000000000000000000000000000000000000\n        /* \"#utility.yul\":8171:8172   */\n      0x00\n        /* \"#utility.yul\":8164:8252   */\n      mstore\n        /* \"#utility.yul\":8271:8275   */\n      0x41\n        /* \"#utility.yul\":8268:8269   */\n      0x04\n        /* \"#utility.yul\":8261:8276   */\n      mstore\n        /* \"#utility.yul\":8295:8299   */\n      0x24\n        /* \"#utility.yul\":8292:8293   */\n      0x00\n        /* \"#utility.yul\":8285:8300   */\n      revert\n        /* \"#utility.yul\":8312:8492   */\n    tag_174:\n        /* \"#utility.yul\":8360:8437   */\n      0x4e487b7100000000000000000000000000000000000000000000000000000000\n        /* \"#utility.yul\":8357:8358   */\n      0x00\n        /* \"#utility.yul\":8350:8438   */\n      mstore\n        /* \"#utility.yul\":8457:8461   */\n      0x22\n        /* \"#utility.yul\":8454:8455   */\n      0x04\n        /* \"#utility.yul\":8447:8462   */\n      mstore\n        /* \"#utility.yul\":8481:8485   */\n      0x24\n        /* \"#utility.yul\":8478:8479   */\n      0x00\n        /* \"#utility.yul\":8471:8486   */\n      revert\n        /* \"#utility.yul\":8498:8818   */\n    tag_66:\n        /* \"#utility.yul\":8542:8548   */\n      0x00\n        /* \"#utility.yul\":8579:8580   */\n      0x02\n        /* \"#utility.yul\":8573:8577   */\n      dup3\n        /* \"#utility.yul\":8569:8581   */\n      div\n        /* \"#utility.yul\":8559:8581   */\n      swap1\n      pop\n        /* \"#utility.yul\":8626:8627   */\n      0x01\n        /* \"#utility.yul\":8620:8624   */\n      dup3\n        /* \"#utility.yul\":8616:8628   */\n      and\n        /* \"#utility.yul\":8647:8665   */\n      dup1\n        /* \"#utility.yul\":8637:8718   */\n      tag_286\n      jumpi\n        /* \"#utility.yul\":8703:8707   */\n      0x7f\n        /* \"#utility.yul\":8695:8701   */\n      dup3\n        /* \"#utility.yul\":8691:8708   */\n      and\n        /* \"#utility.yul\":8681:8708   */\n      swap2\n      pop\n        /* \"#utility.yul\":8637:8718   */\n    tag_286:\n        /* \"#utility.yul\":8765:8767   */\n      0x20\n        /* \"#utility.yul\":8757:8763   */\n      dup3\n        /* \"#utility.yul\":8754:8768   */\n      lt\n        /* \"#utility.yul\":8734:8752   */\n      dup2\n        /* \"#utility.yul\":8731:8769   */\n      sub\n        /* \"#utility.yul\":8728:8812   */\n      tag_287\n      jumpi\n        /* \"#utility.yul\":8784:8802   */\n      tag_288\n      tag_174\n      jump\t// in\n    tag_288:\n        /* \"#utility.yul\":8728:8812   */\n    tag_287:\n        /* \"#utility.yul\":8549:8818   */\n      pop\n        /* \"#utility.yul\":8498:8818   */\n      swap2\n      swap1\n      pop\n      jump\t// out\n        /* \"#utility.yul\":8824:8965   */\n    tag_175:\n        /* \"#utility.yul\":8873:8877   */\n      0x00\n        /* \"#utility.yul\":8896:8899   */\n      dup2\n        /* \"#utility.yul\":8888:8899   */\n      swap1\n      pop\n        /* \"#utility.yul\":8919:8922   */\n      dup2\n        /* \"#utility.yul\":8916:8917   */\n      0x00\n        /* \"#utility.yul\":8909:8923   */\n      mstore\n        /* \"#utility.yul\":8953:8957   */\n      0x20\n        /* \"#utility.yul\":8950:8951   */\n      0x00\n        /* \"#utility.yul\":8940:8958   */\n      keccak256\n        /* \"#utility.yul\":8932:8958   */\n      swap1\n      pop\n        /* \"#utility.yul\":8824:8965   */\n      swap2\n      swap1\n      pop\n      jump\t// out\n        /* \"#utility.yul\":8971:9064   */\n    tag_176:\n        /* \"#utility.yul\":9008:9014   */\n      0x00\n        /* \"#utility.yul\":9055:9057   */\n      0x20\n        /* \"#utility.yul\":9050:9052   */\n      0x1f\n        /* \"#utility.yul\":9043:9048   */\n      dup4\n        /* \"#utility.yul\":9039:9053   */\n      add\n        /* \"#utility.yul\":9035:9058   */\n      div\n        /* \"#utility.yul\":9025:9058   */\n      swap1\n      pop\n        /* \"#utility.yul\":8971:9064   */\n      swap2\n      swap1\n      pop\n      jump\t// out\n        /* \"#utility.yul\":9070:9177   */\n    tag_177:\n        /* \"#utility.yul\":9114:9122   */\n      0x00\n        /* \"#utility.yul\":9164:9169   */\n      dup3\n        /* \"#utility.yul\":9158:9162   */\n      dup3\n        /* \"#utility.yul\":9154:9170   */\n      shl\n        /* \"#utility.yul\":9133:9170   */\n      swap1\n      pop\n        /* \"#utility.yul\":9070:9177   */\n      swap3\n      swap2\n      pop\n      pop\n      jump\t// out\n        /* \"#utility.yul\":9183:9576   */\n    tag_178:\n        /* \"#utility.yul\":9252:9258   */\n      0x00\n        /* \"#utility.yul\":9302:9303   */\n      0x08\n        /* \"#utility.yul\":9290:9300   */\n      dup4\n        /* \"#utility.yul\":9286:9304   */\n      mul\n        /* \"#utility.yul\":9325:9422   */\n      tag_293\n        /* \"#utility.yul\":9355:9421   */\n      0xffffffffffffffffffffffffffffffffffffffffffffffffffffffffffffffff\n        /* \"#utility.yul\":9344:9353   */\n      dup3\n        /* \"#utility.yul\":9325:9422   */\n      tag_177\n      jump\t// in\n    tag_293:\n        /* \"#utility.yul\":9443:9482   */\n      tag_294\n        /* \"#utility.yul\":9473:9481   */\n      dup7\n        /* \"#utility.yul\":9462:9471   */\n      dup4\n        /* \"#utility.yul\":9443:9482   */\n      tag_177\n      jump\t// in\n    tag_294:\n        /* \"#utility.yul\":9431:9482   */\n      swap6\n      pop\n        /* \"#utility.yul\":9515:9519   */\n      dup1\n        /* \"#utility.yul\":9511:9520   */\n      not\n        /* \"#utility.yul\":9504:9509   */\n      dup5\n        /* \"#utility.yul\":9500:9521   */\n      and\n        /* \"#utility.yul\":9491:9521   */\n      swap4\n      pop\n        /* \"#utility.yul\":9564:9568   */\n      dup1\n        /* \"#utility.yul\":9554:9562   */\n      dup7\n        /* \"#utility.yul\":9550:9569   */\n      and\n        /* \"#utility.yul\":9543:9548   */\n      dup5\n        /* \"#utility.yul\":9540:9570   */\n      or\n        /* \"#utility.yul\":9530:9570   */\n      swap3\n      pop\n        /* \"#utility.yul\":9259:9576   */\n      pop\n      pop\n        /* \"#utility.yul\":9183:9576   */\n      swap4\n      swap3\n      pop\n      pop\n      pop\n      jump\t// out\n        /* \"#utility.yul\":9582:9642   */\n    tag_179:\n        /* \"#utility.yul\":9610:9613   */\n      0x00\n        /* \"#utility.yul\":9631:9636   */\n      dup2\n        /* \"#utility.yul\":9624:9636   */\n      swap1\n      pop\n        /* \"#utility.yul\":9582:9642   */\n      swap2\n      swap1\n      pop\n      jump\t// out\n        /* \"#utility.yul\":9648:9790   */\n    tag_180:\n        /* \"#utility.yul\":9698:9707   */\n      0x00\n        /* \"#utility.yul\":9731:9784   */\n      tag_297\n        /* \"#utility.yul\":9749:9783   */\n      tag_298\n        /* \"#utility.yul\":9758:9782   */\n      tag_299\n        /* \"#utility.yul\":9776:9781   */\n      dup5\n        /* \"#utility.yul\":9758:9782   */\n      tag_156\n      jump\t// in\n    tag_299:\n        /* \"#utility.yul\":9749:9783   */\n      tag_179\n      jump\t// in\n    tag_298:\n        /* \"#utility.yul\":9731:9784   */\n      tag_156\n      jump\t// in\n    tag_297:\n        /* \"#utility.yul\":9718:9784   */\n      swap1\n      pop\n        /* \"#utility.yul\":9648:9790   */\n      swap2\n      swap1\n      pop\n      jump\t// out\n        /* \"#utility.yul\":9796:9871   */\n    tag_181:\n        /* \"#utility.yul\":9839:9842   */\n      0x00\n        /* \"#utility.yul\":9860:9865   */\n      dup2\n        /* \"#utility.yul\":9853:9865   */\n      swap1\n      pop\n        /* \"#utility.yul\":9796:9871   */\n      swap2\n      swap1\n      pop\n      jump\t// out\n        /* \"#utility.yul\":9877:10146   */\n    tag_182:\n        /* \"#utility.yul\":9987:10026   */\n      tag_302\n        /* \"#utility.yul\":10018:10025   */\n      dup4\n        /* \"#utility.yul\":9987:10026   */\n      tag_180\n      jump\t// in\n    tag_302:\n        /* \"#utility.yul\":10048:10139   */\n      tag_303\n        /* \"#utility.yul\":10097:10138   */\n      tag_304\n        /* \"#utility.yul\":10121:10137   */\n      dup3\n        /* \"#utility.yul\":10097:10138   */\n      tag_181\n      jump\t// in\n    tag_304:\n        /* \"#utility.yul\":10089:10095   */\n      dup5\n        /* \"#utility.yul\":10082:10086   */\n      dup5\n        /* \"#utility.yul\":10076:10087   */\n      sload\n        /* \"#utility.yul\":10048:10139   */\n      tag_178\n      jump\t// in\n    tag_303:\n        /* \"#utility.yul\":10042:10046   */\n      dup3\n        /* \"#utility.yul\":10035:10140   */\n      sstore\n        /* \"#utility.yul\":9953:10146   */\n      pop\n        /* \"#utility.yul\":9877:10146   */\n      pop\n      pop\n      pop\n      jump\t// out\n        /* \"#utility.yul\":10152:10225   */\n    tag_183:\n        /* \"#utility.yul\":10197:10200   */\n      0x00\n        /* \"#utility.yul\":10152:10225   */\n      swap1\n      jump\t// out\n        /* \"#utility.yul\":10231:10420   */\n    tag_184:\n        /* \"#utility.yul\":10308:10340   */\n      tag_307\n      tag_183\n      jump\t// in\n    tag_307:\n        /* \"#utility.yul\":10349:10414   */\n      tag_308\n        /* \"#utility.yul\":10407:10413   */\n      dup2\n        /* \"#utility.yul\":10399:10405   */\n      dup5\n        /* \"#utility.yul\":10393:10397   */\n      dup5\n        /* \"#utility.yul\":10349:10414   */\n      tag_182\n      jump\t// in\n    tag_308:\n        /* \"#utility.yul\":10284:10420   */\n      pop\n        /* \"#utility.yul\":10231:10420   */\n      pop\n      pop\n      jump\t// out\n        /* \"#utility.yul\":10426:10612   */\n    tag_185:\n        /* \"#utility.yul\":10486:10606   */\n    tag_310:\n        /* \"#utility.yul\":10503:10506   */\n      dup2\n        /* \"#utility.yul\":10496:10501   */\n      dup2\n        /* \"#utility.yul\":10493:10507   */\n      lt\n        /* \"#utility.yul\":10486:10606   */\n      iszero\n      tag_312\n      jumpi\n        /* \"#utility.yul\":10557:10596   */\n      tag_313\n        /* \"#utility.yul\":10594:10595   */\n      0x00\n        /* \"#utility.yul\":10587:10592   */\n      dup3\n        /* \"#utility.yul\":10557:10596   */\n      tag_184\n      jump\t// in\n    tag_313:\n        /* \"#utility.yul\":10530:10531   */\n      0x01\n        /* \"#utility.yul\":10523:10528   */\n      dup2\n        /* \"#utility.yul\":10519:10532   */\n      add\n        /* \"#utility.yul\":10510:10532   */\n      swap1\n      pop\n        /* \"#utility.yul\":10486:10606   */\n      jump(tag_310)\n    tag_312:\n        /* \"#utility.yul\":10426:10612   */\n      pop\n      pop\n      jump\t// out\n        /* \"#utility.yul\":10618:11161   */\n    tag_186:\n        /* \"#utility.yul\":10719:10721   */\n      0x1f\n        /* \"#utility.yul\":10714:10717   */\n      dup3\n        /* \"#utility.yul\":10711:10722   */\n      gt\n        /* \"#utility.yul\":10708:11154   */\n      iszero\n      tag_315\n      jumpi\n        /* \"#utility.yul\":10753:10791   */\n      tag_316\n        /* \"#utility.yul\":10785:10790   */\n      dup2\n        /* \"#utility.yul\":10753:10791   */\n      tag_175\n      jump\t// in\n    tag_316:\n        /* \"#utility.yul\":10837:10866   */\n      tag_317\n        /* \"#utility.yul\":10855:10865   */\n      dup5\n        /* \"#utility.yul\":10837:10866   */\n      tag_176\n      jump\t// in\n    tag_317:\n        /* \"#utility.yul\":10827:10835   */\n      dup2\n        /* \"#utility.yul\":10823:10867   */\n      add\n        /* \"#utility.yul\":11020:11022   */\n      0x20\n        /* \"#utility.yul\":11008:11018   */\n      dup6\n        /* \"#utility.yul\":11005:11023   */\n      lt\n        /* \"#utility.yul\":11002:11051   */\n      iszero\n      tag_318\n      jumpi\n        /* \"#utility.yul\":11041:11049   */\n      dup2\n        /* \"#utility.yul\":11026:11049   */\n      swap1\n      pop\n        /* \"#utility.yul\":11002:11051   */\n    tag_318:\n        /* \"#utility.yul\":11064:11144   */\n      tag_319\n        /* \"#utility.yul\":11120:11142   */\n      tag_320\n        /* \"#utility.yul\":11138:11141   */\n      dup6\n        /* \"#utility.yul\":11120:11142   */\n      tag_176\n      jump\t// in\n    tag_320:\n        /* \"#utility.yul\":11110:11118   */\n      dup4\n        /* \"#utility.yul\":11106:11143   */\n      add\n        /* \"#utility.yul\":11093:11104   */\n      dup3\n        /* \"#utility.yul\":11064:11144   */\n      tag_185\n      jump\t// in\n    tag_319:\n        /* \"#utility.yul\":10723:11154   */\n      pop\n      pop\n        /* \"#utility.yul\":10708:11154   */\n    tag_315:\n        /* \"#utility.yul\":10618:11161   */\n      pop\n      pop\n      pop\n      jump\t// out\n        /* \"#utility.yul\":11167:11284   */\n    tag_187:\n        /* \"#utility.yul\":11221:11229   */\n      0x00\n        /* \"#utility.yul\":11271:11276   */\n      dup3\n        /* \"#utility.yul\":11265:11269   */\n      dup3\n        /* \"#utility.yul\":11261:11277   */\n      shr\n        /* \"#utility.yul\":11240:11277   */\n      swap1\n      pop\n        /* \"#utility.yul\":11167:11284   */\n      swap3\n      swap2\n      pop\n      pop\n      jump\t// out\n        /* \"#utility.yul\":11290:11459   */\n    tag_188:\n        /* \"#utility.yul\":11334:11340   */\n      0x00\n        /* \"#utility.yul\":11367:11418   */\n      tag_323\n        /* \"#utility.yul\":11415:11416   */\n      0x00\n        /* \"#utility.yul\":11411:11417   */\n      not\n        /* \"#utility.yul\":11403:11408   */\n      dup5\n        /* \"#utility.yul\":11400:11401   */\n      0x08\n        /* \"#utility.yul\":11396:11409   */\n      mul\n        /* \"#utility.yul\":11367:11418   */\n      tag_187\n      jump\t// in\n    tag_323:\n        /* \"#utility.yul\":11363:11419   */\n      not\n        /* \"#utility.yul\":11448:11452   */\n      dup1\n        /* \"#utility.yul\":11442:11446   */\n      dup4\n        /* \"#utility.yul\":11438:11453   */\n      and\n        /* \"#utility.yul\":11428:11453   */\n      swap2\n      pop\n        /* \"#utility.yul\":11341:11459   */\n      pop\n        /* \"#utility.yul\":11290:11459   */\n      swap3\n      swap2\n      pop\n      pop\n      jump\t// out\n        /* \"#utility.yul\":11464:11759   */\n    tag_189:\n        /* \"#utility.yul\":11540:11544   */\n      0x00\n        /* \"#utility.yul\":11686:11715   */\n      tag_325\n        /* \"#utility.yul\":11711:11714   */\n      dup4\n        /* \"#utility.yul\":11705:11709   */\n      dup4\n        /* \"#utility.yul\":11686:11715   */\n      tag_188\n      jump\t// in\n    tag_325:\n        /* \"#utility.yul\":11678:11715   */\n      swap2\n      pop\n        /* \"#utility.yul\":11748:11751   */\n      dup3\n        /* \"#utility.yul\":11745:11746   */\n      0x02\n        /* \"#utility.yul\":11741:11752   */\n      mul\n        /* \"#utility.yul\":11735:11739   */\n      dup3\n        /* \"#utility.yul\":11732:11753   */\n      or\n        /* \"#utility.yul\":11724:11753   */\n      swap1\n      pop\n        /* \"#utility.yul\":11464:11759   */\n      swap3\n      swap2\n      pop\n      pop\n      jump\t// out\n        /* \"#utility.yul\":11764:13159   */\n    tag_60:\n        /* \"#utility.yul\":11881:11918   */\n      tag_327\n        /* \"#utility.yul\":11914:11917   */\n      dup3\n        /* \"#utility.yul\":11881:11918   */\n      tag_159\n      jump\t// in\n    tag_327:\n        /* \"#utility.yul\":11983:12001   */\n      0xffffffffffffffff\n        /* \"#utility.yul\":11975:11981   */\n      dup2\n        /* \"#utility.yul\":11972:12002   */\n      gt\n        /* \"#utility.yul\":11969:12025   */\n      iszero\n      tag_328\n      jumpi\n        /* \"#utility.yul\":12005:12023   */\n      tag_329\n      tag_173\n      jump\t// in\n    tag_329:\n        /* \"#utility.yul\":11969:12025   */\n    tag_328:\n        /* \"#utility.yul\":12049:12087   */\n      tag_330\n        /* \"#utility.yul\":12081:12085   */\n      dup3\n        /* \"#utility.yul\":12075:12086   */\n      sload\n        /* \"#utility.yul\":12049:12087   */\n      tag_66\n      jump\t// in\n    tag_330:\n        /* \"#utility.yul\":12134:12201   */\n      tag_331\n        /* \"#utility.yul\":12194:12200   */\n      dup3\n        /* \"#utility.yul\":12186:12192   */\n      dup3\n        /* \"#utility.yul\":12180:12184   */\n      dup6\n        /* \"#utility.yul\":12134:12201   */\n      tag_186\n      jump\t// in\n    tag_331:\n        /* \"#utility.yul\":12228:12229   */\n      0x00\n        /* \"#utility.yul\":12252:12256   */\n      0x20\n        /* \"#utility.yul\":12239:12256   */\n      swap1\n      pop\n        /* \"#utility.yul\":12284:12286   */\n      0x1f\n        /* \"#utility.yul\":12276:12282   */\n      dup4\n        /* \"#utility.yul\":12273:12287   */\n      gt\n        /* \"#utility.yul\":12301:12302   */\n      0x01\n        /* \"#utility.yul\":12296:12914   */\n      dup2\n      eq\n      tag_333\n      jumpi\n        /* \"#utility.yul\":12958:12959   */\n      0x00\n        /* \"#utility.yul\":12975:12981   */\n      dup5\n        /* \"#utility.yul\":12972:13049   */\n      iszero\n      tag_334\n      jumpi\n        /* \"#utility.yul\":13024:13033   */\n      dup3\n        /* \"#utility.yul\":13019:13022   */\n      dup8\n        /* \"#utility.yul\":13015:13034   */\n      add\n        /* \"#utility.yul\":13009:13035   */\n      mload\n        /* \"#utility.yul\":13000:13035   */\n      swap1\n      pop\n        /* \"#utility.yul\":12972:13049   */\n    tag_334:\n        /* \"#utility.yul\":13075:13142   */\n      tag_335\n        /* \"#utility.yul\":13135:13141   */\n      dup6\n        /* \"#utility.yul\":13128:13133   */\n      dup3\n        /* \"#utility.yul\":13075:13142   */\n      tag_189\n      jump\t// in\n    tag_335:\n        /* \"#utility.yul\":13069:13073   */\n      dup7\n        /* \"#utility.yul\":13062:13143   */\n      sstore\n        /* \"#utility.yul\":12931:13153   */\n      pop\n        /* \"#utility.yul\":12266:13153   */\n      jump(tag_332)\n        /* \"#utility.yul\":12296:12914   */\n    tag_333:\n        /* \"#utility.yul\":12348:12352   */\n      0x1f\n        /* \"#utility.yul\":12344:12353   */\n      not\n        /* \"#utility.yul\":12336:12342   */\n      dup5\n        /* \"#utility.yul\":12332:12354   */\n      and\n        /* \"#utility.yul\":12382:12419   */\n      tag_336\n        /* \"#utility.yul\":12414:12418   */\n      dup7\n        /* \"#utility.yul\":12382:12419   */\n      tag_175\n      jump\t// in\n    tag_336:\n        /* \"#utility.yul\":12441:12442   */\n      0x00\n        /* \"#utility.yul\":12455:12663   */\n    tag_337:\n        /* \"#utility.yul\":12469:12476   */\n      dup3\n        /* \"#utility.yul\":12466:12467   */\n      dup2\n        /* \"#utility.yul\":12463:12477   */\n      lt\n        /* \"#utility.yul\":12455:12663   */\n      iszero\n      tag_339\n      jumpi\n        /* \"#utility.yul\":12548:12557   */\n      dup5\n        /* \"#utility.yul\":12543:12546   */\n      dup10\n        /* \"#utility.yul\":12539:12558   */\n      add\n        /* \"#utility.yul\":12533:12559   */\n      mload\n        /* \"#utility.yul\":12525:12531   */\n      dup3\n        /* \"#utility.yul\":12518:12560   */\n      sstore\n        /* \"#utility.yul\":12599:12600   */\n      0x01\n        /* \"#utility.yul\":12591:12597   */\n      dup3\n        /* \"#utility.yul\":12587:12601   */\n      add\n        /* \"#utility.yul\":12577:12601   */\n      swap2\n      pop\n        /* \"#utility.yul\":12646:12648   */\n      0x20\n        /* \"#utility.yul\":12635:12644   */\n      dup6\n        /* \"#utility.yul\":12631:12649   */\n      add\n        /* \"#utility.yul\":12618:12649   */\n      swap5\n      pop\n        /* \"#utility.yul\":12492:12496   */\n      0x20\n        /* \"#utility.yul\":12489:12490   */\n      dup2\n        /* \"#utility.yul\":12485:12497   */\n      add\n        /* \"#utility.yul\":12480:12497   */\n      swap1\n      pop\n        /* \"#utility.yul\":12455:12663   */\n      jump(tag_337)\n    tag_339:\n        /* \"#utility.yul\":12691:12697   */\n      dup7\n        /* \"#utility.yul\":12682:12689   */\n      dup4\n        /* \"#utility.yul\":12679:12698   */\n      lt\n        /* \"#utility.yul\":12676:12855   */\n      iszero\n      tag_340\n      jumpi\n        /* \"#utility.yul\":12749:12758   */\n      dup5\n        /* \"#utility.yul\":12744:12747   */\n      dup10\n        /* \"#utility.yul\":12740:12759   */\n      add\n        /* \"#utility.yul\":12734:12760   */\n      mload\n        /* \"#utility.yul\":12792:12840   */\n      tag_341\n        /* \"#utility.yul\":12834:12838   */\n      0x1f\n        /* \"#utility.yul\":12826:12832   */\n      dup10\n        /* \"#utility.yul\":12822:12839   */\n      and\n        /* \"#utility.yul\":12811:12820   */\n      dup3\n        /* \"#utility.yul\":12792:12840   */\n      tag_188\n      jump\t// in\n    tag_341:\n        /* \"#utility.yul\":12784:12790   */\n      dup4\n        /* \"#utility.yul\":12777:12841   */\n      sstore\n        /* \"#utility.yul\":12699:12855   */\n      pop\n        /* \"#utility.yul\":12676:12855   */\n    tag_340:\n        /* \"#utility.yul\":12901:12902   */\n      0x01\n        /* \"#utility.yul\":12897:12898   */\n      0x02\n        /* \"#utility.yul\":12889:12895   */\n      dup9\n        /* \"#utility.yul\":12885:12899   */\n      mul\n        /* \"#utility.yul\":12881:12903   */\n      add\n        /* \"#utility.yul\":12875:12879   */\n      dup9\n        /* \"#utility.yul\":12868:12904   */\n      sstore\n        /* \"#utility.yul\":12303:12914   */\n      pop\n      pop\n      pop\n        /* \"#utility.yul\":12266:13153   */\n    tag_332:\n      pop\n        /* \"#utility.yul\":11856:13159   */\n      pop\n      pop\n      pop\n        /* \"#utility.yul\":11764:13159   */\n      pop\n      pop\n      jump\t// out\n        /* \"#utility.yul\":13165:13334   */\n    tag_190:\n        /* \"#utility.yul\":13249:13260   */\n      0x00\n        /* \"#utility.yul\":13283:13289   */\n      dup3\n        /* \"#utility.yul\":13278:13281   */\n      dup3\n        /* \"#utility.yul\":13271:13290   */\n      mstore\n        /* \"#utility.yul\":13323:13327   */\n      0x20\n        /* \"#utility.yul\":13318:13321   */\n      dup3\n        /* \"#utility.yul\":13314:13328   */\n      add\n        /* \"#utility.yul\":13299:13328   */\n      swap1\n      pop\n        /* \"#utility.yul\":13165:13334   */\n      swap3\n      swap2\n      pop\n      pop\n      jump\t// out\n        /* \"#utility.yul\":13340:13516   */\n    tag_191:\n        /* \"#utility.yul\":13480:13508   */\n      0x4164647265737320686173206e6f7420766f746564207965742e000000000000\n        /* \"#utility.yul\":13476:13477   */\n      0x00\n        /* \"#utility.yul\":13468:13474   */\n      dup3\n        /* \"#utility.yul\":13464:13478   */\n      add\n        /* \"#utility.yul\":13457:13509   */\n      mstore\n        /* \"#utility.yul\":13340:13516   */\n      pop\n      jump\t// out\n        /* \"#utility.yul\":13522:13888   */\n    tag_192:\n        /* \"#utility.yul\":13664:13667   */\n      0x00\n        /* \"#utility.yul\":13685:13752   */\n      tag_345\n        /* \"#utility.yul\":13749:13751   */\n      0x1a\n        /* \"#utility.yul\":13744:13747   */\n      dup4\n        /* \"#utility.yul\":13685:13752   */\n      tag_190\n      jump\t// in\n    tag_345:\n        /* \"#utility.yul\":13678:13752   */\n      swap2\n      pop\n        /* \"#utility.yul\":13761:13854   */\n      tag_346\n        /* \"#utility.yul\":13850:13853   */\n      dup3\n        /* \"#utility.yul\":13761:13854   */\n      tag_191\n      jump\t// in\n    tag_346:\n        /* \"#utility.yul\":13879:13881   */\n      0x20\n        /* \"#utility.yul\":13874:13877   */\n      dup3\n        /* \"#utility.yul\":13870:13882   */\n      add\n        /* \"#utility.yul\":13863:13882   */\n      swap1\n      pop\n        /* \"#utility.yul\":13522:13888   */\n      swap2\n      swap1\n      pop\n      jump\t// out\n        /* \"#utility.yul\":13894:14313   */\n    tag_79:\n        /* \"#utility.yul\":14060:14064   */\n      0x00\n        /* \"#utility.yul\":14098:14100   */\n      0x20\n        /* \"#utility.yul\":14087:14096   */\n      dup3\n        /* \"#utility.yul\":14083:14101   */\n      add\n        /* \"#utility.yul\":14075:14101   */\n      swap1\n      pop\n        /* \"#utility.yul\":14147:14156   */\n      dup2\n        /* \"#utility.yul\":14141:14145   */\n      dup2\n        /* \"#utility.yul\":14137:14157   */\n      sub\n        /* \"#utility.yul\":14133:14134   */\n      0x00\n        /* \"#utility.yul\":14122:14131   */\n      dup4\n        /* \"#utility.yul\":14118:14135   */\n      add\n        /* \"#utility.yul\":14111:14158   */\n      mstore\n        /* \"#utility.yul\":14175:14306   */\n      tag_348\n        /* \"#utility.yul\":14301:14305   */\n      dup2\n        /* \"#utility.yul\":14175:14306   */\n      tag_192\n      jump\t// in\n    tag_348:\n        /* \"#utility.yul\":14167:14306   */\n      swap1\n      pop\n        /* \"#utility.yul\":13894:14313   */\n      swap2\n      swap1\n      pop\n      jump\t// out\n        /* \"#utility.yul\":14319:14499   */\n    tag_193:\n        /* \"#utility.yul\":14367:14444   */\n      0x4e487b7100000000000000000000000000000000000000000000000000000000\n        /* \"#utility.yul\":14364:14365   */\n      0x00\n        /* \"#utility.yul\":14357:14445   */\n      mstore\n        /* \"#utility.yul\":14464:14468   */\n      0x11\n        /* \"#utility.yul\":14461:14462   */\n      0x04\n        /* \"#utility.yul\":14454:14469   */\n      mstore\n        /* \"#utility.yul\":14488:14492   */\n      0x24\n        /* \"#utility.yul\":14485:14486   */\n      0x00\n        /* \"#utility.yul\":14478:14493   */\n      revert\n        /* \"#utility.yul\":14505:14696   */\n    tag_83:\n        /* \"#utility.yul\":14545:14548   */\n      0x00\n        /* \"#utility.yul\":14564:14584   */\n      tag_351\n        /* \"#utility.yul\":14582:14583   */\n      dup3\n        /* \"#utility.yul\":14564:14584   */\n      tag_156\n      jump\t// in\n    tag_351:\n        /* \"#utility.yul\":14559:14584   */\n      swap2\n      pop\n        /* \"#utility.yul\":14598:14618   */\n      tag_352\n        /* \"#utility.yul\":14616:14617   */\n      dup4\n        /* \"#utility.yul\":14598:14618   */\n      tag_156\n      jump\t// in\n    tag_352:\n        /* \"#utility.yul\":14593:14618   */\n      swap3\n      pop\n        /* \"#utility.yul\":14641:14642   */\n      dup3\n        /* \"#utility.yul\":14638:14639   */\n      dup3\n        /* \"#utility.yul\":14634:14643   */\n      add\n        /* \"#utility.yul\":14627:14643   */\n      swap1\n      pop\n        /* \"#utility.yul\":14662:14665   */\n      dup1\n        /* \"#utility.yul\":14659:14660   */\n      dup3\n        /* \"#utility.yul\":14656:14666   */\n      gt\n        /* \"#utility.yul\":14653:14689   */\n      iszero\n      tag_353\n      jumpi\n        /* \"#utility.yul\":14669:14687   */\n      tag_354\n      tag_193\n      jump\t// in\n    tag_354:\n        /* \"#utility.yul\":14653:14689   */\n    tag_353:\n        /* \"#utility.yul\":14505:14696   */\n      swap3\n      swap2\n      pop\n      pop\n      jump\t// out\n        /* \"#utility.yul\":14702:14896   */\n    tag_99:\n        /* \"#utility.yul\":14742:14746   */\n      0x00\n        /* \"#utility.yul\":14762:14782   */\n      tag_356\n        /* \"#utility.yul\":14780:14781   */\n      dup3\n        /* \"#utility.yul\":14762:14782   */\n      tag_156\n      jump\t// in\n    tag_356:\n        /* \"#utility.yul\":14757:14782   */\n      swap2\n      pop\n        /* \"#utility.yul\":14796:14816   */\n      tag_357\n        /* \"#utility.yul\":14814:14815   */\n      dup4\n        /* \"#utility.yul\":14796:14816   */\n      tag_156\n      jump\t// in\n    tag_357:\n        /* \"#utility.yul\":14791:14816   */\n      swap3\n      pop\n        /* \"#utility.yul\":14840:14841   */\n      dup3\n        /* \"#utility.yul\":14837:14838   */\n      dup3\n        /* \"#utility.yul\":14833:14842   */\n      sub\n        /* \"#utility.yul\":14825:14842   */\n      swap1\n      pop\n        /* \"#utility.yul\":14864:14865   */\n      dup2\n        /* \"#utility.yul\":14858:14862   */\n      dup2\n        /* \"#utility.yul\":14855:14866   */\n      gt\n        /* \"#utility.yul\":14852:14889   */\n      iszero\n      tag_358\n      jumpi\n        /* \"#utility.yul\":14869:14887   */\n      tag_359\n      tag_193\n      jump\t// in\n    tag_359:\n        /* \"#utility.yul\":14852:14889   */\n    tag_358:\n        /* \"#utility.yul\":14702:14896   */\n      swap3\n      swap2\n      pop\n      pop\n      jump\t// out\n        /* \"#utility.yul\":14902:15082   */\n    tag_119:\n        /* \"#utility.yul\":14950:15027   */\n      0x4e487b7100000000000000000000000000000000000000000000000000000000\n        /* \"#utility.yul\":14947:14948   */\n      0x00\n        /* \"#utility.yul\":14940:15028   */\n      mstore\n        /* \"#utility.yul\":15047:15051   */\n      0x32\n        /* \"#utility.yul\":15044:15045   */\n      0x04\n        /* \"#utility.yul\":15037:15052   */\n      mstore\n        /* \"#utility.yul\":15071:15075   */\n      0x24\n        /* \"#utility.yul\":15068:15069   */\n      0x00\n        /* \"#utility.yul\":15061:15076   */\n      revert\n        /* \"#utility.yul\":15088:15321   */\n    tag_123:\n        /* \"#utility.yul\":15127:15130   */\n      0x00\n        /* \"#utility.yul\":15150:15174   */\n      tag_362\n        /* \"#utility.yul\":15168:15173   */\n      dup3\n        /* \"#utility.yul\":15150:15174   */\n      tag_156\n      jump\t// in\n    tag_362:\n        /* \"#utility.yul\":15141:15174   */\n      swap2\n      pop\n        /* \"#utility.yul\":15196:15262   */\n      0xffffffffffffffffffffffffffffffffffffffffffffffffffffffffffffffff\n        /* \"#utility.yul\":15189:15194   */\n      dup3\n        /* \"#utility.yul\":15186:15263   */\n      sub\n        /* \"#utility.yul\":15183:15286   */\n      tag_363\n      jumpi\n        /* \"#utility.yul\":15266:15284   */\n      tag_364\n      tag_193\n      jump\t// in\n    tag_364:\n        /* \"#utility.yul\":15183:15286   */\n    tag_363:\n        /* \"#utility.yul\":15313:15314   */\n      0x01\n        /* \"#utility.yul\":15306:15311   */\n      dup3\n        /* \"#utility.yul\":15302:15315   */\n      add\n        /* \"#utility.yul\":15295:15315   */\n      swap1\n      pop\n        /* \"#utility.yul\":15088:15321   */\n      swap2\n      swap1\n      pop\n      jump\t// out\n        /* \"#utility.yul\":15327:15507   */\n    tag_194:\n        /* \"#utility.yul\":15375:15452   */\n      0x4e487b7100000000000000000000000000000000000000000000000000000000\n        /* \"#utility.yul\":15372:15373   */\n      0x00\n        /* \"#utility.yul\":15365:15453   */\n      mstore\n        /* \"#utility.yul\":15472:15476   */\n      0x12\n        /* \"#utility.yul\":15469:15470   */\n      0x04\n        /* \"#utility.yul\":15462:15477   */\n      mstore\n        /* \"#utility.yul\":15496:15500   */\n      0x24\n        /* \"#utility.yul\":15493:15494   */\n      0x00\n        /* \"#utility.yul\":15486:15501   */\n      revert\n        /* \"#utility.yul\":15513:15689   */\n    tag_130:\n        /* \"#utility.yul\":15545:15546   */\n      0x00\n        /* \"#utility.yul\":15562:15582   */\n      tag_367\n        /* \"#utility.yul\":15580:15581   */\n      dup3\n        /* \"#utility.yul\":15562:15582   */\n      tag_156\n      jump\t// in\n    tag_367:\n        /* \"#utility.yul\":15557:15582   */\n      swap2\n      pop\n        /* \"#utility.yul\":15596:15616   */\n      tag_368\n        /* \"#utility.yul\":15614:15615   */\n      dup4\n        /* \"#utility.yul\":15596:15616   */\n      tag_156\n      jump\t// in\n    tag_368:\n        /* \"#utility.yul\":15591:15616   */\n      swap3\n      pop\n        /* \"#utility.yul\":15635:15636   */\n      dup3\n        /* \"#utility.yul\":15625:15660   */\n      tag_369\n      jumpi\n        /* \"#utility.yul\":15640:15658   */\n      tag_370\n      tag_194\n      jump\t// in\n    tag_370:\n        /* \"#utility.yul\":15625:15660   */\n    tag_369:\n        /* \"#utility.yul\":15681:15682   */\n      dup3\n        /* \"#utility.yul\":15678:15679   */\n      dup3\n        /* \"#utility.yul\":15674:15683   */\n      mod\n        /* \"#utility.yul\":15669:15683   */\n      swap1\n      pop\n        /* \"#utility.yul\":15513:15689   */\n      swap3\n      swap2\n      pop\n      pop\n      jump\t// out\n        /* \"#utility.yul\":15695:15880   */\n    tag_134:\n        /* \"#utility.yul\":15735:15736   */\n      0x00\n        /* \"#utility.yul\":15752:15772   */\n      tag_372\n        /* \"#utility.yul\":15770:15771   */\n      dup3\n        /* \"#utility.yul\":15752:15772   */\n      tag_156\n      jump\t// in\n    tag_372:\n        /* \"#utility.yul\":15747:15772   */\n      swap2\n      pop\n        /* \"#utility.yul\":15786:15806   */\n      tag_373\n        /* \"#utility.yul\":15804:15805   */\n      dup4\n        /* \"#utility.yul\":15786:15806   */\n      tag_156\n      jump\t// in\n    tag_373:\n        /* \"#utility.yul\":15781:15806   */\n      swap3\n      pop\n        /* \"#utility.yul\":15825:15826   */\n      dup3\n        /* \"#utility.yul\":15815:15850   */\n      tag_374\n      jumpi\n        /* \"#utility.yul\":15830:15848   */\n      tag_375\n      tag_194\n      jump\t// in\n    tag_375:\n        /* \"#utility.yul\":15815:15850   */\n    tag_374:\n        /* \"#utility.yul\":15872:15873   */\n      dup3\n        /* \"#utility.yul\":15869:15870   */\n      dup3\n        /* \"#utility.yul\":15865:15874   */\n      div\n        /* \"#utility.yul\":15860:15874   */\n      swap1\n      pop\n        /* \"#utility.yul\":15695:15880   */\n      swap3\n      swap2\n      pop\n      pop\n      jump\t// out\n\n    auxdata: 0xa2646970667358221220a0551c8a5ad582784a98999e91feac0ecd48ccc79edd06a11a2db75ca9cbe22b64736f6c63430008120033\n}\n",
				"bytecode": {
					"linkReferences": {},
					"object": "608060405234801561001057600080fd5b50336000806101000a81548173ffffffffffffffffffffffffffffffffffffffff021916908373ffffffffffffffffffffffffffffffffffffffff1602179055506004339080600181540180825580915050600190039060005260206000200160009091909190916101000a81548173ffffffffffffffffffffffffffffffffffffffff021916908373ffffffffffffffffffffffffffffffffffffffff160217905550611526806100c36000396000f3fe608060405234801561001057600080fd5b50600436106100885760003560e01c8063893d20e81161005b578063893d20e8146100ed578063b3f98adc1461010b578063c7f758a814610127578063cbff75cb1461015757610088565b806313af40351461008d57806332149fb5146100a957806346f81a87146100b3578063581efa7a146100cf575b600080fd5b6100a760048036038101906100a29190610c40565b610187565b005b6100b16101ca565b005b6100cd60048036038101906100c89190610d08565b610299565b005b6100d761041d565b6040516100e49190610ebe565b60405180910390f35b6100f5610541565b6040516101029190610eef565b60405180910390f35b61012560048036038101906101209190610f43565b61056a565b005b610141600480360381019061013c9190610f70565b610859565b60405161014e9190610ebe565b60405180910390f35b610171600480360381019061016c9190610c40565b610976565b60405161017e9190610fac565b60405180910390f35b806000806101000a81548173ffffffffffffffffffffffffffffffffffffffff021916908373ffffffffffffffffffffffffffffffffffffffff16021790555050565b60008054906101000a900473ffffffffffffffffffffffffffffffffffffffff1673ffffffffffffffffffffffffffffffffffffffff163373ffffffffffffffffffffffffffffffffffffffff161461022257600080fd5b60011515600360006102346001610a24565b815260200190815260200160002060050160019054906101000a900460ff1615151461025f57600080fd5b60006003600061026f6001610a24565b815260200190815260200160002060050160016101000a81548160ff021916908315150217905550565b60008054906101000a900473ffffffffffffffffffffffffffffffffffffffff1673ffffffffffffffffffffffffffffffffffffffff163373ffffffffffffffffffffffffffffffffffffffff16146102f157600080fd5b6102fb6001610a32565b6040518060e0016040528084848080601f016020809104026020016040519081016040528093929190818152602001838380828437600081840152601f19601f82011690508083019250505050505050815260200160008152602001600081526020016000815260200182815260200160001515815260200160011515815250600360006103896001610a24565b815260200190815260200160002060008201518160000190816103ac9190611202565b506020820151816001015560408201518160020155606082015181600301556080820151816004015560a08201518160050160006101000a81548160ff02191690831515021790555060c08201518160050160016101000a81548160ff021916908315150217905550905050505050565b610425610af0565b600360006104336001610a24565b81526020019081526020016000206040518060e001604052908160008201805461045c90611025565b80601f016020809104026020016040519081016040528092919081815260200182805461048890611025565b80156104d55780601f106104aa576101008083540402835291602001916104d5565b820191906000526020600020905b8154815290600101906020018083116104b857829003601f168201915b50505050508152602001600182015481526020016002820154815260200160038201548152602001600482015481526020016005820160009054906101000a900460ff161515151581526020016005820160019054906101000a900460ff161515151581525050905090565b60008060009054906101000a900473ffffffffffffffffffffffffffffffffffffffff16905090565b600115156003600061057c6001610a24565b815260200190815260200160002060050160019054906101000a900460ff161515146105a757600080fd5b336105b181610976565b156105f1576040517f08c379a00000000000000000000000000000000000000000000000000000000081526004016105e890611331565b60405180910390fd5b6000600360006106016001610a24565b81526020019081526020016000209050600081600301548260020154836001015461062c9190611380565b6106369190611380565b90506004339080600181540180825580915050600190039060005260206000200160009091909190916101000a81548173ffffffffffffffffffffffffffffffffffffffff021916908373ffffffffffffffffffffffffffffffffffffffff16021790555060018460ff16036106ea5760018260010160008282546106bb9190611380565b925050819055506106ca610a51565b8260050160006101000a81548160ff021916908315150217905550610786565b60028460ff160361073957600182600201600082825461070a9190611380565b92505081905550610719610a51565b8260050160006101000a81548160ff021916908315150217905550610785565b60038460ff16036107845760018260030160008282546107599190611380565b92505081905550610768610a51565b8260050160006101000a81548160ff0219169083151502179055505b5b5b600181836004015461079891906113b4565b1480156107c4575060018460ff1614806107b5575060028460ff16145b806107c3575060008460ff16145b5b156108535760008260050160016101000a81548160ff021916908315150217905550604051806020016040528060008054906101000a900473ffffffffffffffffffffffffffffffffffffffff1673ffffffffffffffffffffffffffffffffffffffff1673ffffffffffffffffffffffffffffffffffffffff168152506004906001610851929190610b31565b505b50505050565b610861610af0565b600360008381526020019081526020016000206040518060e001604052908160008201805461088f90611025565b80601f01602080910402602001604051908101604052809291908181526020018280546108bb90611025565b80156109085780601f106108dd57610100808354040283529160200191610908565b820191906000526020600020905b8154815290600101906020018083116108eb57829003601f168201915b50505050508152602001600182015481526020016002820154815260200160038201548152602001600482015481526020016005820160009054906101000a900460ff161515151581526020016005820160019054906101000a900460ff1615151515815250509050919050565b600080600090505b600480549050811015610a19578273ffffffffffffffffffffffffffffffffffffffff16600482815481106109b6576109b56113e8565b5b9060005260206000200160009054906101000a900473ffffffffffffffffffffffffffffffffffffffff1673ffffffffffffffffffffffffffffffffffffffff1603610a06576001915050610a1f565b8080610a1190611417565b91505061097e565b50600090505b919050565b600081600001549050919050565b6001816000016000828254610a479190611380565b9250508190555050565b60008060036000610a626001610a24565b81526020019081526020016000209050600081600101549050600082600201549050600083600301549050600160028560030154610aa0919061148e565b03610ab557600181610ab29190611380565b90505b600281610ac291906114bf565b90508082610ad09190611380565b831115610ae4576001945050505050610aed565b60009450505050505b90565b6040518060e0016040528060608152602001600081526020016000815260200160008152602001600081526020016000151581526020016000151581525090565b828054828255906000526020600020908101928215610baa579160200282015b82811115610ba95782518260006101000a81548173ffffffffffffffffffffffffffffffffffffffff021916908373ffffffffffffffffffffffffffffffffffffffff16021790555091602001919060010190610b51565b5b509050610bb79190610bbb565b5090565b5b80821115610bd4576000816000905550600101610bbc565b5090565b600080fd5b600080fd5b600073ffffffffffffffffffffffffffffffffffffffff82169050919050565b6000610c0d82610be2565b9050919050565b610c1d81610c02565b8114610c2857600080fd5b50565b600081359050610c3a81610c14565b92915050565b600060208284031215610c5657610c55610bd8565b5b6000610c6484828501610c2b565b91505092915050565b600080fd5b600080fd5b600080fd5b60008083601f840112610c9257610c91610c6d565b5b8235905067ffffffffffffffff811115610caf57610cae610c72565b5b602083019150836001820283011115610ccb57610cca610c77565b5b9250929050565b6000819050919050565b610ce581610cd2565b8114610cf057600080fd5b50565b600081359050610d0281610cdc565b92915050565b600080600060408486031215610d2157610d20610bd8565b5b600084013567ffffffffffffffff811115610d3f57610d3e610bdd565b5b610d4b86828701610c7c565b93509350506020610d5e86828701610cf3565b9150509250925092565b600081519050919050565b600082825260208201905092915050565b60005b83811015610da2578082015181840152602081019050610d87565b60008484015250505050565b6000601f19601f8301169050919050565b6000610dca82610d68565b610dd48185610d73565b9350610de4818560208601610d84565b610ded81610dae565b840191505092915050565b610e0181610cd2565b82525050565b60008115159050919050565b610e1c81610e07565b82525050565b600060e0830160008301518482036000860152610e3f8282610dbf565b9150506020830151610e546020860182610df8565b506040830151610e676040860182610df8565b506060830151610e7a6060860182610df8565b506080830151610e8d6080860182610df8565b5060a0830151610ea060a0860182610e13565b5060c0830151610eb360c0860182610e13565b508091505092915050565b60006020820190508181036000830152610ed88184610e22565b905092915050565b610ee981610c02565b82525050565b6000602082019050610f046000830184610ee0565b92915050565b600060ff82169050919050565b610f2081610f0a565b8114610f2b57600080fd5b50565b600081359050610f3d81610f17565b92915050565b600060208284031215610f5957610f58610bd8565b5b6000610f6784828501610f2e565b91505092915050565b600060208284031215610f8657610f85610bd8565b5b6000610f9484828501610cf3565b91505092915050565b610fa681610e07565b82525050565b6000602082019050610fc16000830184610f9d565b92915050565b7f4e487b7100000000000000000000000000000000000000000000000000000000600052604160045260246000fd5b7f4e487b7100000000000000000000000000000000000000000000000000000000600052602260045260246000fd5b6000600282049050600182168061103d57607f821691505b6020821081036110505761104f610ff6565b5b50919050565b60008190508160005260206000209050919050565b60006020601f8301049050919050565b600082821b905092915050565b6000600883026110b87fffffffffffffffffffffffffffffffffffffffffffffffffffffffffffffffff8261107b565b6110c2868361107b565b95508019841693508086168417925050509392505050565b6000819050919050565b60006110ff6110fa6110f584610cd2565b6110da565b610cd2565b9050919050565b6000819050919050565b611119836110e4565b61112d61112582611106565b848454611088565b825550505050565b600090565b611142611135565b61114d818484611110565b505050565b5b818110156111715761116660008261113a565b600181019050611153565b5050565b601f8211156111b65761118781611056565b6111908461106b565b8101602085101561119f578190505b6111b36111ab8561106b565b830182611152565b50505b505050565b600082821c905092915050565b60006111d9600019846008026111bb565b1980831691505092915050565b60006111f283836111c8565b9150826002028217905092915050565b61120b82610d68565b67ffffffffffffffff81111561122457611223610fc7565b5b61122e8254611025565b611239828285611175565b600060209050601f83116001811461126c576000841561125a578287015190505b61126485826111e6565b8655506112cc565b601f19841661127a86611056565b60005b828110156112a25784890151825560018201915060208501945060208101905061127d565b868310156112bf57848901516112bb601f8916826111c8565b8355505b6001600288020188555050505b505050505050565b600082825260208201905092915050565b7f4164647265737320686173206e6f7420766f746564207965742e000000000000600082015250565b600061131b601a836112d4565b9150611326826112e5565b602082019050919050565b6000602082019050818103600083015261134a8161130e565b9050919050565b7f4e487b7100000000000000000000000000000000000000000000000000000000600052601160045260246000fd5b600061138b82610cd2565b915061139683610cd2565b92508282019050808211156113ae576113ad611351565b5b92915050565b60006113bf82610cd2565b91506113ca83610cd2565b92508282039050818111156113e2576113e1611351565b5b92915050565b7f4e487b7100000000000000000000000000000000000000000000000000000000600052603260045260246000fd5b600061142282610cd2565b91507fffffffffffffffffffffffffffffffffffffffffffffffffffffffffffffffff820361145457611453611351565b5b600182019050919050565b7f4e487b7100000000000000000000000000000000000000000000000000000000600052601260045260246000fd5b600061149982610cd2565b91506114a483610cd2565b9250826114b4576114b361145f565b5b828206905092915050565b60006114ca82610cd2565b91506114d583610cd2565b9250826114e5576114e461145f565b5b82820490509291505056fea2646970667358221220a0551c8a5ad582784a98999e91feac0ecd48ccc79edd06a11a2db75ca9cbe22b64736f6c63430008120033",
					"opcodes": "PUSH1 0x80 PUSH1 0x40 MSTORE CALLVALUE DUP1 ISZERO PUSH2 0x10 JUMPI PUSH1 0x0 DUP1 REVERT JUMPDEST POP CALLER PUSH1 0x0 DUP1 PUSH2 0x100 EXP DUP2 SLOAD DUP2 PUSH20 0xFFFFFFFFFFFFFFFFFFFFFFFFFFFFFFFFFFFFFFFF MUL NOT AND SWAP1 DUP4 PUSH20 0xFFFFFFFFFFFFFFFFFFFFFFFFFFFFFFFFFFFFFFFF AND MUL OR SWAP1 SSTORE POP PUSH1 0x4 CALLER SWAP1 DUP1 PUSH1 0x1 DUP2 SLOAD ADD DUP1 DUP3 SSTORE DUP1 SWAP2 POP POP PUSH1 0x1 SWAP1 SUB SWAP1 PUSH1 0x0 MSTORE PUSH1 0x20 PUSH1 0x0 KECCAK256 ADD PUSH1 0x0 SWAP1 SWAP2 SWAP1 SWAP2 SWAP1 SWAP2 PUSH2 0x100 EXP DUP2 SLOAD DUP2 PUSH20 0xFFFFFFFFFFFFFFFFFFFFFFFFFFFFFFFFFFFFFFFF MUL NOT AND SWAP1 DUP4 PUSH20 0xFFFFFFFFFFFFFFFFFFFFFFFFFFFFFFFFFFFFFFFF AND MUL OR SWAP1 SSTORE POP PUSH2 0x1526 DUP1 PUSH2 0xC3 PUSH1 0x0 CODECOPY PUSH1 0x0 RETURN INVALID PUSH1 0x80 PUSH1 0x40 MSTORE CALLVALUE DUP1 ISZERO PUSH2 0x10 JUMPI PUSH1 0x0 DUP1 REVERT JUMPDEST POP PUSH1 0x4 CALLDATASIZE LT PUSH2 0x88 JUMPI PUSH1 0x0 CALLDATALOAD PUSH1 0xE0 SHR DUP1 PUSH4 0x893D20E8 GT PUSH2 0x5B JUMPI DUP1 PUSH4 0x893D20E8 EQ PUSH2 0xED JUMPI DUP1 PUSH4 0xB3F98ADC EQ PUSH2 0x10B JUMPI DUP1 PUSH4 0xC7F758A8 EQ PUSH2 0x127 JUMPI DUP1 PUSH4 0xCBFF75CB EQ PUSH2 0x157 JUMPI PUSH2 0x88 JUMP JUMPDEST DUP1 PUSH4 0x13AF4035 EQ PUSH2 0x8D JUMPI DUP1 PUSH4 0x32149FB5 EQ PUSH2 0xA9 JUMPI DUP1 PUSH4 0x46F81A87 EQ PUSH2 0xB3 JUMPI DUP1 PUSH4 0x581EFA7A EQ PUSH2 0xCF JUMPI JUMPDEST PUSH1 0x0 DUP1 REVERT JUMPDEST PUSH2 0xA7 PUSH1 0x4 DUP1 CALLDATASIZE SUB DUP2 ADD SWAP1 PUSH2 0xA2 SWAP2 SWAP1 PUSH2 0xC40 JUMP JUMPDEST PUSH2 0x187 JUMP JUMPDEST STOP JUMPDEST PUSH2 0xB1 PUSH2 0x1CA JUMP JUMPDEST STOP JUMPDEST PUSH2 0xCD PUSH1 0x4 DUP1 CALLDATASIZE SUB DUP2 ADD SWAP1 PUSH2 0xC8 SWAP2 SWAP1 PUSH2 0xD08 JUMP JUMPDEST PUSH2 0x299 JUMP JUMPDEST STOP JUMPDEST PUSH2 0xD7 PUSH2 0x41D JUMP JUMPDEST PUSH1 0x40 MLOAD PUSH2 0xE4 SWAP2 SWAP1 PUSH2 0xEBE JUMP JUMPDEST PUSH1 0x40 MLOAD DUP1 SWAP2 SUB SWAP1 RETURN JUMPDEST PUSH2 0xF5 PUSH2 0x541 JUMP JUMPDEST PUSH1 0x40 MLOAD PUSH2 0x102 SWAP2 SWAP1 PUSH2 0xEEF JUMP JUMPDEST PUSH1 0x40 MLOAD DUP1 SWAP2 SUB SWAP1 RETURN JUMPDEST PUSH2 0x125 PUSH1 0x4 DUP1 CALLDATASIZE SUB DUP2 ADD SWAP1 PUSH2 0x120 SWAP2 SWAP1 PUSH2 0xF43 JUMP JUMPDEST PUSH2 0x56A JUMP JUMPDEST STOP JUMPDEST PUSH2 0x141 PUSH1 0x4 DUP1 CALLDATASIZE SUB DUP2 ADD SWAP1 PUSH2 0x13C SWAP2 SWAP1 PUSH2 0xF70 JUMP JUMPDEST PUSH2 0x859 JUMP JUMPDEST PUSH1 0x40 MLOAD PUSH2 0x14E SWAP2 SWAP1 PUSH2 0xEBE JUMP JUMPDEST PUSH1 0x40 MLOAD DUP1 SWAP2 SUB SWAP1 RETURN JUMPDEST PUSH2 0x171 PUSH1 0x4 DUP1 CALLDATASIZE SUB DUP2 ADD SWAP1 PUSH2 0x16C SWAP2 SWAP1 PUSH2 0xC40 JUMP JUMPDEST PUSH2 0x976 JUMP JUMPDEST PUSH1 0x40 MLOAD PUSH2 0x17E SWAP2 SWAP1 PUSH2 0xFAC JUMP JUMPDEST PUSH1 0x40 MLOAD DUP1 SWAP2 SUB SWAP1 RETURN JUMPDEST DUP1 PUSH1 0x0 DUP1 PUSH2 0x100 EXP DUP2 SLOAD DUP2 PUSH20 0xFFFFFFFFFFFFFFFFFFFFFFFFFFFFFFFFFFFFFFFF MUL NOT AND SWAP1 DUP4 PUSH20 0xFFFFFFFFFFFFFFFFFFFFFFFFFFFFFFFFFFFFFFFF AND MUL OR SWAP1 SSTORE POP POP JUMP JUMPDEST PUSH1 0x0 DUP1 SLOAD SWAP1 PUSH2 0x100 EXP SWAP1 DIV PUSH20 0xFFFFFFFFFFFFFFFFFFFFFFFFFFFFFFFFFFFFFFFF AND PUSH20 0xFFFFFFFFFFFFFFFFFFFFFFFFFFFFFFFFFFFFFFFF AND CALLER PUSH20 0xFFFFFFFFFFFFFFFFFFFFFFFFFFFFFFFFFFFFFFFF AND EQ PUSH2 0x222 JUMPI PUSH1 0x0 DUP1 REVERT JUMPDEST PUSH1 0x1 ISZERO ISZERO PUSH1 0x3 PUSH1 0x0 PUSH2 0x234 PUSH1 0x1 PUSH2 0xA24 JUMP JUMPDEST DUP2 MSTORE PUSH1 0x20 ADD SWAP1 DUP2 MSTORE PUSH1 0x20 ADD PUSH1 0x0 KECCAK256 PUSH1 0x5 ADD PUSH1 0x1 SWAP1 SLOAD SWAP1 PUSH2 0x100 EXP SWAP1 DIV PUSH1 0xFF AND ISZERO ISZERO EQ PUSH2 0x25F JUMPI PUSH1 0x0 DUP1 REVERT JUMPDEST PUSH1 0x0 PUSH1 0x3 PUSH1 0x0 PUSH2 0x26F PUSH1 0x1 PUSH2 0xA24 JUMP JUMPDEST DUP2 MSTORE PUSH1 0x20 ADD SWAP1 DUP2 MSTORE PUSH1 0x20 ADD PUSH1 0x0 KECCAK256 PUSH1 0x5 ADD PUSH1 0x1 PUSH2 0x100 EXP DUP2 SLOAD DUP2 PUSH1 0xFF MUL NOT AND SWAP1 DUP4 ISZERO ISZERO MUL OR SWAP1 SSTORE POP JUMP JUMPDEST PUSH1 0x0 DUP1 SLOAD SWAP1 PUSH2 0x100 EXP SWAP1 DIV PUSH20 0xFFFFFFFFFFFFFFFFFFFFFFFFFFFFFFFFFFFFFFFF AND PUSH20 0xFFFFFFFFFFFFFFFFFFFFFFFFFFFFFFFFFFFFFFFF AND CALLER PUSH20 0xFFFFFFFFFFFFFFFFFFFFFFFFFFFFFFFFFFFFFFFF AND EQ PUSH2 0x2F1 JUMPI PUSH1 0x0 DUP1 REVERT JUMPDEST PUSH2 0x2FB PUSH1 0x1 PUSH2 0xA32 JUMP JUMPDEST PUSH1 0x40 MLOAD DUP1 PUSH1 0xE0 ADD PUSH1 0x40 MSTORE DUP1 DUP5 DUP5 DUP1 DUP1 PUSH1 0x1F ADD PUSH1 0x20 DUP1 SWAP2 DIV MUL PUSH1 0x20 ADD PUSH1 0x40 MLOAD SWAP1 DUP2 ADD PUSH1 0x40 MSTORE DUP1 SWAP4 SWAP3 SWAP2 SWAP1 DUP2 DUP2 MSTORE PUSH1 0x20 ADD DUP4 DUP4 DUP1 DUP3 DUP5 CALLDATACOPY PUSH1 0x0 DUP2 DUP5 ADD MSTORE PUSH1 0x1F NOT PUSH1 0x1F DUP3 ADD AND SWAP1 POP DUP1 DUP4 ADD SWAP3 POP POP POP POP POP POP POP DUP2 MSTORE PUSH1 0x20 ADD PUSH1 0x0 DUP2 MSTORE PUSH1 0x20 ADD PUSH1 0x0 DUP2 MSTORE PUSH1 0x20 ADD PUSH1 0x0 DUP2 MSTORE PUSH1 0x20 ADD DUP3 DUP2 MSTORE PUSH1 0x20 ADD PUSH1 0x0 ISZERO ISZERO DUP2 MSTORE PUSH1 0x20 ADD PUSH1 0x1 ISZERO ISZERO DUP2 MSTORE POP PUSH1 0x3 PUSH1 0x0 PUSH2 0x389 PUSH1 0x1 PUSH2 0xA24 JUMP JUMPDEST DUP2 MSTORE PUSH1 0x20 ADD SWAP1 DUP2 MSTORE PUSH1 0x20 ADD PUSH1 0x0 KECCAK256 PUSH1 0x0 DUP3 ADD MLOAD DUP2 PUSH1 0x0 ADD SWAP1 DUP2 PUSH2 0x3AC SWAP2 SWAP1 PUSH2 0x1202 JUMP JUMPDEST POP PUSH1 0x20 DUP3 ADD MLOAD DUP2 PUSH1 0x1 ADD SSTORE PUSH1 0x40 DUP3 ADD MLOAD DUP2 PUSH1 0x2 ADD SSTORE PUSH1 0x60 DUP3 ADD MLOAD DUP2 PUSH1 0x3 ADD SSTORE PUSH1 0x80 DUP3 ADD MLOAD DUP2 PUSH1 0x4 ADD SSTORE PUSH1 0xA0 DUP3 ADD MLOAD DUP2 PUSH1 0x5 ADD PUSH1 0x0 PUSH2 0x100 EXP DUP2 SLOAD DUP2 PUSH1 0xFF MUL NOT AND SWAP1 DUP4 ISZERO ISZERO MUL OR SWAP1 SSTORE POP PUSH1 0xC0 DUP3 ADD MLOAD DUP2 PUSH1 0x5 ADD PUSH1 0x1 PUSH2 0x100 EXP DUP2 SLOAD DUP2 PUSH1 0xFF MUL NOT AND SWAP1 DUP4 ISZERO ISZERO MUL OR SWAP1 SSTORE POP SWAP1 POP POP POP POP POP JUMP JUMPDEST PUSH2 0x425 PUSH2 0xAF0 JUMP JUMPDEST PUSH1 0x3 PUSH1 0x0 PUSH2 0x433 PUSH1 0x1 PUSH2 0xA24 JUMP JUMPDEST DUP2 MSTORE PUSH1 0x20 ADD SWAP1 DUP2 MSTORE PUSH1 0x20 ADD PUSH1 0x0 KECCAK256 PUSH1 0x40 MLOAD DUP1 PUSH1 0xE0 ADD PUSH1 0x40 MSTORE SWAP1 DUP2 PUSH1 0x0 DUP3 ADD DUP1 SLOAD PUSH2 0x45C SWAP1 PUSH2 0x1025 JUMP JUMPDEST DUP1 PUSH1 0x1F ADD PUSH1 0x20 DUP1 SWAP2 DIV MUL PUSH1 0x20 ADD PUSH1 0x40 MLOAD SWAP1 DUP2 ADD PUSH1 0x40 MSTORE DUP1 SWAP3 SWAP2 SWAP1 DUP2 DUP2 MSTORE PUSH1 0x20 ADD DUP3 DUP1 SLOAD PUSH2 0x488 SWAP1 PUSH2 0x1025 JUMP JUMPDEST DUP1 ISZERO PUSH2 0x4D5 JUMPI DUP1 PUSH1 0x1F LT PUSH2 0x4AA JUMPI PUSH2 0x100 DUP1 DUP4 SLOAD DIV MUL DUP4 MSTORE SWAP2 PUSH1 0x20 ADD SWAP2 PUSH2 0x4D5 JUMP JUMPDEST DUP3 ADD SWAP2 SWAP1 PUSH1 0x0 MSTORE PUSH1 0x20 PUSH1 0x0 KECCAK256 SWAP1 JUMPDEST DUP2 SLOAD DUP2 MSTORE SWAP1 PUSH1 0x1 ADD SWAP1 PUSH1 0x20 ADD DUP1 DUP4 GT PUSH2 0x4B8 JUMPI DUP3 SWAP1 SUB PUSH1 0x1F AND DUP3 ADD SWAP2 JUMPDEST POP POP POP POP POP DUP2 MSTORE PUSH1 0x20 ADD PUSH1 0x1 DUP3 ADD SLOAD DUP2 MSTORE PUSH1 0x20 ADD PUSH1 0x2 DUP3 ADD SLOAD DUP2 MSTORE PUSH1 0x20 ADD PUSH1 0x3 DUP3 ADD SLOAD DUP2 MSTORE PUSH1 0x20 ADD PUSH1 0x4 DUP3 ADD SLOAD DUP2 MSTORE PUSH1 0x20 ADD PUSH1 0x5 DUP3 ADD PUSH1 0x0 SWAP1 SLOAD SWAP1 PUSH2 0x100 EXP SWAP1 DIV PUSH1 0xFF AND ISZERO ISZERO ISZERO ISZERO DUP2 MSTORE PUSH1 0x20 ADD PUSH1 0x5 DUP3 ADD PUSH1 0x1 SWAP1 SLOAD SWAP1 PUSH2 0x100 EXP SWAP1 DIV PUSH1 0xFF AND ISZERO ISZERO ISZERO ISZERO DUP2 MSTORE POP POP SWAP1 POP SWAP1 JUMP JUMPDEST PUSH1 0x0 DUP1 PUSH1 0x0 SWAP1 SLOAD SWAP1 PUSH2 0x100 EXP SWAP1 DIV PUSH20 0xFFFFFFFFFFFFFFFFFFFFFFFFFFFFFFFFFFFFFFFF AND SWAP1 POP SWAP1 JUMP JUMPDEST PUSH1 0x1 ISZERO ISZERO PUSH1 0x3 PUSH1 0x0 PUSH2 0x57C PUSH1 0x1 PUSH2 0xA24 JUMP JUMPDEST DUP2 MSTORE PUSH1 0x20 ADD SWAP1 DUP2 MSTORE PUSH1 0x20 ADD PUSH1 0x0 KECCAK256 PUSH1 0x5 ADD PUSH1 0x1 SWAP1 SLOAD SWAP1 PUSH2 0x100 EXP SWAP1 DIV PUSH1 0xFF AND ISZERO ISZERO EQ PUSH2 0x5A7 JUMPI PUSH1 0x0 DUP1 REVERT JUMPDEST CALLER PUSH2 0x5B1 DUP2 PUSH2 0x976 JUMP JUMPDEST ISZERO PUSH2 0x5F1 JUMPI PUSH1 0x40 MLOAD PUSH32 0x8C379A000000000000000000000000000000000000000000000000000000000 DUP2 MSTORE PUSH1 0x4 ADD PUSH2 0x5E8 SWAP1 PUSH2 0x1331 JUMP JUMPDEST PUSH1 0x40 MLOAD DUP1 SWAP2 SUB SWAP1 REVERT JUMPDEST PUSH1 0x0 PUSH1 0x3 PUSH1 0x0 PUSH2 0x601 PUSH1 0x1 PUSH2 0xA24 JUMP JUMPDEST DUP2 MSTORE PUSH1 0x20 ADD SWAP1 DUP2 MSTORE PUSH1 0x20 ADD PUSH1 0x0 KECCAK256 SWAP1 POP PUSH1 0x0 DUP2 PUSH1 0x3 ADD SLOAD DUP3 PUSH1 0x2 ADD SLOAD DUP4 PUSH1 0x1 ADD SLOAD PUSH2 0x62C SWAP2 SWAP1 PUSH2 0x1380 JUMP JUMPDEST PUSH2 0x636 SWAP2 SWAP1 PUSH2 0x1380 JUMP JUMPDEST SWAP1 POP PUSH1 0x4 CALLER SWAP1 DUP1 PUSH1 0x1 DUP2 SLOAD ADD DUP1 DUP3 SSTORE DUP1 SWAP2 POP POP PUSH1 0x1 SWAP1 SUB SWAP1 PUSH1 0x0 MSTORE PUSH1 0x20 PUSH1 0x0 KECCAK256 ADD PUSH1 0x0 SWAP1 SWAP2 SWAP1 SWAP2 SWAP1 SWAP2 PUSH2 0x100 EXP DUP2 SLOAD DUP2 PUSH20 0xFFFFFFFFFFFFFFFFFFFFFFFFFFFFFFFFFFFFFFFF MUL NOT AND SWAP1 DUP4 PUSH20 0xFFFFFFFFFFFFFFFFFFFFFFFFFFFFFFFFFFFFFFFF AND MUL OR SWAP1 SSTORE POP PUSH1 0x1 DUP5 PUSH1 0xFF AND SUB PUSH2 0x6EA JUMPI PUSH1 0x1 DUP3 PUSH1 0x1 ADD PUSH1 0x0 DUP3 DUP3 SLOAD PUSH2 0x6BB SWAP2 SWAP1 PUSH2 0x1380 JUMP JUMPDEST SWAP3 POP POP DUP2 SWAP1 SSTORE POP PUSH2 0x6CA PUSH2 0xA51 JUMP JUMPDEST DUP3 PUSH1 0x5 ADD PUSH1 0x0 PUSH2 0x100 EXP DUP2 SLOAD DUP2 PUSH1 0xFF MUL NOT AND SWAP1 DUP4 ISZERO ISZERO MUL OR SWAP1 SSTORE POP PUSH2 0x786 JUMP JUMPDEST PUSH1 0x2 DUP5 PUSH1 0xFF AND SUB PUSH2 0x739 JUMPI PUSH1 0x1 DUP3 PUSH1 0x2 ADD PUSH1 0x0 DUP3 DUP3 SLOAD PUSH2 0x70A SWAP2 SWAP1 PUSH2 0x1380 JUMP JUMPDEST SWAP3 POP POP DUP2 SWAP1 SSTORE POP PUSH2 0x719 PUSH2 0xA51 JUMP JUMPDEST DUP3 PUSH1 0x5 ADD PUSH1 0x0 PUSH2 0x100 EXP DUP2 SLOAD DUP2 PUSH1 0xFF MUL NOT AND SWAP1 DUP4 ISZERO ISZERO MUL OR SWAP1 SSTORE POP PUSH2 0x785 JUMP JUMPDEST PUSH1 0x3 DUP5 PUSH1 0xFF AND SUB PUSH2 0x784 JUMPI PUSH1 0x1 DUP3 PUSH1 0x3 ADD PUSH1 0x0 DUP3 DUP3 SLOAD PUSH2 0x759 SWAP2 SWAP1 PUSH2 0x1380 JUMP JUMPDEST SWAP3 POP POP DUP2 SWAP1 SSTORE POP PUSH2 0x768 PUSH2 0xA51 JUMP JUMPDEST DUP3 PUSH1 0x5 ADD PUSH1 0x0 PUSH2 0x100 EXP DUP2 SLOAD DUP2 PUSH1 0xFF MUL NOT AND SWAP1 DUP4 ISZERO ISZERO MUL OR SWAP1 SSTORE POP JUMPDEST JUMPDEST JUMPDEST PUSH1 0x1 DUP2 DUP4 PUSH1 0x4 ADD SLOAD PUSH2 0x798 SWAP2 SWAP1 PUSH2 0x13B4 JUMP JUMPDEST EQ DUP1 ISZERO PUSH2 0x7C4 JUMPI POP PUSH1 0x1 DUP5 PUSH1 0xFF AND EQ DUP1 PUSH2 0x7B5 JUMPI POP PUSH1 0x2 DUP5 PUSH1 0xFF AND EQ JUMPDEST DUP1 PUSH2 0x7C3 JUMPI POP PUSH1 0x0 DUP5 PUSH1 0xFF AND EQ JUMPDEST JUMPDEST ISZERO PUSH2 0x853 JUMPI PUSH1 0x0 DUP3 PUSH1 0x5 ADD PUSH1 0x1 PUSH2 0x100 EXP DUP2 SLOAD DUP2 PUSH1 0xFF MUL NOT AND SWAP1 DUP4 ISZERO ISZERO MUL OR SWAP1 SSTORE POP PUSH1 0x40 MLOAD DUP1 PUSH1 0x20 ADD PUSH1 0x40 MSTORE DUP1 PUSH1 0x0 DUP1 SLOAD SWAP1 PUSH2 0x100 EXP SWAP1 DIV PUSH20 0xFFFFFFFFFFFFFFFFFFFFFFFFFFFFFFFFFFFFFFFF AND PUSH20 0xFFFFFFFFFFFFFFFFFFFFFFFFFFFFFFFFFFFFFFFF AND PUSH20 0xFFFFFFFFFFFFFFFFFFFFFFFFFFFFFFFFFFFFFFFF AND DUP2 MSTORE POP PUSH1 0x4 SWAP1 PUSH1 0x1 PUSH2 0x851 SWAP3 SWAP2 SWAP1 PUSH2 0xB31 JUMP JUMPDEST POP JUMPDEST POP POP POP POP JUMP JUMPDEST PUSH2 0x861 PUSH2 0xAF0 JUMP JUMPDEST PUSH1 0x3 PUSH1 0x0 DUP4 DUP2 MSTORE PUSH1 0x20 ADD SWAP1 DUP2 MSTORE PUSH1 0x20 ADD PUSH1 0x0 KECCAK256 PUSH1 0x40 MLOAD DUP1 PUSH1 0xE0 ADD PUSH1 0x40 MSTORE SWAP1 DUP2 PUSH1 0x0 DUP3 ADD DUP1 SLOAD PUSH2 0x88F SWAP1 PUSH2 0x1025 JUMP JUMPDEST DUP1 PUSH1 0x1F ADD PUSH1 0x20 DUP1 SWAP2 DIV MUL PUSH1 0x20 ADD PUSH1 0x40 MLOAD SWAP1 DUP2 ADD PUSH1 0x40 MSTORE DUP1 SWAP3 SWAP2 SWAP1 DUP2 DUP2 MSTORE PUSH1 0x20 ADD DUP3 DUP1 SLOAD PUSH2 0x8BB SWAP1 PUSH2 0x1025 JUMP JUMPDEST DUP1 ISZERO PUSH2 0x908 JUMPI DUP1 PUSH1 0x1F LT PUSH2 0x8DD JUMPI PUSH2 0x100 DUP1 DUP4 SLOAD DIV MUL DUP4 MSTORE SWAP2 PUSH1 0x20 ADD SWAP2 PUSH2 0x908 JUMP JUMPDEST DUP3 ADD SWAP2 SWAP1 PUSH1 0x0 MSTORE PUSH1 0x20 PUSH1 0x0 KECCAK256 SWAP1 JUMPDEST DUP2 SLOAD DUP2 MSTORE SWAP1 PUSH1 0x1 ADD SWAP1 PUSH1 0x20 ADD DUP1 DUP4 GT PUSH2 0x8EB JUMPI DUP3 SWAP1 SUB PUSH1 0x1F AND DUP3 ADD SWAP2 JUMPDEST POP POP POP POP POP DUP2 MSTORE PUSH1 0x20 ADD PUSH1 0x1 DUP3 ADD SLOAD DUP2 MSTORE PUSH1 0x20 ADD PUSH1 0x2 DUP3 ADD SLOAD DUP2 MSTORE PUSH1 0x20 ADD PUSH1 0x3 DUP3 ADD SLOAD DUP2 MSTORE PUSH1 0x20 ADD PUSH1 0x4 DUP3 ADD SLOAD DUP2 MSTORE PUSH1 0x20 ADD PUSH1 0x5 DUP3 ADD PUSH1 0x0 SWAP1 SLOAD SWAP1 PUSH2 0x100 EXP SWAP1 DIV PUSH1 0xFF AND ISZERO ISZERO ISZERO ISZERO DUP2 MSTORE PUSH1 0x20 ADD PUSH1 0x5 DUP3 ADD PUSH1 0x1 SWAP1 SLOAD SWAP1 PUSH2 0x100 EXP SWAP1 DIV PUSH1 0xFF AND ISZERO ISZERO ISZERO ISZERO DUP2 MSTORE POP POP SWAP1 POP SWAP2 SWAP1 POP JUMP JUMPDEST PUSH1 0x0 DUP1 PUSH1 0x0 SWAP1 POP JUMPDEST PUSH1 0x4 DUP1 SLOAD SWAP1 POP DUP2 LT ISZERO PUSH2 0xA19 JUMPI DUP3 PUSH20 0xFFFFFFFFFFFFFFFFFFFFFFFFFFFFFFFFFFFFFFFF AND PUSH1 0x4 DUP3 DUP2 SLOAD DUP2 LT PUSH2 0x9B6 JUMPI PUSH2 0x9B5 PUSH2 0x13E8 JUMP JUMPDEST JUMPDEST SWAP1 PUSH1 0x0 MSTORE PUSH1 0x20 PUSH1 0x0 KECCAK256 ADD PUSH1 0x0 SWAP1 SLOAD SWAP1 PUSH2 0x100 EXP SWAP1 DIV PUSH20 0xFFFFFFFFFFFFFFFFFFFFFFFFFFFFFFFFFFFFFFFF AND PUSH20 0xFFFFFFFFFFFFFFFFFFFFFFFFFFFFFFFFFFFFFFFF AND SUB PUSH2 0xA06 JUMPI PUSH1 0x1 SWAP2 POP POP PUSH2 0xA1F JUMP JUMPDEST DUP1 DUP1 PUSH2 0xA11 SWAP1 PUSH2 0x1417 JUMP JUMPDEST SWAP2 POP POP PUSH2 0x97E JUMP JUMPDEST POP PUSH1 0x0 SWAP1 POP JUMPDEST SWAP2 SWAP1 POP JUMP JUMPDEST PUSH1 0x0 DUP2 PUSH1 0x0 ADD SLOAD SWAP1 POP SWAP2 SWAP1 POP JUMP JUMPDEST PUSH1 0x1 DUP2 PUSH1 0x0 ADD PUSH1 0x0 DUP3 DUP3 SLOAD PUSH2 0xA47 SWAP2 SWAP1 PUSH2 0x1380 JUMP JUMPDEST SWAP3 POP POP DUP2 SWAP1 SSTORE POP POP JUMP JUMPDEST PUSH1 0x0 DUP1 PUSH1 0x3 PUSH1 0x0 PUSH2 0xA62 PUSH1 0x1 PUSH2 0xA24 JUMP JUMPDEST DUP2 MSTORE PUSH1 0x20 ADD SWAP1 DUP2 MSTORE PUSH1 0x20 ADD PUSH1 0x0 KECCAK256 SWAP1 POP PUSH1 0x0 DUP2 PUSH1 0x1 ADD SLOAD SWAP1 POP PUSH1 0x0 DUP3 PUSH1 0x2 ADD SLOAD SWAP1 POP PUSH1 0x0 DUP4 PUSH1 0x3 ADD SLOAD SWAP1 POP PUSH1 0x1 PUSH1 0x2 DUP6 PUSH1 0x3 ADD SLOAD PUSH2 0xAA0 SWAP2 SWAP1 PUSH2 0x148E JUMP JUMPDEST SUB PUSH2 0xAB5 JUMPI PUSH1 0x1 DUP2 PUSH2 0xAB2 SWAP2 SWAP1 PUSH2 0x1380 JUMP JUMPDEST SWAP1 POP JUMPDEST PUSH1 0x2 DUP2 PUSH2 0xAC2 SWAP2 SWAP1 PUSH2 0x14BF JUMP JUMPDEST SWAP1 POP DUP1 DUP3 PUSH2 0xAD0 SWAP2 SWAP1 PUSH2 0x1380 JUMP JUMPDEST DUP4 GT ISZERO PUSH2 0xAE4 JUMPI PUSH1 0x1 SWAP5 POP POP POP POP POP PUSH2 0xAED JUMP JUMPDEST PUSH1 0x0 SWAP5 POP POP POP POP POP JUMPDEST SWAP1 JUMP JUMPDEST PUSH1 0x40 MLOAD DUP1 PUSH1 0xE0 ADD PUSH1 0x40 MSTORE DUP1 PUSH1 0x60 DUP2 MSTORE PUSH1 0x20 ADD PUSH1 0x0 DUP2 MSTORE PUSH1 0x20 ADD PUSH1 0x0 DUP2 MSTORE PUSH1 0x20 ADD PUSH1 0x0 DUP2 MSTORE PUSH1 0x20 ADD PUSH1 0x0 DUP2 MSTORE PUSH1 0x20 ADD PUSH1 0x0 ISZERO ISZERO DUP2 MSTORE PUSH1 0x20 ADD PUSH1 0x0 ISZERO ISZERO DUP2 MSTORE POP SWAP1 JUMP JUMPDEST DUP3 DUP1 SLOAD DUP3 DUP3 SSTORE SWAP1 PUSH1 0x0 MSTORE PUSH1 0x20 PUSH1 0x0 KECCAK256 SWAP1 DUP2 ADD SWAP3 DUP3 ISZERO PUSH2 0xBAA JUMPI SWAP2 PUSH1 0x20 MUL DUP3 ADD JUMPDEST DUP3 DUP2 GT ISZERO PUSH2 0xBA9 JUMPI DUP3 MLOAD DUP3 PUSH1 0x0 PUSH2 0x100 EXP DUP2 SLOAD DUP2 PUSH20 0xFFFFFFFFFFFFFFFFFFFFFFFFFFFFFFFFFFFFFFFF MUL NOT AND SWAP1 DUP4 PUSH20 0xFFFFFFFFFFFFFFFFFFFFFFFFFFFFFFFFFFFFFFFF AND MUL OR SWAP1 SSTORE POP SWAP2 PUSH1 0x20 ADD SWAP2 SWAP1 PUSH1 0x1 ADD SWAP1 PUSH2 0xB51 JUMP JUMPDEST JUMPDEST POP SWAP1 POP PUSH2 0xBB7 SWAP2 SWAP1 PUSH2 0xBBB JUMP JUMPDEST POP SWAP1 JUMP JUMPDEST JUMPDEST DUP1 DUP3 GT ISZERO PUSH2 0xBD4 JUMPI PUSH1 0x0 DUP2 PUSH1 0x0 SWAP1 SSTORE POP PUSH1 0x1 ADD PUSH2 0xBBC JUMP JUMPDEST POP SWAP1 JUMP JUMPDEST PUSH1 0x0 DUP1 REVERT JUMPDEST PUSH1 0x0 DUP1 REVERT JUMPDEST PUSH1 0x0 PUSH20 0xFFFFFFFFFFFFFFFFFFFFFFFFFFFFFFFFFFFFFFFF DUP3 AND SWAP1 POP SWAP2 SWAP1 POP JUMP JUMPDEST PUSH1 0x0 PUSH2 0xC0D DUP3 PUSH2 0xBE2 JUMP JUMPDEST SWAP1 POP SWAP2 SWAP1 POP JUMP JUMPDEST PUSH2 0xC1D DUP2 PUSH2 0xC02 JUMP JUMPDEST DUP2 EQ PUSH2 0xC28 JUMPI PUSH1 0x0 DUP1 REVERT JUMPDEST POP JUMP JUMPDEST PUSH1 0x0 DUP2 CALLDATALOAD SWAP1 POP PUSH2 0xC3A DUP2 PUSH2 0xC14 JUMP JUMPDEST SWAP3 SWAP2 POP POP JUMP JUMPDEST PUSH1 0x0 PUSH1 0x20 DUP3 DUP5 SUB SLT ISZERO PUSH2 0xC56 JUMPI PUSH2 0xC55 PUSH2 0xBD8 JUMP JUMPDEST JUMPDEST PUSH1 0x0 PUSH2 0xC64 DUP5 DUP3 DUP6 ADD PUSH2 0xC2B JUMP JUMPDEST SWAP2 POP POP SWAP3 SWAP2 POP POP JUMP JUMPDEST PUSH1 0x0 DUP1 REVERT JUMPDEST PUSH1 0x0 DUP1 REVERT JUMPDEST PUSH1 0x0 DUP1 REVERT JUMPDEST PUSH1 0x0 DUP1 DUP4 PUSH1 0x1F DUP5 ADD SLT PUSH2 0xC92 JUMPI PUSH2 0xC91 PUSH2 0xC6D JUMP JUMPDEST JUMPDEST DUP3 CALLDATALOAD SWAP1 POP PUSH8 0xFFFFFFFFFFFFFFFF DUP2 GT ISZERO PUSH2 0xCAF JUMPI PUSH2 0xCAE PUSH2 0xC72 JUMP JUMPDEST JUMPDEST PUSH1 0x20 DUP4 ADD SWAP2 POP DUP4 PUSH1 0x1 DUP3 MUL DUP4 ADD GT ISZERO PUSH2 0xCCB JUMPI PUSH2 0xCCA PUSH2 0xC77 JUMP JUMPDEST JUMPDEST SWAP3 POP SWAP3 SWAP1 POP JUMP JUMPDEST PUSH1 0x0 DUP2 SWAP1 POP SWAP2 SWAP1 POP JUMP JUMPDEST PUSH2 0xCE5 DUP2 PUSH2 0xCD2 JUMP JUMPDEST DUP2 EQ PUSH2 0xCF0 JUMPI PUSH1 0x0 DUP1 REVERT JUMPDEST POP JUMP JUMPDEST PUSH1 0x0 DUP2 CALLDATALOAD SWAP1 POP PUSH2 0xD02 DUP2 PUSH2 0xCDC JUMP JUMPDEST SWAP3 SWAP2 POP POP JUMP JUMPDEST PUSH1 0x0 DUP1 PUSH1 0x0 PUSH1 0x40 DUP5 DUP7 SUB SLT ISZERO PUSH2 0xD21 JUMPI PUSH2 0xD20 PUSH2 0xBD8 JUMP JUMPDEST JUMPDEST PUSH1 0x0 DUP5 ADD CALLDATALOAD PUSH8 0xFFFFFFFFFFFFFFFF DUP2 GT ISZERO PUSH2 0xD3F JUMPI PUSH2 0xD3E PUSH2 0xBDD JUMP JUMPDEST JUMPDEST PUSH2 0xD4B DUP7 DUP3 DUP8 ADD PUSH2 0xC7C JUMP JUMPDEST SWAP4 POP SWAP4 POP POP PUSH1 0x20 PUSH2 0xD5E DUP7 DUP3 DUP8 ADD PUSH2 0xCF3 JUMP JUMPDEST SWAP2 POP POP SWAP3 POP SWAP3 POP SWAP3 JUMP JUMPDEST PUSH1 0x0 DUP2 MLOAD SWAP1 POP SWAP2 SWAP1 POP JUMP JUMPDEST PUSH1 0x0 DUP3 DUP3 MSTORE PUSH1 0x20 DUP3 ADD SWAP1 POP SWAP3 SWAP2 POP POP JUMP JUMPDEST PUSH1 0x0 JUMPDEST DUP4 DUP2 LT ISZERO PUSH2 0xDA2 JUMPI DUP1 DUP3 ADD MLOAD DUP2 DUP5 ADD MSTORE PUSH1 0x20 DUP2 ADD SWAP1 POP PUSH2 0xD87 JUMP JUMPDEST PUSH1 0x0 DUP5 DUP5 ADD MSTORE POP POP POP POP JUMP JUMPDEST PUSH1 0x0 PUSH1 0x1F NOT PUSH1 0x1F DUP4 ADD AND SWAP1 POP SWAP2 SWAP1 POP JUMP JUMPDEST PUSH1 0x0 PUSH2 0xDCA DUP3 PUSH2 0xD68 JUMP JUMPDEST PUSH2 0xDD4 DUP2 DUP6 PUSH2 0xD73 JUMP JUMPDEST SWAP4 POP PUSH2 0xDE4 DUP2 DUP6 PUSH1 0x20 DUP7 ADD PUSH2 0xD84 JUMP JUMPDEST PUSH2 0xDED DUP2 PUSH2 0xDAE JUMP JUMPDEST DUP5 ADD SWAP2 POP POP SWAP3 SWAP2 POP POP JUMP JUMPDEST PUSH2 0xE01 DUP2 PUSH2 0xCD2 JUMP JUMPDEST DUP3 MSTORE POP POP JUMP JUMPDEST PUSH1 0x0 DUP2 ISZERO ISZERO SWAP1 POP SWAP2 SWAP1 POP JUMP JUMPDEST PUSH2 0xE1C DUP2 PUSH2 0xE07 JUMP JUMPDEST DUP3 MSTORE POP POP JUMP JUMPDEST PUSH1 0x0 PUSH1 0xE0 DUP4 ADD PUSH1 0x0 DUP4 ADD MLOAD DUP5 DUP3 SUB PUSH1 0x0 DUP7 ADD MSTORE PUSH2 0xE3F DUP3 DUP3 PUSH2 0xDBF JUMP JUMPDEST SWAP2 POP POP PUSH1 0x20 DUP4 ADD MLOAD PUSH2 0xE54 PUSH1 0x20 DUP7 ADD DUP3 PUSH2 0xDF8 JUMP JUMPDEST POP PUSH1 0x40 DUP4 ADD MLOAD PUSH2 0xE67 PUSH1 0x40 DUP7 ADD DUP3 PUSH2 0xDF8 JUMP JUMPDEST POP PUSH1 0x60 DUP4 ADD MLOAD PUSH2 0xE7A PUSH1 0x60 DUP7 ADD DUP3 PUSH2 0xDF8 JUMP JUMPDEST POP PUSH1 0x80 DUP4 ADD MLOAD PUSH2 0xE8D PUSH1 0x80 DUP7 ADD DUP3 PUSH2 0xDF8 JUMP JUMPDEST POP PUSH1 0xA0 DUP4 ADD MLOAD PUSH2 0xEA0 PUSH1 0xA0 DUP7 ADD DUP3 PUSH2 0xE13 JUMP JUMPDEST POP PUSH1 0xC0 DUP4 ADD MLOAD PUSH2 0xEB3 PUSH1 0xC0 DUP7 ADD DUP3 PUSH2 0xE13 JUMP JUMPDEST POP DUP1 SWAP2 POP POP SWAP3 SWAP2 POP POP JUMP JUMPDEST PUSH1 0x0 PUSH1 0x20 DUP3 ADD SWAP1 POP DUP2 DUP2 SUB PUSH1 0x0 DUP4 ADD MSTORE PUSH2 0xED8 DUP2 DUP5 PUSH2 0xE22 JUMP JUMPDEST SWAP1 POP SWAP3 SWAP2 POP POP JUMP JUMPDEST PUSH2 0xEE9 DUP2 PUSH2 0xC02 JUMP JUMPDEST DUP3 MSTORE POP POP JUMP JUMPDEST PUSH1 0x0 PUSH1 0x20 DUP3 ADD SWAP1 POP PUSH2 0xF04 PUSH1 0x0 DUP4 ADD DUP5 PUSH2 0xEE0 JUMP JUMPDEST SWAP3 SWAP2 POP POP JUMP JUMPDEST PUSH1 0x0 PUSH1 0xFF DUP3 AND SWAP1 POP SWAP2 SWAP1 POP JUMP JUMPDEST PUSH2 0xF20 DUP2 PUSH2 0xF0A JUMP JUMPDEST DUP2 EQ PUSH2 0xF2B JUMPI PUSH1 0x0 DUP1 REVERT JUMPDEST POP JUMP JUMPDEST PUSH1 0x0 DUP2 CALLDATALOAD SWAP1 POP PUSH2 0xF3D DUP2 PUSH2 0xF17 JUMP JUMPDEST SWAP3 SWAP2 POP POP JUMP JUMPDEST PUSH1 0x0 PUSH1 0x20 DUP3 DUP5 SUB SLT ISZERO PUSH2 0xF59 JUMPI PUSH2 0xF58 PUSH2 0xBD8 JUMP JUMPDEST JUMPDEST PUSH1 0x0 PUSH2 0xF67 DUP5 DUP3 DUP6 ADD PUSH2 0xF2E JUMP JUMPDEST SWAP2 POP POP SWAP3 SWAP2 POP POP JUMP JUMPDEST PUSH1 0x0 PUSH1 0x20 DUP3 DUP5 SUB SLT ISZERO PUSH2 0xF86 JUMPI PUSH2 0xF85 PUSH2 0xBD8 JUMP JUMPDEST JUMPDEST PUSH1 0x0 PUSH2 0xF94 DUP5 DUP3 DUP6 ADD PUSH2 0xCF3 JUMP JUMPDEST SWAP2 POP POP SWAP3 SWAP2 POP POP JUMP JUMPDEST PUSH2 0xFA6 DUP2 PUSH2 0xE07 JUMP JUMPDEST DUP3 MSTORE POP POP JUMP JUMPDEST PUSH1 0x0 PUSH1 0x20 DUP3 ADD SWAP1 POP PUSH2 0xFC1 PUSH1 0x0 DUP4 ADD DUP5 PUSH2 0xF9D JUMP JUMPDEST SWAP3 SWAP2 POP POP JUMP JUMPDEST PUSH32 0x4E487B7100000000000000000000000000000000000000000000000000000000 PUSH1 0x0 MSTORE PUSH1 0x41 PUSH1 0x4 MSTORE PUSH1 0x24 PUSH1 0x0 REVERT JUMPDEST PUSH32 0x4E487B7100000000000000000000000000000000000000000000000000000000 PUSH1 0x0 MSTORE PUSH1 0x22 PUSH1 0x4 MSTORE PUSH1 0x24 PUSH1 0x0 REVERT JUMPDEST PUSH1 0x0 PUSH1 0x2 DUP3 DIV SWAP1 POP PUSH1 0x1 DUP3 AND DUP1 PUSH2 0x103D JUMPI PUSH1 0x7F DUP3 AND SWAP2 POP JUMPDEST PUSH1 0x20 DUP3 LT DUP2 SUB PUSH2 0x1050 JUMPI PUSH2 0x104F PUSH2 0xFF6 JUMP JUMPDEST JUMPDEST POP SWAP2 SWAP1 POP JUMP JUMPDEST PUSH1 0x0 DUP2 SWAP1 POP DUP2 PUSH1 0x0 MSTORE PUSH1 0x20 PUSH1 0x0 KECCAK256 SWAP1 POP SWAP2 SWAP1 POP JUMP JUMPDEST PUSH1 0x0 PUSH1 0x20 PUSH1 0x1F DUP4 ADD DIV SWAP1 POP SWAP2 SWAP1 POP JUMP JUMPDEST PUSH1 0x0 DUP3 DUP3 SHL SWAP1 POP SWAP3 SWAP2 POP POP JUMP JUMPDEST PUSH1 0x0 PUSH1 0x8 DUP4 MUL PUSH2 0x10B8 PUSH32 0xFFFFFFFFFFFFFFFFFFFFFFFFFFFFFFFFFFFFFFFFFFFFFFFFFFFFFFFFFFFFFFFF DUP3 PUSH2 0x107B JUMP JUMPDEST PUSH2 0x10C2 DUP7 DUP4 PUSH2 0x107B JUMP JUMPDEST SWAP6 POP DUP1 NOT DUP5 AND SWAP4 POP DUP1 DUP7 AND DUP5 OR SWAP3 POP POP POP SWAP4 SWAP3 POP POP POP JUMP JUMPDEST PUSH1 0x0 DUP2 SWAP1 POP SWAP2 SWAP1 POP JUMP JUMPDEST PUSH1 0x0 PUSH2 0x10FF PUSH2 0x10FA PUSH2 0x10F5 DUP5 PUSH2 0xCD2 JUMP JUMPDEST PUSH2 0x10DA JUMP JUMPDEST PUSH2 0xCD2 JUMP JUMPDEST SWAP1 POP SWAP2 SWAP1 POP JUMP JUMPDEST PUSH1 0x0 DUP2 SWAP1 POP SWAP2 SWAP1 POP JUMP JUMPDEST PUSH2 0x1119 DUP4 PUSH2 0x10E4 JUMP JUMPDEST PUSH2 0x112D PUSH2 0x1125 DUP3 PUSH2 0x1106 JUMP JUMPDEST DUP5 DUP5 SLOAD PUSH2 0x1088 JUMP JUMPDEST DUP3 SSTORE POP POP POP POP JUMP JUMPDEST PUSH1 0x0 SWAP1 JUMP JUMPDEST PUSH2 0x1142 PUSH2 0x1135 JUMP JUMPDEST PUSH2 0x114D DUP2 DUP5 DUP5 PUSH2 0x1110 JUMP JUMPDEST POP POP POP JUMP JUMPDEST JUMPDEST DUP2 DUP2 LT ISZERO PUSH2 0x1171 JUMPI PUSH2 0x1166 PUSH1 0x0 DUP3 PUSH2 0x113A JUMP JUMPDEST PUSH1 0x1 DUP2 ADD SWAP1 POP PUSH2 0x1153 JUMP JUMPDEST POP POP JUMP JUMPDEST PUSH1 0x1F DUP3 GT ISZERO PUSH2 0x11B6 JUMPI PUSH2 0x1187 DUP2 PUSH2 0x1056 JUMP JUMPDEST PUSH2 0x1190 DUP5 PUSH2 0x106B JUMP JUMPDEST DUP2 ADD PUSH1 0x20 DUP6 LT ISZERO PUSH2 0x119F JUMPI DUP2 SWAP1 POP JUMPDEST PUSH2 0x11B3 PUSH2 0x11AB DUP6 PUSH2 0x106B JUMP JUMPDEST DUP4 ADD DUP3 PUSH2 0x1152 JUMP JUMPDEST POP POP JUMPDEST POP POP POP JUMP JUMPDEST PUSH1 0x0 DUP3 DUP3 SHR SWAP1 POP SWAP3 SWAP2 POP POP JUMP JUMPDEST PUSH1 0x0 PUSH2 0x11D9 PUSH1 0x0 NOT DUP5 PUSH1 0x8 MUL PUSH2 0x11BB JUMP JUMPDEST NOT DUP1 DUP4 AND SWAP2 POP POP SWAP3 SWAP2 POP POP JUMP JUMPDEST PUSH1 0x0 PUSH2 0x11F2 DUP4 DUP4 PUSH2 0x11C8 JUMP JUMPDEST SWAP2 POP DUP3 PUSH1 0x2 MUL DUP3 OR SWAP1 POP SWAP3 SWAP2 POP POP JUMP JUMPDEST PUSH2 0x120B DUP3 PUSH2 0xD68 JUMP JUMPDEST PUSH8 0xFFFFFFFFFFFFFFFF DUP2 GT ISZERO PUSH2 0x1224 JUMPI PUSH2 0x1223 PUSH2 0xFC7 JUMP JUMPDEST JUMPDEST PUSH2 0x122E DUP3 SLOAD PUSH2 0x1025 JUMP JUMPDEST PUSH2 0x1239 DUP3 DUP3 DUP6 PUSH2 0x1175 JUMP JUMPDEST PUSH1 0x0 PUSH1 0x20 SWAP1 POP PUSH1 0x1F DUP4 GT PUSH1 0x1 DUP2 EQ PUSH2 0x126C JUMPI PUSH1 0x0 DUP5 ISZERO PUSH2 0x125A JUMPI DUP3 DUP8 ADD MLOAD SWAP1 POP JUMPDEST PUSH2 0x1264 DUP6 DUP3 PUSH2 0x11E6 JUMP JUMPDEST DUP7 SSTORE POP PUSH2 0x12CC JUMP JUMPDEST PUSH1 0x1F NOT DUP5 AND PUSH2 0x127A DUP7 PUSH2 0x1056 JUMP JUMPDEST PUSH1 0x0 JUMPDEST DUP3 DUP2 LT ISZERO PUSH2 0x12A2 JUMPI DUP5 DUP10 ADD MLOAD DUP3 SSTORE PUSH1 0x1 DUP3 ADD SWAP2 POP PUSH1 0x20 DUP6 ADD SWAP5 POP PUSH1 0x20 DUP2 ADD SWAP1 POP PUSH2 0x127D JUMP JUMPDEST DUP7 DUP4 LT ISZERO PUSH2 0x12BF JUMPI DUP5 DUP10 ADD MLOAD PUSH2 0x12BB PUSH1 0x1F DUP10 AND DUP3 PUSH2 0x11C8 JUMP JUMPDEST DUP4 SSTORE POP JUMPDEST PUSH1 0x1 PUSH1 0x2 DUP9 MUL ADD DUP9 SSTORE POP POP POP JUMPDEST POP POP POP POP POP POP JUMP JUMPDEST PUSH1 0x0 DUP3 DUP3 MSTORE PUSH1 0x20 DUP3 ADD SWAP1 POP SWAP3 SWAP2 POP POP JUMP JUMPDEST PUSH32 0x4164647265737320686173206E6F7420766F746564207965742E000000000000 PUSH1 0x0 DUP3 ADD MSTORE POP JUMP JUMPDEST PUSH1 0x0 PUSH2 0x131B PUSH1 0x1A DUP4 PUSH2 0x12D4 JUMP JUMPDEST SWAP2 POP PUSH2 0x1326 DUP3 PUSH2 0x12E5 JUMP JUMPDEST PUSH1 0x20 DUP3 ADD SWAP1 POP SWAP2 SWAP1 POP JUMP JUMPDEST PUSH1 0x0 PUSH1 0x20 DUP3 ADD SWAP1 POP DUP2 DUP2 SUB PUSH1 0x0 DUP4 ADD MSTORE PUSH2 0x134A DUP2 PUSH2 0x130E JUMP JUMPDEST SWAP1 POP SWAP2 SWAP1 POP JUMP JUMPDEST PUSH32 0x4E487B7100000000000000000000000000000000000000000000000000000000 PUSH1 0x0 MSTORE PUSH1 0x11 PUSH1 0x4 MSTORE PUSH1 0x24 PUSH1 0x0 REVERT JUMPDEST PUSH1 0x0 PUSH2 0x138B DUP3 PUSH2 0xCD2 JUMP JUMPDEST SWAP2 POP PUSH2 0x1396 DUP4 PUSH2 0xCD2 JUMP JUMPDEST SWAP3 POP DUP3 DUP3 ADD SWAP1 POP DUP1 DUP3 GT ISZERO PUSH2 0x13AE JUMPI PUSH2 0x13AD PUSH2 0x1351 JUMP JUMPDEST JUMPDEST SWAP3 SWAP2 POP POP JUMP JUMPDEST PUSH1 0x0 PUSH2 0x13BF DUP3 PUSH2 0xCD2 JUMP JUMPDEST SWAP2 POP PUSH2 0x13CA DUP4 PUSH2 0xCD2 JUMP JUMPDEST SWAP3 POP DUP3 DUP3 SUB SWAP1 POP DUP2 DUP2 GT ISZERO PUSH2 0x13E2 JUMPI PUSH2 0x13E1 PUSH2 0x1351 JUMP JUMPDEST JUMPDEST SWAP3 SWAP2 POP POP JUMP JUMPDEST PUSH32 0x4E487B7100000000000000000000000000000000000000000000000000000000 PUSH1 0x0 MSTORE PUSH1 0x32 PUSH1 0x4 MSTORE PUSH1 0x24 PUSH1 0x0 REVERT JUMPDEST PUSH1 0x0 PUSH2 0x1422 DUP3 PUSH2 0xCD2 JUMP JUMPDEST SWAP2 POP PUSH32 0xFFFFFFFFFFFFFFFFFFFFFFFFFFFFFFFFFFFFFFFFFFFFFFFFFFFFFFFFFFFFFFFF DUP3 SUB PUSH2 0x1454 JUMPI PUSH2 0x1453 PUSH2 0x1351 JUMP JUMPDEST JUMPDEST PUSH1 0x1 DUP3 ADD SWAP1 POP SWAP2 SWAP1 POP JUMP JUMPDEST PUSH32 0x4E487B7100000000000000000000000000000000000000000000000000000000 PUSH1 0x0 MSTORE PUSH1 0x12 PUSH1 0x4 MSTORE PUSH1 0x24 PUSH1 0x0 REVERT JUMPDEST PUSH1 0x0 PUSH2 0x1499 DUP3 PUSH2 0xCD2 JUMP JUMPDEST SWAP2 POP PUSH2 0x14A4 DUP4 PUSH2 0xCD2 JUMP JUMPDEST SWAP3 POP DUP3 PUSH2 0x14B4 JUMPI PUSH2 0x14B3 PUSH2 0x145F JUMP JUMPDEST JUMPDEST DUP3 DUP3 MOD SWAP1 POP SWAP3 SWAP2 POP POP JUMP JUMPDEST PUSH1 0x0 PUSH2 0x14CA DUP3 PUSH2 0xCD2 JUMP JUMPDEST SWAP2 POP PUSH2 0x14D5 DUP4 PUSH2 0xCD2 JUMP JUMPDEST SWAP3 POP DUP3 PUSH2 0x14E5 JUMPI PUSH2 0x14E4 PUSH2 0x145F JUMP JUMPDEST JUMPDEST DUP3 DUP3 DIV SWAP1 POP SWAP3 SWAP2 POP POP JUMP INVALID LOG2 PUSH5 0x6970667358 0x22 SLT KECCAK256 LOG0 SSTORE SHR DUP11 GAS 0xD5 DUP3 PUSH25 0x4A98999E91FEAC0ECD48CCC79EDD06A11A2DB75CA9CBE22B64 PUSH20 0x6F6C634300081200330000000000000000000000 "
				},
				"gasEstimates": {
					"creation": {
						"codeDepositCost": "1082800",
						"executionCost": "73971",
						"totalCost": "1156771"
					},
					"external": {
						"create(string,uint256)": "infinite",
						"getCurrentPoll()": "infinite",
						"getOwner()": "2522",
						"getProposal(uint256)": "infinite",
						"isVoted(address)": "infinite",
						"setOwner(address)": "24723",
						"terminatePoll()": "infinite",
						"vote(uint8)": "infinite"
					},
					"internal": {
						"calculateCurrentState()": "infinite"
					}
				},
				"methodIdentifiers": {
					"create(string,uint256)": "46f81a87",
					"getCurrentPoll()": "581efa7a",
					"getOwner()": "893d20e8",
					"getProposal(uint256)": "c7f758a8",
					"isVoted(address)": "cbff75cb",
					"setOwner(address)": "13af4035",
					"terminatePoll()": "32149fb5",
					"vote(uint8)": "b3f98adc"
				}
			},
			"storageLayout": {
				"storage": [
					{
						"astId": 66,
						"contract": "contracts/ProposalContract.sol:ProposalContract",
						"label": "owner",
						"offset": 0,
						"slot": "0",
						"type": "t_address"
					},
					{
						"astId": 73,
						"contract": "contracts/ProposalContract.sol:ProposalContract",
						"label": "_counter",
						"offset": 0,
						"slot": "1",
						"type": "t_struct(Counter)6_storage"
					},
					{
						"astId": 93,
						"contract": "contracts/ProposalContract.sol:ProposalContract",
						"label": "proposal_history",
						"offset": 0,
						"slot": "3",
						"type": "t_mapping(t_uint256,t_struct(Proposal)88_storage)"
					},
					{
						"astId": 96,
						"contract": "contracts/ProposalContract.sol:ProposalContract",
						"label": "voted_addresses",
						"offset": 0,
						"slot": "4",
						"type": "t_array(t_address)dyn_storage"
					}
				],
				"types": {
					"t_address": {
						"encoding": "inplace",
						"label": "address",
						"numberOfBytes": "20"
					},
					"t_array(t_address)dyn_storage": {
						"base": "t_address",
						"encoding": "dynamic_array",
						"label": "address[]",
						"numberOfBytes": "32"
					},
					"t_bool": {
						"encoding": "inplace",
						"label": "bool",
						"numberOfBytes": "1"
					},
					"t_mapping(t_uint256,t_struct(Proposal)88_storage)": {
						"encoding": "mapping",
						"key": "t_uint256",
						"label": "mapping(uint256 => struct ProposalContract.Proposal)",
						"numberOfBytes": "32",
						"value": "t_struct(Proposal)88_storage"
					},
					"t_string_storage": {
						"encoding": "bytes",
						"label": "string",
						"numberOfBytes": "32"
					},
					"t_struct(Counter)6_storage": {
						"encoding": "inplace",
						"label": "struct Counters.Counter",
						"members": [
							{
								"astId": 3,
								"contract": "contracts/ProposalContract.sol:ProposalContract",
								"label": "number",
								"offset": 0,
								"slot": "0",
								"type": "t_uint256"
							},
							{
								"astId": 5,
								"contract": "contracts/ProposalContract.sol:ProposalContract",
								"label": "description",
								"offset": 0,
								"slot": "1",
								"type": "t_string_storage"
							}
						],
						"numberOfBytes": "64"
					},
					"t_struct(Proposal)88_storage": {
						"encoding": "inplace",
						"label": "struct ProposalContract.Proposal",
						"members": [
							{
								"astId": 75,
								"contract": "contracts/ProposalContract.sol:ProposalContract",
								"label": "description",
								"offset": 0,
								"slot": "0",
								"type": "t_string_storage"
							},
							{
								"astId": 77,
								"contract": "contracts/ProposalContract.sol:ProposalContract",
								"label": "approve",
								"offset": 0,
								"slot": "1",
								"type": "t_uint256"
							},
							{
								"astId": 79,
								"contract": "contracts/ProposalContract.sol:ProposalContract",
								"label": "reject",
								"offset": 0,
								"slot": "2",
								"type": "t_uint256"
							},
							{
								"astId": 81,
								"contract": "contracts/ProposalContract.sol:ProposalContract",
								"label": "pass",
								"offset": 0,
								"slot": "3",
								"type": "t_uint256"
							},
							{
								"astId": 83,
								"contract": "contracts/ProposalContract.sol:ProposalContract",
								"label": "total_vote_to_end",
								"offset": 0,
								"slot": "4",
								"type": "t_uint256"
							},
							{
								"astId": 85,
								"contract": "contracts/ProposalContract.sol:ProposalContract",
								"label": "current_state",
								"offset": 0,
								"slot": "5",
								"type": "t_bool"
							},
							{
								"astId": 87,
								"contract": "contracts/ProposalContract.sol:ProposalContract",
								"label": "is_active",
								"offset": 1,
								"slot": "5",
								"type": "t_bool"
							}
						],
						"numberOfBytes": "192"
					},
					"t_uint256": {
						"encoding": "inplace",
						"label": "uint256",
						"numberOfBytes": "32"
					}
				}
			},
			"userdoc": {
				"kind": "user",
				"methods": {},
				"version": 1
			}
		}
	}
}